{
  "contractName": "OwnedEverythings",
  "abi": [
    {
      "inputs": [],
      "stateMutability": "nonpayable",
      "type": "constructor"
    },
    {
      "anonymous": false,
      "inputs": [
        {
          "indexed": true,
          "internalType": "address",
          "name": "owner",
          "type": "address"
        },
        {
          "indexed": true,
          "internalType": "address",
          "name": "approved",
          "type": "address"
        },
        {
          "indexed": true,
          "internalType": "uint256",
          "name": "tokenId",
          "type": "uint256"
        }
      ],
      "name": "Approval",
      "type": "event"
    },
    {
      "anonymous": false,
      "inputs": [
        {
          "indexed": true,
          "internalType": "address",
          "name": "owner",
          "type": "address"
        },
        {
          "indexed": true,
          "internalType": "address",
          "name": "operator",
          "type": "address"
        },
        {
          "indexed": false,
          "internalType": "bool",
          "name": "approved",
          "type": "bool"
        }
      ],
      "name": "ApprovalForAll",
      "type": "event"
    },
    {
      "anonymous": false,
      "inputs": [
        {
          "indexed": true,
          "internalType": "address",
          "name": "from",
          "type": "address"
        },
        {
          "indexed": true,
          "internalType": "address",
          "name": "to",
          "type": "address"
        },
        {
          "indexed": true,
          "internalType": "uint256",
          "name": "tokenId",
          "type": "uint256"
        }
      ],
      "name": "Transfer",
      "type": "event"
    },
    {
      "inputs": [
        {
          "internalType": "uint256",
          "name": "",
          "type": "uint256"
        }
      ],
      "name": "allOwnedEverythings",
      "outputs": [
        {
          "internalType": "uint256",
          "name": "tokenId",
          "type": "uint256"
        },
        {
          "internalType": "string",
          "name": "tokenName",
          "type": "string"
        },
        {
          "internalType": "string",
          "name": "tokenURI",
          "type": "string"
        },
        {
          "internalType": "address payable",
          "name": "mintedBy",
          "type": "address"
        },
        {
          "internalType": "address payable",
          "name": "currentOwner",
          "type": "address"
        },
        {
          "internalType": "address payable",
          "name": "previousOwner",
          "type": "address"
        },
        {
          "internalType": "string",
          "name": "_timestamp",
          "type": "string"
        },
        {
          "internalType": "string",
          "name": "_traceAddresses",
          "type": "string"
        },
        {
          "internalType": "uint256",
          "name": "price",
          "type": "uint256"
        },
        {
          "internalType": "uint256",
          "name": "numberOfTransfers",
          "type": "uint256"
        },
        {
          "internalType": "bool",
          "name": "forSale",
          "type": "bool"
        }
      ],
      "stateMutability": "view",
      "type": "function",
      "constant": true
    },
    {
      "inputs": [
        {
          "internalType": "address",
          "name": "to",
          "type": "address"
        },
        {
          "internalType": "uint256",
          "name": "tokenId",
          "type": "uint256"
        }
      ],
      "name": "approve",
      "outputs": [],
      "stateMutability": "nonpayable",
      "type": "function"
    },
    {
      "inputs": [
        {
          "internalType": "address",
          "name": "owner",
          "type": "address"
        }
      ],
      "name": "balanceOf",
      "outputs": [
        {
          "internalType": "uint256",
          "name": "",
          "type": "uint256"
        }
      ],
      "stateMutability": "view",
      "type": "function",
      "constant": true
    },
    {
      "inputs": [],
      "name": "baseURI",
      "outputs": [
        {
          "internalType": "string",
          "name": "",
          "type": "string"
        }
      ],
      "stateMutability": "view",
      "type": "function",
      "constant": true
    },
    {
      "inputs": [],
      "name": "collectionName",
      "outputs": [
        {
          "internalType": "string",
          "name": "",
          "type": "string"
        }
      ],
      "stateMutability": "view",
      "type": "function",
      "constant": true
    },
    {
      "inputs": [],
      "name": "collectionNameSymbol",
      "outputs": [
        {
          "internalType": "string",
          "name": "",
          "type": "string"
        }
      ],
      "stateMutability": "view",
      "type": "function",
      "constant": true
    },
    {
      "inputs": [
        {
          "internalType": "string",
          "name": "",
          "type": "string"
        }
      ],
      "name": "colorExists",
      "outputs": [
        {
          "internalType": "bool",
          "name": "",
          "type": "bool"
        }
      ],
      "stateMutability": "view",
      "type": "function",
      "constant": true
    },
    {
      "inputs": [
        {
          "internalType": "uint256",
          "name": "tokenId",
          "type": "uint256"
        }
      ],
      "name": "getApproved",
      "outputs": [
        {
          "internalType": "address",
          "name": "",
          "type": "address"
        }
      ],
      "stateMutability": "view",
      "type": "function",
      "constant": true
    },
    {
      "inputs": [
        {
          "internalType": "address",
          "name": "owner",
          "type": "address"
        },
        {
          "internalType": "address",
          "name": "operator",
          "type": "address"
        }
      ],
      "name": "isApprovedForAll",
      "outputs": [
        {
          "internalType": "bool",
          "name": "",
          "type": "bool"
        }
      ],
      "stateMutability": "view",
      "type": "function",
      "constant": true
    },
    {
      "inputs": [],
      "name": "name",
      "outputs": [
        {
          "internalType": "string",
          "name": "",
          "type": "string"
        }
      ],
      "stateMutability": "view",
      "type": "function",
      "constant": true
    },
    {
      "inputs": [],
      "name": "ownedeverythingCounter",
      "outputs": [
        {
          "internalType": "uint256",
          "name": "",
          "type": "uint256"
        }
      ],
      "stateMutability": "view",
      "type": "function",
      "constant": true
    },
    {
      "inputs": [
        {
          "internalType": "uint256",
          "name": "tokenId",
          "type": "uint256"
        }
      ],
      "name": "ownerOf",
      "outputs": [
        {
          "internalType": "address",
          "name": "",
          "type": "address"
        }
      ],
      "stateMutability": "view",
      "type": "function",
      "constant": true
    },
    {
      "inputs": [
        {
          "internalType": "address",
          "name": "from",
          "type": "address"
        },
        {
          "internalType": "address",
          "name": "to",
          "type": "address"
        },
        {
          "internalType": "uint256",
          "name": "tokenId",
          "type": "uint256"
        }
      ],
      "name": "safeTransferFrom",
      "outputs": [],
      "stateMutability": "nonpayable",
      "type": "function"
    },
    {
      "inputs": [
        {
          "internalType": "address",
          "name": "from",
          "type": "address"
        },
        {
          "internalType": "address",
          "name": "to",
          "type": "address"
        },
        {
          "internalType": "uint256",
          "name": "tokenId",
          "type": "uint256"
        },
        {
          "internalType": "bytes",
          "name": "_data",
          "type": "bytes"
        }
      ],
      "name": "safeTransferFrom",
      "outputs": [],
      "stateMutability": "nonpayable",
      "type": "function"
    },
    {
      "inputs": [
        {
          "internalType": "address",
          "name": "operator",
          "type": "address"
        },
        {
          "internalType": "bool",
          "name": "approved",
          "type": "bool"
        }
      ],
      "name": "setApprovalForAll",
      "outputs": [],
      "stateMutability": "nonpayable",
      "type": "function"
    },
    {
      "inputs": [
        {
          "internalType": "bytes4",
          "name": "interfaceId",
          "type": "bytes4"
        }
      ],
      "name": "supportsInterface",
      "outputs": [
        {
          "internalType": "bool",
          "name": "",
          "type": "bool"
        }
      ],
      "stateMutability": "view",
      "type": "function",
      "constant": true
    },
    {
      "inputs": [],
      "name": "symbol",
      "outputs": [
        {
          "internalType": "string",
          "name": "",
          "type": "string"
        }
      ],
      "stateMutability": "view",
      "type": "function",
      "constant": true
    },
    {
      "inputs": [
        {
          "internalType": "uint256",
          "name": "index",
          "type": "uint256"
        }
      ],
      "name": "tokenByIndex",
      "outputs": [
        {
          "internalType": "uint256",
          "name": "",
          "type": "uint256"
        }
      ],
      "stateMutability": "view",
      "type": "function",
      "constant": true
    },
    {
      "inputs": [
        {
          "internalType": "address",
          "name": "owner",
          "type": "address"
        },
        {
          "internalType": "uint256",
          "name": "index",
          "type": "uint256"
        }
      ],
      "name": "tokenOfOwnerByIndex",
      "outputs": [
        {
          "internalType": "uint256",
          "name": "",
          "type": "uint256"
        }
      ],
      "stateMutability": "view",
      "type": "function",
      "constant": true
    },
    {
      "inputs": [
        {
          "internalType": "uint256",
          "name": "tokenId",
          "type": "uint256"
        }
      ],
      "name": "tokenURI",
      "outputs": [
        {
          "internalType": "string",
          "name": "",
          "type": "string"
        }
      ],
      "stateMutability": "view",
      "type": "function",
      "constant": true
    },
    {
      "inputs": [
        {
          "internalType": "string",
          "name": "",
          "type": "string"
        }
      ],
      "name": "tokenURIExists",
      "outputs": [
        {
          "internalType": "bool",
          "name": "",
          "type": "bool"
        }
      ],
      "stateMutability": "view",
      "type": "function",
      "constant": true
    },
    {
      "inputs": [],
      "name": "totalSupply",
      "outputs": [
        {
          "internalType": "uint256",
          "name": "",
          "type": "uint256"
        }
      ],
      "stateMutability": "view",
      "type": "function",
      "constant": true
    },
    {
      "inputs": [
        {
          "internalType": "address",
          "name": "from",
          "type": "address"
        },
        {
          "internalType": "address",
          "name": "to",
          "type": "address"
        },
        {
          "internalType": "uint256",
          "name": "tokenId",
          "type": "uint256"
        }
      ],
      "name": "transferFrom",
      "outputs": [],
      "stateMutability": "nonpayable",
      "type": "function"
    },
    {
      "inputs": [
        {
          "internalType": "string",
          "name": "a",
          "type": "string"
        },
        {
          "internalType": "string",
          "name": "b",
          "type": "string"
        }
      ],
      "name": "isEqual",
      "outputs": [
        {
          "internalType": "bool",
          "name": "",
          "type": "bool"
        }
      ],
      "stateMutability": "pure",
      "type": "function",
      "constant": true
    },
    {
      "inputs": [
        {
          "internalType": "string",
          "name": "_name",
          "type": "string"
        },
        {
          "internalType": "string",
          "name": "_tokenURI",
          "type": "string"
        },
        {
          "internalType": "uint256",
          "name": "_price",
          "type": "uint256"
        },
        {
          "internalType": "string[]",
          "name": "_colors",
          "type": "string[]"
        },
        {
          "internalType": "string",
          "name": "_tokenType",
          "type": "string"
        }
      ],
      "name": "mintownedeverything",
      "outputs": [],
      "stateMutability": "nonpayable",
      "type": "function"
    },
    {
      "inputs": [
        {
          "internalType": "uint256",
          "name": "_tokenId",
          "type": "uint256"
        }
      ],
      "name": "getTokenOwner",
      "outputs": [
        {
          "internalType": "address",
          "name": "",
          "type": "address"
        }
      ],
      "stateMutability": "view",
      "type": "function",
      "constant": true
    },
    {
      "inputs": [
        {
          "internalType": "uint256",
          "name": "_tokenId",
          "type": "uint256"
        }
      ],
      "name": "getTokenMetaData",
      "outputs": [
        {
          "internalType": "string",
          "name": "",
          "type": "string"
        }
      ],
      "stateMutability": "view",
      "type": "function",
      "constant": true
    },
    {
      "inputs": [],
      "name": "getNumberOfTokensMinted",
      "outputs": [
        {
          "internalType": "uint256",
          "name": "",
          "type": "uint256"
        }
      ],
      "stateMutability": "view",
      "type": "function",
      "constant": true
    },
    {
      "inputs": [
        {
          "internalType": "address",
          "name": "_owner",
          "type": "address"
        }
      ],
      "name": "getTotalNumberOfTokensOwnedByAnAddress",
      "outputs": [
        {
          "internalType": "uint256",
          "name": "",
          "type": "uint256"
        }
      ],
      "stateMutability": "view",
      "type": "function",
      "constant": true
    },
    {
      "inputs": [
        {
          "internalType": "uint256",
          "name": "_tokenId",
          "type": "uint256"
        }
      ],
      "name": "getTokenExists",
      "outputs": [
        {
          "internalType": "bool",
          "name": "",
          "type": "bool"
        }
      ],
      "stateMutability": "view",
      "type": "function",
      "constant": true
    },
    {
      "inputs": [
        {
          "internalType": "uint256",
          "name": "_tokenId",
          "type": "uint256"
        }
      ],
      "name": "buyToken",
      "outputs": [],
      "stateMutability": "payable",
      "type": "function",
      "payable": true
    },
    {
      "inputs": [
        {
          "internalType": "uint256",
          "name": "_tokenId",
          "type": "uint256"
        },
        {
          "internalType": "uint256",
          "name": "_newPrice",
          "type": "uint256"
        }
      ],
      "name": "changeTokenPrice",
      "outputs": [],
      "stateMutability": "nonpayable",
      "type": "function"
    },
    {
      "inputs": [
        {
          "internalType": "uint256",
          "name": "_tokenId",
          "type": "uint256"
        }
      ],
      "name": "toggleForSale",
      "outputs": [],
      "stateMutability": "nonpayable",
      "type": "function"
    }
  ],
  "bytecode": "0x60806040523480156200001157600080fd5b506040518060400160405280601081526020017f4f776e656445766572797468696e6773000000000000000000000000000000008152506040518060400160405280600981526020017f4f575f455468696e670000000000000000000000000000000000000000000000815250620000966301ffc9a760e01b6200016860201b60201c565b8160069080519060200190620000ae929190620003bd565b508060079080519060200190620000c7929190620003bd565b50620000e06380ac58cd60e01b6200016860201b60201c565b620000f8635b5e139f60e01b6200016860201b60201c565b6200011063780e9d6360e01b6200016860201b60201c565b5050620001226200027160201b60201c565b600a908051906020019062000139929190620003bd565b506200014a6200031760201b60201c565b600b908051906020019062000161929190620003bd565b5062000473565b63ffffffff60e01b817bffffffffffffffffffffffffffffffffffffffffffffffffffffffff1916141562000205576040517f08c379a000000000000000000000000000000000000000000000000000000000815260040180806020018281038252601c8152602001807f4552433136353a20696e76616c696420696e746572666163652069640000000081525060200191505060405180910390fd5b6001600080837bffffffffffffffffffffffffffffffffffffffffffffffffffffffff19167bffffffffffffffffffffffffffffffffffffffffffffffffffffffff1916815260200190815260200160002060006101000a81548160ff02191690831515021790555050565b606060068054600181600116156101000203166002900480601f0160208091040260200160405190810160405280929190818152602001828054600181600116156101000203166002900480156200030d5780601f10620002e1576101008083540402835291602001916200030d565b820191906000526020600020905b815481529060010190602001808311620002ef57829003601f168201915b5050505050905090565b606060078054600181600116156101000203166002900480601f016020809104026020016040519081016040528092919081815260200182805460018160011615610100020316600290048015620003b35780601f106200038757610100808354040283529160200191620003b3565b820191906000526020600020905b8154815290600101906020018083116200039557829003601f168201915b5050505050905090565b828054600181600116156101000203166002900490600052602060002090601f016020900481019282620003f5576000855562000441565b82601f106200041057805160ff191683800117855562000441565b8280016001018555821562000441579182015b828111156200044057825182559160200191906001019062000423565b5b50905062000450919062000454565b5090565b5b808211156200046f57600081600090555060010162000455565b5090565b615a0a80620004836000396000f3fe6080604052600436106101ee5760003560e01c806362e8e8ac1161010d578063a22cb465116100a0578063c87b56dd1161006f578063c87b56dd14610772578063cc151f3a146107af578063e5326ab1146107da578063e985e9c514610805578063f7c1c3f314610842576101ee565b8063a22cb465146106ba578063a32018b9146106e3578063a5cd761f1461070c578063b88d4fde14610749576101ee565b80636f9507f9116100dc5780636f9507f9146105ea57806370a08231146106155780638d44807c1461065257806395d89b411461068f576101ee565b806362e8e8ac1461051c5780636352211e1461054557806367c623cf146105825780636c0360eb146105bf576101ee565b80632d296bf11161018557806343d32ae71161015457806343d32ae71461043c578063465c4105146104795780634f6ccce7146104b6578063574858ed146104f3576101ee565b80632d296bf11461037d5780632f745c591461039957806342842e0e146103d657806343902850146103ff576101ee565b8063142687f3116101c1578063142687f3146102c157806318160ddd146102fe5780631f1985c31461032957806323b872dd14610354576101ee565b806301ffc9a7146101f357806306fdde0314610230578063081812fc1461025b578063095ea7b314610298575b600080fd5b3480156101ff57600080fd5b5061021a600480360381019061021591906150cb565b610889565b60405161022791906153f6565b60405180910390f35b34801561023c57600080fd5b506102456108f0565b6040516102529190615411565b60405180910390f35b34801561026757600080fd5b50610282600480360381019061027d919061527b565b610992565b60405161028f91906153db565b60405180910390f35b3480156102a457600080fd5b506102bf60048036038101906102ba919061508f565b610a2d565b005b3480156102cd57600080fd5b506102e860048036038101906102e3919061527b565b610b71565b6040516102f591906153f6565b60405180910390f35b34801561030a57600080fd5b50610313610b88565b6040516103209190615433565b60405180910390f35b34801561033557600080fd5b5061033e610b99565b60405161034b9190615433565b60405180910390f35b34801561036057600080fd5b5061037b60048036038101906103769190614f89565b610b9f565b005b6103976004803603810190610392919061527b565b610c15565b005b3480156103a557600080fd5b506103c060048036038101906103bb919061508f565b61156c565b6040516103cd9190615433565b60405180910390f35b3480156103e257600080fd5b506103fd60048036038101906103f89190614f89565b6115c7565b005b34801561040b57600080fd5b5061042660048036038101906104219190614f24565b6115e7565b6040516104339190615433565b60405180910390f35b34801561044857600080fd5b50610463600480360381019061045e91906150f4565b6115fe565b60405161047091906153f6565b60405180910390f35b34801561048557600080fd5b506104a0600480360381019061049b9190615135565b611634565b6040516104ad91906153f6565b60405180910390f35b3480156104c257600080fd5b506104dd60048036038101906104d8919061527b565b6116fd565b6040516104ea9190615433565b60405180910390f35b3480156104ff57600080fd5b5061051a600480360381019061051591906151a1565b611720565b005b34801561052857600080fd5b50610543600480360381019061053e91906152a4565b611bc0565b005b34801561055157600080fd5b5061056c6004803603810190610567919061527b565b6121e9565b60405161057991906153db565b60405180910390f35b34801561058e57600080fd5b506105a960048036038101906105a4919061527b565b612220565b6040516105b69190615411565b60405180910390f35b3480156105cb57600080fd5b506105d4612238565b6040516105e19190615411565b60405180910390f35b3480156105f657600080fd5b506105ff6122da565b60405161060c9190615411565b60405180910390f35b34801561062157600080fd5b5061063c60048036038101906106379190614f24565b612378565b6040516106499190615433565b60405180910390f35b34801561065e57600080fd5b50610679600480360381019061067491906150f4565b61244d565b60405161068691906153f6565b60405180910390f35b34801561069b57600080fd5b506106a4612483565b6040516106b19190615411565b60405180910390f35b3480156106c657600080fd5b506106e160048036038101906106dc9190615053565b612525565b005b3480156106ef57600080fd5b5061070a6004803603810190610705919061527b565b6126db565b005b34801561071857600080fd5b50610733600480360381019061072e919061527b565b612d2d565b60405161074091906153db565b60405180910390f35b34801561075557600080fd5b50610770600480360381019061076b9190614fd8565b612d44565b005b34801561077e57600080fd5b506107996004803603810190610794919061527b565b612dbc565b6040516107a69190615411565b60405180910390f35b3480156107bb57600080fd5b506107c461308d565b6040516107d19190615433565b60405180910390f35b3480156107e657600080fd5b506107ef6130a1565b6040516107fc9190615411565b60405180910390f35b34801561081157600080fd5b5061082c60048036038101906108279190614f4d565b61313f565b60405161083991906153f6565b60405180910390f35b34801561084e57600080fd5b506108696004803603810190610864919061527b565b6131d3565b6040516108809b9a9998979695949392919061544e565b60405180910390f35b6000806000837bffffffffffffffffffffffffffffffffffffffffffffffffffffffff19167bffffffffffffffffffffffffffffffffffffffffffffffffffffffff1916815260200190815260200160002060009054906101000a900460ff169050919050565b606060068054600181600116156101000203166002900480601f0160208091040260200160405190810160405280929190818152602001828054600181600116156101000203166002900480156109885780601f1061095d57610100808354040283529160200191610988565b820191906000526020600020905b81548152906001019060200180831161096b57829003601f168201915b5050505050905090565b600061099d826134fa565b6109f2576040517f08c379a000000000000000000000000000000000000000000000000000000000815260040180806020018281038252602c8152602001806158d3602c913960400191505060405180910390fd5b6004600083815260200190815260200160002060009054906101000a900473ffffffffffffffffffffffffffffffffffffffff169050919050565b6000610a38826121e9565b90508073ffffffffffffffffffffffffffffffffffffffff168373ffffffffffffffffffffffffffffffffffffffff161415610abf576040517f08c379a00000000000000000000000000000000000000000000000000000000081526004018080602001828103825260218152602001806159836021913960400191505060405180910390fd5b8073ffffffffffffffffffffffffffffffffffffffff16610ade613517565b73ffffffffffffffffffffffffffffffffffffffff161480610b0d5750610b0c81610b07613517565b61313f565b5b610b62576040517f08c379a00000000000000000000000000000000000000000000000000000000081526004018080602001828103825260388152602001806158266038913960400191505060405180910390fd5b610b6c838361351f565b505050565b600080610b7d836134fa565b905080915050919050565b6000610b9460026135d8565b905090565b600c5481565b610bb0610baa613517565b826135ed565b610c05576040517f08c379a00000000000000000000000000000000000000000000000000000000081526004018080602001828103825260318152602001806159a46031913960400191505060405180910390fd5b610c108383836136e1565b505050565b600073ffffffffffffffffffffffffffffffffffffffff163373ffffffffffffffffffffffffffffffffffffffff161415610c4f57600080fd5b610c58816134fa565b610c6157600080fd5b6000610c6c826121e9565b9050600073ffffffffffffffffffffffffffffffffffffffff168173ffffffffffffffffffffffffffffffffffffffff161415610ca857600080fd5b3373ffffffffffffffffffffffffffffffffffffffff168173ffffffffffffffffffffffffffffffffffffffff161415610ce157600080fd5b6000600d60008481526020019081526020016000206040518061016001604052908160008201548152602001600182018054600181600116156101000203166002900480601f016020809104026020016040519081016040528092919081815260200182805460018160011615610100020316600290048015610da55780601f10610d7a57610100808354040283529160200191610da5565b820191906000526020600020905b815481529060010190602001808311610d8857829003601f168201915b50505050508152602001600282018054600181600116156101000203166002900480601f016020809104026020016040519081016040528092919081815260200182805460018160011615610100020316600290048015610e475780601f10610e1c57610100808354040283529160200191610e47565b820191906000526020600020905b815481529060010190602001808311610e2a57829003601f168201915b505050505081526020016003820160009054906101000a900473ffffffffffffffffffffffffffffffffffffffff1673ffffffffffffffffffffffffffffffffffffffff1673ffffffffffffffffffffffffffffffffffffffff1681526020016004820160009054906101000a900473ffffffffffffffffffffffffffffffffffffffff1673ffffffffffffffffffffffffffffffffffffffff1673ffffffffffffffffffffffffffffffffffffffff1681526020016005820160009054906101000a900473ffffffffffffffffffffffffffffffffffffffff1673ffffffffffffffffffffffffffffffffffffffff1673ffffffffffffffffffffffffffffffffffffffff168152602001600682018054600181600116156101000203166002900480601f016020809104026020016040519081016040528092919081815260200182805460018160011615610100020316600290048015610feb5780601f10610fc057610100808354040283529160200191610feb565b820191906000526020600020905b815481529060010190602001808311610fce57829003601f168201915b50505050508152602001600782018054600181600116156101000203166002900480601f01602080910402602001604051908101604052809291908181526020018280546001816001161561010002031660029004801561108d5780601f106110625761010080835404028352916020019161108d565b820191906000526020600020905b81548152906001019060200180831161107057829003601f168201915b505050505081526020016008820154815260200160098201548152602001600a820160009054906101000a900460ff16151515158152505090508061010001513410156110d957600080fd5b8061014001516110e857600080fd5b6110f38233856136e1565b6000816080015190508073ffffffffffffffffffffffffffffffffffffffff166108fc349081150290604051600060405180830381858888f19350505050158015611142573d6000803e3d6000fd5b5081608001518260a0019073ffffffffffffffffffffffffffffffffffffffff16908173ffffffffffffffffffffffffffffffffffffffff168152505033826080019073ffffffffffffffffffffffffffffffffffffffff16908173ffffffffffffffffffffffffffffffffffffffff16815250506112ad600d60008681526020019081526020016000206006018054600181600116156101000203166002900480601f0160208091040260200160405190810160405280929190818152602001828054600181600116156101000203166002900480156112645780601f1061123957610100808354040283529160200191611264565b820191906000526020600020905b81548152906001019060200180831161124757829003601f168201915b50505050506040518060400160405280600181526020017f2c000000000000000000000000000000000000000000000000000000000000008152506112a842613924565b613a6b565b8260c001819052506113ab600d60008681526020019081526020016000206007018054600181600116156101000203166002900480601f0160208091040260200160405190810160405280929190818152602001828054600181600116156101000203166002900480156113625780601f1061133757610100808354040283529160200191611362565b820191906000526020600020905b81548152906001019060200180831161134557829003601f168201915b50505050506040518060400160405280600181526020017f2c000000000000000000000000000000000000000000000000000000000000008152506113a633613c3e565b613a6b565b8260e0018190525060018261012001818151019150818152505081600d60008681526020019081526020016000206000820151816000015560208201518160010190805190602001906113ff929190614d0b565b50604082015181600201908051906020019061141c929190614d0b565b5060608201518160030160006101000a81548173ffffffffffffffffffffffffffffffffffffffff021916908373ffffffffffffffffffffffffffffffffffffffff16021790555060808201518160040160006101000a81548173ffffffffffffffffffffffffffffffffffffffff021916908373ffffffffffffffffffffffffffffffffffffffff16021790555060a08201518160050160006101000a81548173ffffffffffffffffffffffffffffffffffffffff021916908373ffffffffffffffffffffffffffffffffffffffff16021790555060c082015181600601908051906020019061150e929190614d0b565b5060e082015181600701908051906020019061152b929190614d0b565b506101008201518160080155610120820151816009015561014082015181600a0160006101000a81548160ff02191690831515021790555090505050505050565b60006115bf82600160008673ffffffffffffffffffffffffffffffffffffffff1673ffffffffffffffffffffffffffffffffffffffff168152602001908152602001600020613e3190919063ffffffff16565b905092915050565b6115e283838360405180602001604052806000815250612d44565b505050565b6000806115f383612378565b905080915050919050565b600f818051602081018201805184825260208301602085012081835280955050505050506000915054906101000a900460ff1681565b60008083905060008390508051825114611653576000925050506116f7565b60005b82518110156116ef5781818151811061166b57fe5b602001015160f81c60f81b7effffffffffffffffffffffffffffffffffffffffffffffffffffffffffffff19168382815181106116a457fe5b602001015160f81c60f81b7effffffffffffffffffffffffffffffffffffffffffffffffffffffffffffff1916146116e257600093505050506116f7565b8080600101915050611656565b506001925050505b92915050565b600080611714836002613e4b90919063ffffffff16565b50905080915050919050565b600073ffffffffffffffffffffffffffffffffffffffff163373ffffffffffffffffffffffffffffffffffffffff16141561175a57600080fd5b600c60008154809291906001019190505550611777600c546134fa565b1561178157600080fd5b6117c0816040518060400160405280600581526020017f636f6c6f72000000000000000000000000000000000000000000000000000000815250611634565b156118365760005b8383905081101561183457600e8484838181106117e157fe5b90506020028101906117f39190615515565b6040516118019291906153ab565b908152602001604051809103902060009054906101000a900460ff161561182757600080fd5b80806001019150506117c8565b505b600f8560405161184691906153c4565b908152602001604051809103902060009054906101000a900460ff161561186c57600080fd5b61187833600c54613e77565b611884600c548661406b565b6118c3816040518060400160405280600581526020017f636f6c6f72000000000000000000000000000000000000000000000000000000815250611634565b1561193a5760005b83839050811015611938576001600e8585848181106118e657fe5b90506020028101906118f89190615515565b6040516119069291906153ab565b908152602001604051809103902060006101000a81548160ff02191690831515021790555080806001019150506118cb565b505b6001600f8660405161194c91906153c4565b908152602001604051809103902060006101000a81548160ff021916908315150217905550604051806101600160405280600c5481526020018781526020018681526020013373ffffffffffffffffffffffffffffffffffffffff1681526020013373ffffffffffffffffffffffffffffffffffffffff168152602001600073ffffffffffffffffffffffffffffffffffffffff1681526020016119ef42613924565b81526020016119fd33613c3e565b81526020018581526020016000815260200160011515815250600d6000600c548152602001908152602001600020600082015181600001556020820151816001019080519060200190611a51929190614d0b565b506040820151816002019080519060200190611a6e929190614d0b565b5060608201518160030160006101000a81548173ffffffffffffffffffffffffffffffffffffffff021916908373ffffffffffffffffffffffffffffffffffffffff16021790555060808201518160040160006101000a81548173ffffffffffffffffffffffffffffffffffffffff021916908373ffffffffffffffffffffffffffffffffffffffff16021790555060a08201518160050160006101000a81548173ffffffffffffffffffffffffffffffffffffffff021916908373ffffffffffffffffffffffffffffffffffffffff16021790555060c0820151816006019080519060200190611b60929190614d0b565b5060e0820151816007019080519060200190611b7d929190614d0b565b506101008201518160080155610120820151816009015561014082015181600a0160006101000a81548160ff021916908315150217905550905050505050505050565b600073ffffffffffffffffffffffffffffffffffffffff163373ffffffffffffffffffffffffffffffffffffffff161415611bfa57600080fd5b611c03826134fa565b611c0c57600080fd5b6000611c17836121e9565b90503373ffffffffffffffffffffffffffffffffffffffff168173ffffffffffffffffffffffffffffffffffffffff1614611c5157600080fd5b6000600d60008581526020019081526020016000206040518061016001604052908160008201548152602001600182018054600181600116156101000203166002900480601f016020809104026020016040519081016040528092919081815260200182805460018160011615610100020316600290048015611d155780601f10611cea57610100808354040283529160200191611d15565b820191906000526020600020905b815481529060010190602001808311611cf857829003601f168201915b50505050508152602001600282018054600181600116156101000203166002900480601f016020809104026020016040519081016040528092919081815260200182805460018160011615610100020316600290048015611db75780601f10611d8c57610100808354040283529160200191611db7565b820191906000526020600020905b815481529060010190602001808311611d9a57829003601f168201915b505050505081526020016003820160009054906101000a900473ffffffffffffffffffffffffffffffffffffffff1673ffffffffffffffffffffffffffffffffffffffff1673ffffffffffffffffffffffffffffffffffffffff1681526020016004820160009054906101000a900473ffffffffffffffffffffffffffffffffffffffff1673ffffffffffffffffffffffffffffffffffffffff1673ffffffffffffffffffffffffffffffffffffffff1681526020016005820160009054906101000a900473ffffffffffffffffffffffffffffffffffffffff1673ffffffffffffffffffffffffffffffffffffffff1673ffffffffffffffffffffffffffffffffffffffff168152602001600682018054600181600116156101000203166002900480601f016020809104026020016040519081016040528092919081815260200182805460018160011615610100020316600290048015611f5b5780601f10611f3057610100808354040283529160200191611f5b565b820191906000526020600020905b815481529060010190602001808311611f3e57829003601f168201915b50505050508152602001600782018054600181600116156101000203166002900480601f016020809104026020016040519081016040528092919081815260200182805460018160011615610100020316600290048015611ffd5780601f10611fd257610100808354040283529160200191611ffd565b820191906000526020600020905b815481529060010190602001808311611fe057829003601f168201915b505050505081526020016008820154815260200160098201548152602001600a820160009054906101000a900460ff1615151515815250509050828161010001818152505080600d600086815260200190815260200160002060008201518160000155602082015181600101908051906020019061207c929190614d0b565b506040820151816002019080519060200190612099929190614d0b565b5060608201518160030160006101000a81548173ffffffffffffffffffffffffffffffffffffffff021916908373ffffffffffffffffffffffffffffffffffffffff16021790555060808201518160040160006101000a81548173ffffffffffffffffffffffffffffffffffffffff021916908373ffffffffffffffffffffffffffffffffffffffff16021790555060a08201518160050160006101000a81548173ffffffffffffffffffffffffffffffffffffffff021916908373ffffffffffffffffffffffffffffffffffffffff16021790555060c082015181600601908051906020019061218b929190614d0b565b5060e08201518160070190805190602001906121a8929190614d0b565b506101008201518160080155610120820151816009015561014082015181600a0160006101000a81548160ff02191690831515021790555090505050505050565b6000612219826040518060600160405280602981526020016158886029913960026140f59092919063ffffffff16565b9050919050565b6060600061222d83612dbc565b905080915050919050565b606060098054600181600116156101000203166002900480601f0160208091040260200160405190810160405280929190818152602001828054600181600116156101000203166002900480156122d05780601f106122a5576101008083540402835291602001916122d0565b820191906000526020600020905b8154815290600101906020018083116122b357829003601f168201915b5050505050905090565b600b8054600181600116156101000203166002900480601f0160208091040260200160405190810160405280929190818152602001828054600181600116156101000203166002900480156123705780601f1061234557610100808354040283529160200191612370565b820191906000526020600020905b81548152906001019060200180831161235357829003601f168201915b505050505081565b60008073ffffffffffffffffffffffffffffffffffffffff168273ffffffffffffffffffffffffffffffffffffffff1614156123ff576040517f08c379a000000000000000000000000000000000000000000000000000000000815260040180806020018281038252602a81526020018061585e602a913960400191505060405180910390fd5b612446600160008473ffffffffffffffffffffffffffffffffffffffff1673ffffffffffffffffffffffffffffffffffffffff168152602001908152602001600020614114565b9050919050565b600e818051602081018201805184825260208301602085012081835280955050505050506000915054906101000a900460ff1681565b606060078054600181600116156101000203166002900480601f01602080910402602001604051908101604052809291908181526020018280546001816001161561010002031660029004801561251b5780601f106124f05761010080835404028352916020019161251b565b820191906000526020600020905b8154815290600101906020018083116124fe57829003601f168201915b5050505050905090565b61252d613517565b73ffffffffffffffffffffffffffffffffffffffff168273ffffffffffffffffffffffffffffffffffffffff1614156125ce576040517f08c379a00000000000000000000000000000000000000000000000000000000081526004018080602001828103825260198152602001807f4552433732313a20617070726f766520746f2063616c6c65720000000000000081525060200191505060405180910390fd5b80600560006125db613517565b73ffffffffffffffffffffffffffffffffffffffff1673ffffffffffffffffffffffffffffffffffffffff16815260200190815260200160002060008473ffffffffffffffffffffffffffffffffffffffff1673ffffffffffffffffffffffffffffffffffffffff16815260200190815260200160002060006101000a81548160ff0219169083151502179055508173ffffffffffffffffffffffffffffffffffffffff16612688613517565b73ffffffffffffffffffffffffffffffffffffffff167f17307eab39ab6107e8899845ad3d59bd9653f200f220920489ca2b5937696c318360405180821515815260200191505060405180910390a35050565b600073ffffffffffffffffffffffffffffffffffffffff163373ffffffffffffffffffffffffffffffffffffffff16141561271557600080fd5b61271e816134fa565b61272757600080fd5b6000612732826121e9565b90503373ffffffffffffffffffffffffffffffffffffffff168173ffffffffffffffffffffffffffffffffffffffff161461276c57600080fd5b6000600d60008481526020019081526020016000206040518061016001604052908160008201548152602001600182018054600181600116156101000203166002900480601f0160208091040260200160405190810160405280929190818152602001828054600181600116156101000203166002900480156128305780601f1061280557610100808354040283529160200191612830565b820191906000526020600020905b81548152906001019060200180831161281357829003601f168201915b50505050508152602001600282018054600181600116156101000203166002900480601f0160208091040260200160405190810160405280929190818152602001828054600181600116156101000203166002900480156128d25780601f106128a7576101008083540402835291602001916128d2565b820191906000526020600020905b8154815290600101906020018083116128b557829003601f168201915b505050505081526020016003820160009054906101000a900473ffffffffffffffffffffffffffffffffffffffff1673ffffffffffffffffffffffffffffffffffffffff1673ffffffffffffffffffffffffffffffffffffffff1681526020016004820160009054906101000a900473ffffffffffffffffffffffffffffffffffffffff1673ffffffffffffffffffffffffffffffffffffffff1673ffffffffffffffffffffffffffffffffffffffff1681526020016005820160009054906101000a900473ffffffffffffffffffffffffffffffffffffffff1673ffffffffffffffffffffffffffffffffffffffff1673ffffffffffffffffffffffffffffffffffffffff168152602001600682018054600181600116156101000203166002900480601f016020809104026020016040519081016040528092919081815260200182805460018160011615610100020316600290048015612a765780601f10612a4b57610100808354040283529160200191612a76565b820191906000526020600020905b815481529060010190602001808311612a5957829003601f168201915b50505050508152602001600782018054600181600116156101000203166002900480601f016020809104026020016040519081016040528092919081815260200182805460018160011615610100020316600290048015612b185780601f10612aed57610100808354040283529160200191612b18565b820191906000526020600020905b815481529060010190602001808311612afb57829003601f168201915b505050505081526020016008820154815260200160098201548152602001600a820160009054906101000a900460ff161515151581525050905080610140015115612b7457600081610140019015159081151581525050612b87565b6001816101400190151590811515815250505b80600d6000858152602001908152602001600020600082015181600001556020820151816001019080519060200190612bc1929190614d0b565b506040820151816002019080519060200190612bde929190614d0b565b5060608201518160030160006101000a81548173ffffffffffffffffffffffffffffffffffffffff021916908373ffffffffffffffffffffffffffffffffffffffff16021790555060808201518160040160006101000a81548173ffffffffffffffffffffffffffffffffffffffff021916908373ffffffffffffffffffffffffffffffffffffffff16021790555060a08201518160050160006101000a81548173ffffffffffffffffffffffffffffffffffffffff021916908373ffffffffffffffffffffffffffffffffffffffff16021790555060c0820151816006019080519060200190612cd0929190614d0b565b5060e0820151816007019080519060200190612ced929190614d0b565b506101008201518160080155610120820151816009015561014082015181600a0160006101000a81548160ff021916908315150217905550905050505050565b600080612d39836121e9565b905080915050919050565b612d55612d4f613517565b836135ed565b612daa576040517f08c379a00000000000000000000000000000000000000000000000000000000081526004018080602001828103825260318152602001806159a46031913960400191505060405180910390fd5b612db684848484614129565b50505050565b6060612dc7826134fa565b612e1c576040517f08c379a000000000000000000000000000000000000000000000000000000000815260040180806020018281038252602f815260200180615954602f913960400191505060405180910390fd5b6000600860008481526020019081526020016000208054600181600116156101000203166002900480601f016020809104026020016040519081016040528092919081815260200182805460018160011615610100020316600290048015612ec55780601f10612e9a57610100808354040283529160200191612ec5565b820191906000526020600020905b815481529060010190602001808311612ea857829003601f168201915b505050505090506000612ed6612238565b9050600081511415612eec578192505050613088565b600082511115612fbd5780826040516020018083805190602001908083835b60208310612f2e5780518252602082019150602081019050602083039250612f0b565b6001836020036101000a03801982511681845116808217855250505050505090500182805190602001908083835b60208310612f7f5780518252602082019150602081019050602083039250612f5c565b6001836020036101000a0380198251168184511680821785525050505050509050019250505060405160208183030381529060405292505050613088565b80612fc78561419b565b6040516020018083805190602001908083835b60208310612ffd5780518252602082019150602081019050602083039250612fda565b6001836020036101000a03801982511681845116808217855250505050505090500182805190602001908083835b6020831061304e578051825260208201915060208101905060208303925061302b565b6001836020036101000a03801982511681845116808217855250505050505090500192505050604051602081830303815290604052925050505b919050565b600080613098610b88565b90508091505090565b600a8054600181600116156101000203166002900480601f0160208091040260200160405190810160405280929190818152602001828054600181600116156101000203166002900480156131375780601f1061310c57610100808354040283529160200191613137565b820191906000526020600020905b81548152906001019060200180831161311a57829003601f168201915b505050505081565b6000600560008473ffffffffffffffffffffffffffffffffffffffff1673ffffffffffffffffffffffffffffffffffffffff16815260200190815260200160002060008373ffffffffffffffffffffffffffffffffffffffff1673ffffffffffffffffffffffffffffffffffffffff16815260200190815260200160002060009054906101000a900460ff16905092915050565b600d602052806000526040600020600091509050806000015490806001018054600181600116156101000203166002900480601f0160208091040260200160405190810160405280929190818152602001828054600181600116156101000203166002900480156132855780601f1061325a57610100808354040283529160200191613285565b820191906000526020600020905b81548152906001019060200180831161326857829003601f168201915b505050505090806002018054600181600116156101000203166002900480601f0160208091040260200160405190810160405280929190818152602001828054600181600116156101000203166002900480156133235780601f106132f857610100808354040283529160200191613323565b820191906000526020600020905b81548152906001019060200180831161330657829003601f168201915b5050505050908060030160009054906101000a900473ffffffffffffffffffffffffffffffffffffffff16908060040160009054906101000a900473ffffffffffffffffffffffffffffffffffffffff16908060050160009054906101000a900473ffffffffffffffffffffffffffffffffffffffff1690806006018054600181600116156101000203166002900480601f0160208091040260200160405190810160405280929190818152602001828054600181600116156101000203166002900480156134335780601f1061340857610100808354040283529160200191613433565b820191906000526020600020905b81548152906001019060200180831161341657829003601f168201915b505050505090806007018054600181600116156101000203166002900480601f0160208091040260200160405190810160405280929190818152602001828054600181600116156101000203166002900480156134d15780601f106134a6576101008083540402835291602001916134d1565b820191906000526020600020905b8154815290600101906020018083116134b457829003601f168201915b50505050509080600801549080600901549080600a0160009054906101000a900460ff1690508b565b60006135108260026142e290919063ffffffff16565b9050919050565b600033905090565b816004600083815260200190815260200160002060006101000a81548173ffffffffffffffffffffffffffffffffffffffff021916908373ffffffffffffffffffffffffffffffffffffffff160217905550808273ffffffffffffffffffffffffffffffffffffffff16613592836121e9565b73ffffffffffffffffffffffffffffffffffffffff167f8c5be1e5ebec7d5bd14f71427d1e84f3dd0314c0f7b2291e5b200ac8c7c3b92560405160405180910390a45050565b60006135e6826000016142fc565b9050919050565b60006135f8826134fa565b61364d576040517f08c379a000000000000000000000000000000000000000000000000000000000815260040180806020018281038252602c8152602001806157fa602c913960400191505060405180910390fd5b6000613658836121e9565b90508073ffffffffffffffffffffffffffffffffffffffff168473ffffffffffffffffffffffffffffffffffffffff1614806136c757508373ffffffffffffffffffffffffffffffffffffffff166136af84610992565b73ffffffffffffffffffffffffffffffffffffffff16145b806136d857506136d7818561313f565b5b91505092915050565b8273ffffffffffffffffffffffffffffffffffffffff16613701826121e9565b73ffffffffffffffffffffffffffffffffffffffff161461376d576040517f08c379a000000000000000000000000000000000000000000000000000000000815260040180806020018281038252602981526020018061592b6029913960400191505060405180910390fd5b600073ffffffffffffffffffffffffffffffffffffffff168273ffffffffffffffffffffffffffffffffffffffff1614156137f3576040517f08c379a00000000000000000000000000000000000000000000000000000000081526004018080602001828103825260248152602001806157b06024913960400191505060405180910390fd5b6137fe83838361430d565b61380960008261351f565b61385a81600160008673ffffffffffffffffffffffffffffffffffffffff1673ffffffffffffffffffffffffffffffffffffffff16815260200190815260200160002061431290919063ffffffff16565b506138ac81600160008573ffffffffffffffffffffffffffffffffffffffff1673ffffffffffffffffffffffffffffffffffffffff16815260200190815260200160002061432c90919063ffffffff16565b506138c3818360026143469092919063ffffffff16565b50808273ffffffffffffffffffffffffffffffffffffffff168473ffffffffffffffffffffffffffffffffffffffff167fddf252ad1be2c89b69c2b068fc378daa952ba7f163c4a11628f55a4df523b3ef60405160405180910390a4505050565b6060600082141561396c576040518060400160405280600181526020017f30000000000000000000000000000000000000000000000000000000000000008152509050613a66565b600082905060005b60008214613996578080600101915050600a828161398e57fe5b049150613974565b60008167ffffffffffffffff811180156139af57600080fd5b506040519080825280601f01601f1916602001820160405280156139e25781602001600182028036833780820191505090505b50905060006001830390508593505b60008414613a5e57600a8481613a0357fe5b0660300160f81b82828060019003935081518110613a1d57fe5b60200101907effffffffffffffffffffffffffffffffffffffffffffffffffffffffffffff1916908160001a905350600a8481613a5657fe5b0493506139f1565b819450505050505b919050565b60606000849050600084905060008490506000815183518551010167ffffffffffffffff81118015613a9c57600080fd5b506040519080825280601f01601f191660200182016040528015613acf5781602001600182028036833780820191505090505b50905060008190506000805b8651811015613b4957868181518110613af057fe5b602001015160f81c60f81b838380600101945081518110613b0d57fe5b60200101907effffffffffffffffffffffffffffffffffffffffffffffffffffffffffffff1916908160001a9053508080600101915050613adb565b5060005b8551811015613bbb57858181518110613b6257fe5b602001015160f81c60f81b838380600101945081518110613b7f57fe5b60200101907effffffffffffffffffffffffffffffffffffffffffffffffffffffffffffff1916908160001a9053508080600101915050613b4d565b5060005b8451811015613c2d57848181518110613bd457fe5b602001015160f81c60f81b838380600101945081518110613bf157fe5b60200101907effffffffffffffffffffffffffffffffffffffffffffffffffffffffffffff1916908160001a9053508080600101915050613bbf565b508296505050505050509392505050565b606060008260601b90506000602a67ffffffffffffffff81118015613c6257600080fd5b506040519080825280601f01601f191660200182016040528015613c955781602001600182028036833780820191505090505b5090507f300000000000000000000000000000000000000000000000000000000000000081600081518110613cc657fe5b60200101907effffffffffffffffffffffffffffffffffffffffffffffffffffffffffffff1916908160001a9053507f780000000000000000000000000000000000000000000000000000000000000081600181518110613d2357fe5b60200101907effffffffffffffffffffffffffffffffffffffffffffffffffffffffffffff1916908160001a90535060005b6014811015613e26576000838260148110613d6c57fe5b1a60f81b60f81c9050613d88600f60048360ff16901c1661437b565b83600184901b60020181518110613d9b57fe5b60200101907effffffffffffffffffffffffffffffffffffffffffffffffffffffffffffff1916908160001a905350613dd6600f821661437b565b83600184901b60030181518110613de957fe5b60200101907effffffffffffffffffffffffffffffffffffffffffffffffffffffffffffff1916908160001a905350508080600101915050613d55565b508092505050919050565b6000613e4083600001836143b6565b60001c905092915050565b600080600080613e5e8660000186614439565b915091508160001c8160001c9350935050509250929050565b600073ffffffffffffffffffffffffffffffffffffffff168273ffffffffffffffffffffffffffffffffffffffff161415613f1a576040517f08c379a00000000000000000000000000000000000000000000000000000000081526004018080602001828103825260208152602001807f4552433732313a206d696e7420746f20746865207a65726f206164647265737381525060200191505060405180910390fd5b613f23816134fa565b15613f96576040517f08c379a000000000000000000000000000000000000000000000000000000000815260040180806020018281038252601c8152602001807f4552433732313a20746f6b656e20616c7265616479206d696e7465640000000081525060200191505060405180910390fd5b613fa26000838361430d565b613ff381600160008573ffffffffffffffffffffffffffffffffffffffff1673ffffffffffffffffffffffffffffffffffffffff16815260200190815260200160002061432c90919063ffffffff16565b5061400a818360026143469092919063ffffffff16565b50808273ffffffffffffffffffffffffffffffffffffffff16600073ffffffffffffffffffffffffffffffffffffffff167fddf252ad1be2c89b69c2b068fc378daa952ba7f163c4a11628f55a4df523b3ef60405160405180910390a45050565b614074826134fa565b6140c9576040517f08c379a000000000000000000000000000000000000000000000000000000000815260040180806020018281038252602c8152602001806158ff602c913960400191505060405180910390fd5b806008600084815260200190815260200160002090805190602001906140f0929190614d0b565b505050565b6000614108846000018460001b846144d2565b60001c90509392505050565b6000614122826000016145c8565b9050919050565b6141348484846136e1565b614140848484846145d9565b614195576040517f08c379a000000000000000000000000000000000000000000000000000000000815260040180806020018281038252603281526020018061577e6032913960400191505060405180910390fd5b50505050565b606060008214156141e3576040518060400160405280600181526020017f300000000000000000000000000000000000000000000000000000000000000081525090506142dd565b600082905060005b6000821461420d578080600101915050600a828161420557fe5b0491506141eb565b60008167ffffffffffffffff8111801561422657600080fd5b506040519080825280601f01601f1916602001820160405280156142595781602001600182028036833780820191505090505b50905060006001830390508593505b600084146142d557600a848161427a57fe5b0660300160f81b8282806001900393508151811061429457fe5b60200101907effffffffffffffffffffffffffffffffffffffffffffffffffffffffffffff1916908160001a905350600a84816142cd57fe5b049350614268565b819450505050505b919050565b60006142f4836000018360001b6147f2565b905092915050565b600081600001805490509050919050565b505050565b6000614324836000018360001b614815565b905092915050565b600061433e836000018360001b6148fd565b905092915050565b6000614372846000018460001b8473ffffffffffffffffffffffffffffffffffffffff1660001b61496d565b90509392505050565b6000808260ff1610158015614394575060098260ff1611155b156143a7576030820160f81b90506143b1565b6057820160f81b90505b919050565b600081836000018054905011614417576040517f08c379a000000000000000000000000000000000000000000000000000000000815260040180806020018281038252602281526020018061575c6022913960400191505060405180910390fd5b82600001828154811061442657fe5b9060005260206000200154905092915050565b6000808284600001805490501161449b576040517f08c379a00000000000000000000000000000000000000000000000000000000081526004018080602001828103825260228152602001806158b16022913960400191505060405180910390fd5b60008460000184815481106144ac57fe5b906000526020600020906002020190508060000154816001015492509250509250929050565b60008084600101600085815260200190815260200160002054905060008114158390614599576040517f08c379a00000000000000000000000000000000000000000000000000000000081526004018080602001828103825283818151815260200191508051906020019080838360005b8381101561455e578082015181840152602081019050614543565b50505050905090810190601f16801561458b5780820380516001836020036101000a031916815260200191505b509250505060405180910390fd5b508460000160018203815481106145ac57fe5b9060005260206000209060020201600101549150509392505050565b600081600001805490509050919050565b60006145fa8473ffffffffffffffffffffffffffffffffffffffff16614a49565b61460757600190506147ea565b600061477163150b7a0260e01b61461c613517565b888787604051602401808573ffffffffffffffffffffffffffffffffffffffff1681526020018473ffffffffffffffffffffffffffffffffffffffff16815260200183815260200180602001828103825283818151815260200191508051906020019080838360005b838110156146a0578082015181840152602081019050614685565b50505050905090810190601f1680156146cd5780820380516001836020036101000a031916815260200191505b5095505050505050604051602081830303815290604052907bffffffffffffffffffffffffffffffffffffffffffffffffffffffff19166020820180517bffffffffffffffffffffffffffffffffffffffffffffffffffffffff838183161783525050505060405180606001604052806032815260200161577e603291398773ffffffffffffffffffffffffffffffffffffffff16614a5c9092919063ffffffff16565b9050600081806020019051602081101561478a57600080fd5b8101908080519060200190929190505050905063150b7a0260e01b7bffffffffffffffffffffffffffffffffffffffffffffffffffffffff1916817bffffffffffffffffffffffffffffffffffffffffffffffffffffffff191614925050505b949350505050565b600080836001016000848152602001908152602001600020541415905092915050565b600080836001016000848152602001908152602001600020549050600081146148f1576000600182039050600060018660000180549050039050600086600001828154811061486057fe5b906000526020600020015490508087600001848154811061487d57fe5b90600052602060002001819055506001830187600101600083815260200190815260200160002081905550866000018054806148b557fe5b600190038181906000526020600020016000905590558660010160008781526020019081526020016000206000905560019450505050506148f7565b60009150505b92915050565b60006149098383614a74565b614962578260000182908060018154018082558091505060019003906000526020600020016000909190919091505582600001805490508360010160008481526020019081526020016000208190555060019050614967565b600090505b92915050565b6000808460010160008581526020019081526020016000205490506000811415614a1457846000016040518060400160405280868152602001858152509080600181540180825580915050600190039060005260206000209060020201600090919091909150600082015181600001556020820151816001015550508460000180549050856001016000868152602001908152602001600020819055506001915050614a42565b82856000016001830381548110614a2757fe5b90600052602060002090600202016001018190555060009150505b9392505050565b600080823b905060008111915050919050565b6060614a6b8484600085614a97565b90509392505050565b600080836001016000848152602001908152602001600020541415905092915050565b606082471015614af2576040517f08c379a00000000000000000000000000000000000000000000000000000000081526004018080602001828103825260268152602001806157d46026913960400191505060405180910390fd5b614afb85614a49565b614b6d576040517f08c379a000000000000000000000000000000000000000000000000000000000815260040180806020018281038252601d8152602001807f416464726573733a2063616c6c20746f206e6f6e2d636f6e747261637400000081525060200191505060405180910390fd5b6000808673ffffffffffffffffffffffffffffffffffffffff1685876040518082805190602001908083835b60208310614bbc5780518252602082019150602081019050602083039250614b99565b6001836020036101000a03801982511681845116808217855250505050505090500191505060006040518083038185875af1925050503d8060008114614c1e576040519150601f19603f3d011682016040523d82523d6000602084013e614c23565b606091505b5091509150614c33828286614c3f565b92505050949350505050565b60608315614c4f57829050614d04565b600083511115614c625782518084602001fd5b816040517f08c379a00000000000000000000000000000000000000000000000000000000081526004018080602001828103825283818151815260200191508051906020019080838360005b83811015614cc9578082015181840152602081019050614cae565b50505050905090810190601f168015614cf65780820380516001836020036101000a031916815260200191505b509250505060405180910390fd5b9392505050565b828054600181600116156101000203166002900490600052602060002090601f016020900481019282614d415760008555614d88565b82601f10614d5a57805160ff1916838001178555614d88565b82800160010185558215614d88579182015b82811115614d87578251825591602001919060010190614d6c565b5b509050614d959190614d99565b5090565b5b80821115614db2576000816000905550600101614d9a565b5090565b6000614dc9614dc48461559d565b61556c565b905082815260208101848484011115614de157600080fd5b614dec8482856156aa565b509392505050565b6000614e07614e02846155cd565b61556c565b905082815260208101848484011115614e1f57600080fd5b614e2a8482856156aa565b509392505050565b600081359050614e41816156ff565b92915050565b60008083601f840112614e5957600080fd5b8235905067ffffffffffffffff811115614e7257600080fd5b602083019150836020820283011115614e8a57600080fd5b9250929050565b600081359050614ea081615716565b92915050565b600081359050614eb58161572d565b92915050565b600082601f830112614ecc57600080fd5b8135614edc848260208601614db6565b91505092915050565b600082601f830112614ef657600080fd5b8135614f06848260208601614df4565b91505092915050565b600081359050614f1e81615744565b92915050565b600060208284031215614f3657600080fd5b6000614f4484828501614e32565b91505092915050565b60008060408385031215614f6057600080fd5b6000614f6e85828601614e32565b9250506020614f7f85828601614e32565b9150509250929050565b600080600060608486031215614f9e57600080fd5b6000614fac86828701614e32565b9350506020614fbd86828701614e32565b9250506040614fce86828701614f0f565b9150509250925092565b60008060008060808587031215614fee57600080fd5b6000614ffc87828801614e32565b945050602061500d87828801614e32565b935050604061501e87828801614f0f565b925050606085013567ffffffffffffffff81111561503b57600080fd5b61504787828801614ebb565b91505092959194509250565b6000806040838503121561506657600080fd5b600061507485828601614e32565b925050602061508585828601614e91565b9150509250929050565b600080604083850312156150a257600080fd5b60006150b085828601614e32565b92505060206150c185828601614f0f565b9150509250929050565b6000602082840312156150dd57600080fd5b60006150eb84828501614ea6565b91505092915050565b60006020828403121561510657600080fd5b600082013567ffffffffffffffff81111561512057600080fd5b61512c84828501614ee5565b91505092915050565b6000806040838503121561514857600080fd5b600083013567ffffffffffffffff81111561516257600080fd5b61516e85828601614ee5565b925050602083013567ffffffffffffffff81111561518b57600080fd5b61519785828601614ee5565b9150509250929050565b60008060008060008060a087890312156151ba57600080fd5b600087013567ffffffffffffffff8111156151d457600080fd5b6151e089828a01614ee5565b965050602087013567ffffffffffffffff8111156151fd57600080fd5b61520989828a01614ee5565b955050604061521a89828a01614f0f565b945050606087013567ffffffffffffffff81111561523757600080fd5b61524389828a01614e47565b9350935050608087013567ffffffffffffffff81111561526257600080fd5b61526e89828a01614ee5565b9150509295509295509295565b60006020828403121561528d57600080fd5b600061529b84828501614f0f565b91505092915050565b600080604083850312156152b757600080fd5b60006152c585828601614f0f565b92505060206152d685828601614f0f565b9150509250929050565b6152e981615636565b82525050565b6152f881615624565b82525050565b61530781615648565b82525050565b60006153198385615619565b93506153268385846156aa565b82840190509392505050565b600061533d826155fd565b6153478185615608565b93506153578185602086016156b9565b615360816156ee565b840191505092915050565b6000615376826155fd565b6153808185615619565b93506153908185602086016156b9565b80840191505092915050565b6153a5816156a0565b82525050565b60006153b882848661530d565b91508190509392505050565b60006153d0828461536b565b915081905092915050565b60006020820190506153f060008301846152ef565b92915050565b600060208201905061540b60008301846152fe565b92915050565b6000602082019050818103600083015261542b8184615332565b905092915050565b6000602082019050615448600083018461539c565b92915050565b600061016082019050615464600083018e61539c565b8181036020830152615476818d615332565b9050818103604083015261548a818c615332565b9050615499606083018b6152e0565b6154a6608083018a6152e0565b6154b360a08301896152e0565b81810360c08301526154c58188615332565b905081810360e08301526154d98187615332565b90506154e961010083018661539c565b6154f761012083018561539c565b6155056101408301846152fe565b9c9b505050505050505050505050565b6000808335600160200384360303811261552e57600080fd5b80840192508235915067ffffffffffffffff82111561554c57600080fd5b60208301925060018202360383131561556457600080fd5b509250929050565b6000604051905081810181811067ffffffffffffffff82111715615593576155926156ec565b5b8060405250919050565b600067ffffffffffffffff8211156155b8576155b76156ec565b5b601f19601f8301169050602081019050919050565b600067ffffffffffffffff8211156155e8576155e76156ec565b5b601f19601f8301169050602081019050919050565b600081519050919050565b600082825260208201905092915050565b600081905092915050565b600061562f82615680565b9050919050565b600061564182615680565b9050919050565b60008115159050919050565b60007fffffffff0000000000000000000000000000000000000000000000000000000082169050919050565b600073ffffffffffffffffffffffffffffffffffffffff82169050919050565b6000819050919050565b82818337600083830152505050565b60005b838110156156d75780820151818401526020810190506156bc565b838111156156e6576000848401525b50505050565bfe5b6000601f19601f8301169050919050565b61570881615624565b811461571357600080fd5b50565b61571f81615648565b811461572a57600080fd5b50565b61573681615654565b811461574157600080fd5b50565b61574d816156a0565b811461575857600080fd5b5056fe456e756d657261626c655365743a20696e646578206f7574206f6620626f756e64734552433732313a207472616e7366657220746f206e6f6e20455243373231526563656976657220696d706c656d656e7465724552433732313a207472616e7366657220746f20746865207a65726f2061646472657373416464726573733a20696e73756666696369656e742062616c616e636520666f722063616c6c4552433732313a206f70657261746f7220717565727920666f72206e6f6e6578697374656e7420746f6b656e4552433732313a20617070726f76652063616c6c6572206973206e6f74206f776e6572206e6f7220617070726f76656420666f7220616c6c4552433732313a2062616c616e636520717565727920666f7220746865207a65726f20616464726573734552433732313a206f776e657220717565727920666f72206e6f6e6578697374656e7420746f6b656e456e756d657261626c654d61703a20696e646578206f7574206f6620626f756e64734552433732313a20617070726f76656420717565727920666f72206e6f6e6578697374656e7420746f6b656e4552433732314d657461646174613a2055524920736574206f66206e6f6e6578697374656e7420746f6b656e4552433732313a207472616e73666572206f6620746f6b656e2074686174206973206e6f74206f776e4552433732314d657461646174613a2055524920717565727920666f72206e6f6e6578697374656e7420746f6b656e4552433732313a20617070726f76616c20746f2063757272656e74206f776e65724552433732313a207472616e736665722063616c6c6572206973206e6f74206f776e6572206e6f7220617070726f766564a26469706673582212201831bee3e5ae91b43838886153c9246d68c85b9720bf833b5d2f8a2daec8ce7d64736f6c63430007060033",
  "immutableReferences": {},
  "source": "// SPDX-License-Identifier: MIT\r\npragma solidity >=0.4.21 <0.8.0;\r\npragma abicoder v2;\r\n\r\n// ERC721\r\nimport \"./ERC721.sol\";\r\n\r\n//OwnedEverythings  ERC721 \r\ncontract OwnedEverythings is ERC721 {\r\n\r\n    //\r\n    string public collectionName;\r\n    //\r\n    string public collectionNameSymbol;\r\n    //\r\n    uint256 public ownedeverythingCounter;\r\n\r\n    string constant sepStr = \",\";\r\n\r\n    // \r\n    struct ownedeverything {\r\n        uint256 tokenId;\r\n        string tokenName;\r\n        string tokenURI;\r\n        address payable mintedBy;\r\n        address payable currentOwner;\r\n        address payable previousOwner;\r\n        string _timestamp;\r\n        string _traceAddresses;\r\n        uint256 price;\r\n        uint256 numberOfTransfers;\r\n        bool forSale;\r\n    }\r\n\r\n    // id=>\r\n    mapping(uint256 => ownedeverything) public allOwnedEverythings;\r\n    // \r\n    mapping(string => bool) public colorExists;\r\n    // url\r\n    mapping(string => bool) public tokenURIExists;\r\n\r\n    // \r\n    constructor() ERC721(\"OwnedEverythings\", \"OW_EThing\") {\r\n        collectionName = name();\r\n        collectionNameSymbol = symbol();\r\n    }\r\n\r\n    // \r\n    function isEqual(string memory a, string memory b) public pure returns (bool) {\r\n        bytes memory aa = bytes(a);\r\n        bytes memory bb = bytes(b);\r\n        // \r\n        if (aa.length != bb.length) return false;\r\n        // \r\n        for(uint i = 0; i < aa.length; i ++) {\r\n            if(aa[i] != bb[i]) return false;\r\n        }\r\n        return true;\r\n    }\r\n\r\n    // \r\n    function strConcat(string memory _a, string memory _b, string memory _c) internal pure returns (string memory){\r\n        bytes memory _ba = bytes(_a);\r\n        bytes memory _bb = bytes(_b);\r\n        bytes memory _bc = bytes(_c);\r\n        string memory ret = new string(_ba.length + _bb.length +_bc.length);\r\n        bytes memory bret = bytes(ret);\r\n        uint k = 0;\r\n        for (uint i = 0; i < _ba.length; i++) bret[k++] = _ba[i];\r\n        for (uint i = 0; i < _bb.length; i++) bret[k++] = _bb[i];\r\n        for (uint i = 0; i < _bc.length; i++) bret[k++] = _bc[i];\r\n        return string(ret);\r\n    }\r\n\r\n    //num represents a number from 0-15 and returns ascii representing [0-9A-Fa-f]\r\n    function encode(uint8 num) private pure returns(byte){\r\n        //0-9 -> 0-9\r\n        if(num >= 0 && num <= 9){\r\n            return byte(num + 48);\r\n        }\r\n        //10-15 -> a-f\r\n        return byte(num + 87);\r\n    }\r\n\r\n\r\n    function addressToString(address addr) internal pure returns(string memory){\r\n        //Convert addr to bytes\r\n        bytes20 value = bytes20(uint160(addr));\r\n        bytes memory strBytes = new bytes(42);\r\n        //Encode hex prefix\r\n        strBytes[0] = '0';\r\n        strBytes[1] = 'x';\r\n        //Encode bytes usig hex encoding\r\n        for(uint i=0;i<20;i++){\r\n            uint8 byteValue = uint8(value[i]);\r\n            strBytes[2 + (i<<1)] = encode((byteValue >> 4) & 0x0f);\r\n            strBytes[3 + (i<<1)] = encode(byteValue & 0x0f);\r\n        }\r\n        return string(strBytes);\r\n    }\r\n\r\n\r\n    function uintToString(uint256 value) internal pure returns (string memory) {\r\n        // Inspired by OraclizeAPI's implementation - MIT licence\r\n        // https://github.com/oraclize/ethereum-api/blob/b42146b063c7d6ee1358846c198246239e9360e8/oraclizeAPI_0.4.25.sol\r\n\r\n        if (value == 0) {\r\n            return \"0\";\r\n        }\r\n        uint256 temp = value;\r\n        uint256 digits;\r\n        while (temp != 0) {\r\n            digits++;\r\n            temp /= 10;\r\n        }\r\n        bytes memory buffer = new bytes(digits);\r\n        uint256 index = digits - 1;\r\n        temp = value;\r\n        while (temp != 0) {\r\n            buffer[index--] = byte(uint8(48 + temp % 10));\r\n            temp /= 10;\r\n        }\r\n        return string(buffer);\r\n    }\r\n\r\n\r\n    // \r\n    function mintownedeverything(string memory _name, string memory _tokenURI, uint256 _price, string[] calldata _colors,string memory _tokenType) external {\r\n        // \r\n        require(msg.sender != address(0));\r\n        // \r\n        ownedeverythingCounter ++;\r\n        //  id => \r\n        require(!_exists(ownedeverythingCounter));\r\n\r\n        if (isEqual(_tokenType,'color')){\r\n            // \r\n            for (uint i = 0; i < _colors.length; i++) {\r\n                require(!colorExists[_colors[i]]);\r\n            }\r\n        }\r\n\r\n        //  URI \r\n        require(!tokenURIExists[_tokenURI]);\r\n\r\n        // \r\n        _mint(msg.sender, ownedeverythingCounter);\r\n        //  URI ID  URI \r\n        _setTokenURI(ownedeverythingCounter, _tokenURI);\r\n\r\n        if (isEqual(_tokenType, 'color')) {\r\n            // \r\n            for (uint i = 0; i < _colors.length; i++) {\r\n                colorExists[_colors[i]] = true;\r\n            }\r\n        }\r\n        //  URI \r\n        tokenURIExists[_tokenURI] = true;\r\n\r\n        // \r\n        allOwnedEverythings[ownedeverythingCounter] = ownedeverything(\r\n            ownedeverythingCounter,\r\n            _name,\r\n            _tokenURI,\r\n            msg.sender,\r\n            msg.sender,\r\n            address(0),\r\n            uintToString(block.timestamp),\r\n            addressToString(msg.sender),\r\n            _price,\r\n            0,\r\n            true);\r\n    }\r\n\r\n    // \r\n    function getTokenOwner(uint256 _tokenId) public view returns (address) {\r\n        address _tokenOwner = ownerOf(_tokenId);\r\n        return _tokenOwner;\r\n    }\r\n\r\n    // \r\n    function getTokenMetaData(uint _tokenId) public view returns (string memory) {\r\n        string memory tokenMetaData = tokenURI(_tokenId);\r\n        return tokenMetaData;\r\n    }\r\n\r\n    // \r\n    function getNumberOfTokensMinted() public view returns (uint256) {\r\n        uint256 totalNumberOfTokensMinted = totalSupply();\r\n        return totalNumberOfTokensMinted;\r\n    }\r\n\r\n    // \r\n    function getTotalNumberOfTokensOwnedByAnAddress(address _owner) public view returns (uint256) {\r\n        uint256 totalNumberOfTokensOwned = balanceOf(_owner);\r\n        return totalNumberOfTokensOwned;\r\n    }\r\n\r\n    // \r\n    function getTokenExists(uint256 _tokenId) public view returns (bool) {\r\n        bool tokenExists = _exists(_tokenId);\r\n        return tokenExists;\r\n    }\r\n\r\n    //  id\r\n    function buyToken(uint256 _tokenId) public payable {\r\n        // \r\n        require(msg.sender != address(0));\r\n        // id\r\n        require(_exists(_tokenId));\r\n        // \r\n        address tokenOwner = ownerOf(_tokenId);\r\n        // \r\n        require(tokenOwner != address(0));\r\n        // \r\n        require(tokenOwner != msg.sender);\r\n        //  (struct => ownedeverything) \r\n        ownedeverything memory ownedeverything = allOwnedEverythings[_tokenId];\r\n        // \r\n        require(msg.value >= ownedeverything.price);\r\n        // \r\n        require(ownedeverything.forSale);\r\n        // \r\n        _transfer(tokenOwner, msg.sender, _tokenId);\r\n        // \r\n        address payable sendTo = ownedeverything.currentOwner;\r\n        // \r\n        sendTo.transfer(msg.value);\r\n        // \r\n        ownedeverything.previousOwner = ownedeverything.currentOwner;\r\n        // \r\n        ownedeverything.currentOwner = msg.sender;\r\n        // \r\n        ownedeverything._timestamp=strConcat(allOwnedEverythings[_tokenId]._timestamp,',',uintToString(block.timestamp));\r\n        // \r\n        ownedeverything._traceAddresses=strConcat(allOwnedEverythings[_tokenId]._traceAddresses,',',addressToString(msg.sender));\r\n        // \r\n        ownedeverything.numberOfTransfers += 1;\r\n        // \r\n        allOwnedEverythings[_tokenId] = ownedeverything;\r\n    }\r\n\r\n    //    \r\n    function changeTokenPrice(uint256 _tokenId, uint256 _newPrice) public {\r\n        // require caller of the function is not an empty address\r\n        require(msg.sender != address(0));\r\n        // require that token should exist\r\n        require(_exists(_tokenId));\r\n        // get the token's owner\r\n        address tokenOwner = ownerOf(_tokenId);\r\n        // check that token's owner should be equal to the caller of the function\r\n        require(tokenOwner == msg.sender);\r\n        // get that token from all crypto boys mapping and create a memory of it defined as (struct => ownedeverything)\r\n        ownedeverything memory ownedeverything = allOwnedEverythings[_tokenId];\r\n        // update token's price with new price\r\n        ownedeverything.price = _newPrice;\r\n        // set and update that token in the mapping\r\n        allOwnedEverythings[_tokenId] = ownedeverything;\r\n    }\r\n\r\n    // \r\n    function toggleForSale(uint256 _tokenId) public {\r\n        // require caller of the function is not an empty address\r\n        require(msg.sender != address(0));\r\n        // require that token should exist\r\n        require(_exists(_tokenId));\r\n        // get the token's owner\r\n        address tokenOwner = ownerOf(_tokenId);\r\n        // check that token's owner should be equal to the caller of the function\r\n        require(tokenOwner == msg.sender);\r\n        // get that token from all crypto boys mapping and create a memory of it defined as (struct => ownedeverything)\r\n        ownedeverything memory ownedeverything = allOwnedEverythings[_tokenId];\r\n        // if token's forSale is false make it true and vice versa\r\n        if (ownedeverything.forSale) {\r\n            ownedeverything.forSale = false;\r\n        } else {\r\n            ownedeverything.forSale = true;\r\n        }\r\n        // set and update that token in the mapping\r\n        allOwnedEverythings[_tokenId] = ownedeverything;\r\n    }\r\n}",
  "sourcePath": "C:\\Users\\THINK\\Desktop\\nft-marketplace\\user-client_final\\src\\contracts\\OwnedEverythings.sol",
  "compiler": {
    "name": "solc",
    "version": "0.7.6+commit.7338295f.Emscripten.clang"
  },
  "schemaVersion": "3.4.5",
  "updatedAt": "2022-05-02T06:51:09.159Z",
  "networkType": "ethereum",
  "devdoc": {
    "kind": "dev",
    "methods": {
      "approve(address,uint256)": {
        "details": "See {IERC721-approve}."
      },
      "balanceOf(address)": {
        "details": "See {IERC721-balanceOf}."
      },
      "baseURI()": {
        "details": "Returns the base URI set via {_setBaseURI}. This will be automatically added as a prefix in {tokenURI} to each token's URI, or to the token ID if no specific URI is set for that token ID."
      },
      "getApproved(uint256)": {
        "details": "See {IERC721-getApproved}."
      },
      "isApprovedForAll(address,address)": {
        "details": "See {IERC721-isApprovedForAll}."
      },
      "name()": {
        "details": "See {IERC721Metadata-name}."
      },
      "ownerOf(uint256)": {
        "details": "See {IERC721-ownerOf}."
      },
      "safeTransferFrom(address,address,uint256)": {
        "details": "See {IERC721-safeTransferFrom}."
      },
      "safeTransferFrom(address,address,uint256,bytes)": {
        "details": "See {IERC721-safeTransferFrom}."
      },
      "setApprovalForAll(address,bool)": {
        "details": "See {IERC721-setApprovalForAll}."
      },
      "supportsInterface(bytes4)": {
        "details": "See {IERC165-supportsInterface}. Time complexity O(1), guaranteed to always use less than 30 000 gas."
      },
      "symbol()": {
        "details": "See {IERC721Metadata-symbol}."
      },
      "tokenByIndex(uint256)": {
        "details": "See {IERC721Enumerable-tokenByIndex}."
      },
      "tokenOfOwnerByIndex(address,uint256)": {
        "details": "See {IERC721Enumerable-tokenOfOwnerByIndex}."
      },
      "tokenURI(uint256)": {
        "details": "See {IERC721Metadata-tokenURI}."
      },
      "totalSupply()": {
        "details": "See {IERC721Enumerable-totalSupply}."
      },
      "transferFrom(address,address,uint256)": {
        "details": "See {IERC721-transferFrom}."
      }
    },
    "version": 1
  },
  "userdoc": {
    "kind": "user",
    "methods": {},
    "version": 1
  }
}