{
  "contractName": "OwnedEverythings",
  "abi": [
    {
      "inputs": [],
      "stateMutability": "nonpayable",
      "type": "constructor"
    },
    {
      "anonymous": false,
      "inputs": [
        {
          "indexed": true,
          "internalType": "address",
          "name": "owner",
          "type": "address"
        },
        {
          "indexed": true,
          "internalType": "address",
          "name": "approved",
          "type": "address"
        },
        {
          "indexed": true,
          "internalType": "uint256",
          "name": "tokenId",
          "type": "uint256"
        }
      ],
      "name": "Approval",
      "type": "event"
    },
    {
      "anonymous": false,
      "inputs": [
        {
          "indexed": true,
          "internalType": "address",
          "name": "owner",
          "type": "address"
        },
        {
          "indexed": true,
          "internalType": "address",
          "name": "operator",
          "type": "address"
        },
        {
          "indexed": false,
          "internalType": "bool",
          "name": "approved",
          "type": "bool"
        }
      ],
      "name": "ApprovalForAll",
      "type": "event"
    },
    {
      "anonymous": false,
      "inputs": [
        {
          "indexed": true,
          "internalType": "address",
          "name": "from",
          "type": "address"
        },
        {
          "indexed": true,
          "internalType": "address",
          "name": "to",
          "type": "address"
        },
        {
          "indexed": true,
          "internalType": "uint256",
          "name": "tokenId",
          "type": "uint256"
        }
      ],
      "name": "Transfer",
      "type": "event"
    },
    {
      "inputs": [
        {
          "internalType": "uint256",
          "name": "",
          "type": "uint256"
        }
      ],
      "name": "allOwnedEverythings",
      "outputs": [
        {
          "internalType": "uint256",
          "name": "tokenId",
          "type": "uint256"
        },
        {
          "internalType": "string",
          "name": "tokenName",
          "type": "string"
        },
        {
          "internalType": "string",
          "name": "tokenURI",
          "type": "string"
        },
        {
          "internalType": "address payable",
          "name": "mintedBy",
          "type": "address"
        },
        {
          "internalType": "address payable",
          "name": "currentOwner",
          "type": "address"
        },
        {
          "internalType": "address payable",
          "name": "previousOwner",
          "type": "address"
        },
        {
          "internalType": "uint256",
          "name": "currentOwnerId",
          "type": "uint256"
        },
        {
          "internalType": "string",
          "name": "_timestamp",
          "type": "string"
        },
        {
          "internalType": "string",
          "name": "_traceAddresses",
          "type": "string"
        },
        {
          "internalType": "uint256",
          "name": "price",
          "type": "uint256"
        },
        {
          "internalType": "uint256",
          "name": "numberOfTransfers",
          "type": "uint256"
        },
        {
          "internalType": "bool",
          "name": "forSale",
          "type": "bool"
        }
      ],
      "stateMutability": "view",
      "type": "function",
      "constant": true
    },
    {
      "inputs": [
        {
          "internalType": "address",
          "name": "to",
          "type": "address"
        },
        {
          "internalType": "uint256",
          "name": "tokenId",
          "type": "uint256"
        }
      ],
      "name": "approve",
      "outputs": [],
      "stateMutability": "nonpayable",
      "type": "function"
    },
    {
      "inputs": [
        {
          "internalType": "address",
          "name": "owner",
          "type": "address"
        }
      ],
      "name": "balanceOf",
      "outputs": [
        {
          "internalType": "uint256",
          "name": "",
          "type": "uint256"
        }
      ],
      "stateMutability": "view",
      "type": "function",
      "constant": true
    },
    {
      "inputs": [],
      "name": "baseURI",
      "outputs": [
        {
          "internalType": "string",
          "name": "",
          "type": "string"
        }
      ],
      "stateMutability": "view",
      "type": "function",
      "constant": true
    },
    {
      "inputs": [],
      "name": "collectionName",
      "outputs": [
        {
          "internalType": "string",
          "name": "",
          "type": "string"
        }
      ],
      "stateMutability": "view",
      "type": "function",
      "constant": true
    },
    {
      "inputs": [],
      "name": "collectionNameSymbol",
      "outputs": [
        {
          "internalType": "string",
          "name": "",
          "type": "string"
        }
      ],
      "stateMutability": "view",
      "type": "function",
      "constant": true
    },
    {
      "inputs": [
        {
          "internalType": "string",
          "name": "",
          "type": "string"
        }
      ],
      "name": "colorExists",
      "outputs": [
        {
          "internalType": "bool",
          "name": "",
          "type": "bool"
        }
      ],
      "stateMutability": "view",
      "type": "function",
      "constant": true
    },
    {
      "inputs": [
        {
          "internalType": "uint256",
          "name": "tokenId",
          "type": "uint256"
        }
      ],
      "name": "getApproved",
      "outputs": [
        {
          "internalType": "address",
          "name": "",
          "type": "address"
        }
      ],
      "stateMutability": "view",
      "type": "function",
      "constant": true
    },
    {
      "inputs": [
        {
          "internalType": "address",
          "name": "owner",
          "type": "address"
        },
        {
          "internalType": "address",
          "name": "operator",
          "type": "address"
        }
      ],
      "name": "isApprovedForAll",
      "outputs": [
        {
          "internalType": "bool",
          "name": "",
          "type": "bool"
        }
      ],
      "stateMutability": "view",
      "type": "function",
      "constant": true
    },
    {
      "inputs": [],
      "name": "name",
      "outputs": [
        {
          "internalType": "string",
          "name": "",
          "type": "string"
        }
      ],
      "stateMutability": "view",
      "type": "function",
      "constant": true
    },
    {
      "inputs": [],
      "name": "ownedeverythingCounter",
      "outputs": [
        {
          "internalType": "uint256",
          "name": "",
          "type": "uint256"
        }
      ],
      "stateMutability": "view",
      "type": "function",
      "constant": true
    },
    {
      "inputs": [
        {
          "internalType": "uint256",
          "name": "tokenId",
          "type": "uint256"
        }
      ],
      "name": "ownerOf",
      "outputs": [
        {
          "internalType": "address",
          "name": "",
          "type": "address"
        }
      ],
      "stateMutability": "view",
      "type": "function",
      "constant": true
    },
    {
      "inputs": [
        {
          "internalType": "address",
          "name": "from",
          "type": "address"
        },
        {
          "internalType": "address",
          "name": "to",
          "type": "address"
        },
        {
          "internalType": "uint256",
          "name": "tokenId",
          "type": "uint256"
        }
      ],
      "name": "safeTransferFrom",
      "outputs": [],
      "stateMutability": "nonpayable",
      "type": "function"
    },
    {
      "inputs": [
        {
          "internalType": "address",
          "name": "from",
          "type": "address"
        },
        {
          "internalType": "address",
          "name": "to",
          "type": "address"
        },
        {
          "internalType": "uint256",
          "name": "tokenId",
          "type": "uint256"
        },
        {
          "internalType": "bytes",
          "name": "_data",
          "type": "bytes"
        }
      ],
      "name": "safeTransferFrom",
      "outputs": [],
      "stateMutability": "nonpayable",
      "type": "function"
    },
    {
      "inputs": [
        {
          "internalType": "address",
          "name": "operator",
          "type": "address"
        },
        {
          "internalType": "bool",
          "name": "approved",
          "type": "bool"
        }
      ],
      "name": "setApprovalForAll",
      "outputs": [],
      "stateMutability": "nonpayable",
      "type": "function"
    },
    {
      "inputs": [
        {
          "internalType": "bytes4",
          "name": "interfaceId",
          "type": "bytes4"
        }
      ],
      "name": "supportsInterface",
      "outputs": [
        {
          "internalType": "bool",
          "name": "",
          "type": "bool"
        }
      ],
      "stateMutability": "view",
      "type": "function",
      "constant": true
    },
    {
      "inputs": [],
      "name": "symbol",
      "outputs": [
        {
          "internalType": "string",
          "name": "",
          "type": "string"
        }
      ],
      "stateMutability": "view",
      "type": "function",
      "constant": true
    },
    {
      "inputs": [
        {
          "internalType": "uint256",
          "name": "index",
          "type": "uint256"
        }
      ],
      "name": "tokenByIndex",
      "outputs": [
        {
          "internalType": "uint256",
          "name": "",
          "type": "uint256"
        }
      ],
      "stateMutability": "view",
      "type": "function",
      "constant": true
    },
    {
      "inputs": [
        {
          "internalType": "address",
          "name": "owner",
          "type": "address"
        },
        {
          "internalType": "uint256",
          "name": "index",
          "type": "uint256"
        }
      ],
      "name": "tokenOfOwnerByIndex",
      "outputs": [
        {
          "internalType": "uint256",
          "name": "",
          "type": "uint256"
        }
      ],
      "stateMutability": "view",
      "type": "function",
      "constant": true
    },
    {
      "inputs": [
        {
          "internalType": "uint256",
          "name": "tokenId",
          "type": "uint256"
        }
      ],
      "name": "tokenURI",
      "outputs": [
        {
          "internalType": "string",
          "name": "",
          "type": "string"
        }
      ],
      "stateMutability": "view",
      "type": "function",
      "constant": true
    },
    {
      "inputs": [
        {
          "internalType": "string",
          "name": "",
          "type": "string"
        }
      ],
      "name": "tokenURIExists",
      "outputs": [
        {
          "internalType": "bool",
          "name": "",
          "type": "bool"
        }
      ],
      "stateMutability": "view",
      "type": "function",
      "constant": true
    },
    {
      "inputs": [],
      "name": "totalSupply",
      "outputs": [
        {
          "internalType": "uint256",
          "name": "",
          "type": "uint256"
        }
      ],
      "stateMutability": "view",
      "type": "function",
      "constant": true
    },
    {
      "inputs": [
        {
          "internalType": "address",
          "name": "from",
          "type": "address"
        },
        {
          "internalType": "address",
          "name": "to",
          "type": "address"
        },
        {
          "internalType": "uint256",
          "name": "tokenId",
          "type": "uint256"
        }
      ],
      "name": "transferFrom",
      "outputs": [],
      "stateMutability": "nonpayable",
      "type": "function"
    },
    {
      "inputs": [
        {
          "internalType": "string",
          "name": "a",
          "type": "string"
        },
        {
          "internalType": "string",
          "name": "b",
          "type": "string"
        }
      ],
      "name": "isEqual",
      "outputs": [
        {
          "internalType": "bool",
          "name": "",
          "type": "bool"
        }
      ],
      "stateMutability": "pure",
      "type": "function",
      "constant": true
    },
    {
      "inputs": [
        {
          "internalType": "string",
          "name": "_name",
          "type": "string"
        },
        {
          "internalType": "string",
          "name": "_tokenURI",
          "type": "string"
        },
        {
          "internalType": "uint256",
          "name": "_price",
          "type": "uint256"
        },
        {
          "internalType": "string[]",
          "name": "_colors",
          "type": "string[]"
        },
        {
          "internalType": "string",
          "name": "_tokenType",
          "type": "string"
        },
        {
          "internalType": "uint256",
          "name": "_userId",
          "type": "uint256"
        }
      ],
      "name": "mintownedeverything",
      "outputs": [],
      "stateMutability": "nonpayable",
      "type": "function"
    },
    {
      "inputs": [
        {
          "internalType": "uint256",
          "name": "_tokenId",
          "type": "uint256"
        }
      ],
      "name": "getTokenOwner",
      "outputs": [
        {
          "internalType": "address",
          "name": "",
          "type": "address"
        }
      ],
      "stateMutability": "view",
      "type": "function",
      "constant": true
    },
    {
      "inputs": [
        {
          "internalType": "uint256",
          "name": "_tokenId",
          "type": "uint256"
        }
      ],
      "name": "getTokenMetaData",
      "outputs": [
        {
          "internalType": "string",
          "name": "",
          "type": "string"
        }
      ],
      "stateMutability": "view",
      "type": "function",
      "constant": true
    },
    {
      "inputs": [],
      "name": "getNumberOfTokensMinted",
      "outputs": [
        {
          "internalType": "uint256",
          "name": "",
          "type": "uint256"
        }
      ],
      "stateMutability": "view",
      "type": "function",
      "constant": true
    },
    {
      "inputs": [
        {
          "internalType": "address",
          "name": "_owner",
          "type": "address"
        }
      ],
      "name": "getTotalNumberOfTokensOwnedByAnAddress",
      "outputs": [
        {
          "internalType": "uint256",
          "name": "",
          "type": "uint256"
        }
      ],
      "stateMutability": "view",
      "type": "function",
      "constant": true
    },
    {
      "inputs": [
        {
          "internalType": "uint256",
          "name": "_tokenId",
          "type": "uint256"
        }
      ],
      "name": "getTokenExists",
      "outputs": [
        {
          "internalType": "bool",
          "name": "",
          "type": "bool"
        }
      ],
      "stateMutability": "view",
      "type": "function",
      "constant": true
    },
    {
      "inputs": [
        {
          "internalType": "uint256",
          "name": "_tokenId",
          "type": "uint256"
        },
        {
          "internalType": "uint256",
          "name": "_userId",
          "type": "uint256"
        }
      ],
      "name": "buyToken",
      "outputs": [],
      "stateMutability": "payable",
      "type": "function",
      "payable": true
    },
    {
      "inputs": [
        {
          "internalType": "uint256",
          "name": "_tokenId",
          "type": "uint256"
        },
        {
          "internalType": "uint256",
          "name": "_newPrice",
          "type": "uint256"
        }
      ],
      "name": "changeTokenPrice",
      "outputs": [],
      "stateMutability": "nonpayable",
      "type": "function"
    },
    {
      "inputs": [
        {
          "internalType": "uint256",
          "name": "_tokenId",
          "type": "uint256"
        }
      ],
      "name": "toggleForSale",
      "outputs": [],
      "stateMutability": "nonpayable",
      "type": "function"
    }
  ],
  "bytecode": "0x60806040523480156200001157600080fd5b506040518060400160405280601081526020017f4f776e656445766572797468696e6773000000000000000000000000000000008152506040518060400160405280600981526020017f4f575f455468696e670000000000000000000000000000000000000000000000815250620000966301ffc9a760e01b6200016860201b60201c565b8160069080519060200190620000ae929190620003bd565b508060079080519060200190620000c7929190620003bd565b50620000e06380ac58cd60e01b6200016860201b60201c565b620000f8635b5e139f60e01b6200016860201b60201c565b6200011063780e9d6360e01b6200016860201b60201c565b5050620001226200027160201b60201c565b600a908051906020019062000139929190620003bd565b506200014a6200031760201b60201c565b600b908051906020019062000161929190620003bd565b5062000473565b63ffffffff60e01b817bffffffffffffffffffffffffffffffffffffffffffffffffffffffff1916141562000205576040517f08c379a000000000000000000000000000000000000000000000000000000000815260040180806020018281038252601c8152602001807f4552433136353a20696e76616c696420696e746572666163652069640000000081525060200191505060405180910390fd5b6001600080837bffffffffffffffffffffffffffffffffffffffffffffffffffffffff19167bffffffffffffffffffffffffffffffffffffffffffffffffffffffff1916815260200190815260200160002060006101000a81548160ff02191690831515021790555050565b606060068054600181600116156101000203166002900480601f0160208091040260200160405190810160405280929190818152602001828054600181600116156101000203166002900480156200030d5780601f10620002e1576101008083540402835291602001916200030d565b820191906000526020600020905b815481529060010190602001808311620002ef57829003601f168201915b5050505050905090565b606060078054600181600116156101000203166002900480601f016020809104026020016040519081016040528092919081815260200182805460018160011615610100020316600290048015620003b35780601f106200038757610100808354040283529160200191620003b3565b820191906000526020600020905b8154815290600101906020018083116200039557829003601f168201915b5050505050905090565b828054600181600116156101000203166002900490600052602060002090601f016020900481019282620003f5576000855562000441565b82601f106200041057805160ff191683800117855562000441565b8280016001018555821562000441579182015b828111156200044057825182559160200191906001019062000423565b5b50905062000450919062000454565b5090565b5b808211156200046f57600081600090555060010162000455565b5090565b615a9780620004836000396000f3fe6080604052600436106101ee5760003560e01c80636352211e1161010d578063a32018b9116100a0578063cc151f3a1161006f578063cc151f3a14610786578063e5326ab1146107b1578063e985e9c5146107dc578063f7c1c3f314610819578063fdd95f7f14610861576101ee565b8063a32018b9146106ba578063a5cd761f146106e3578063b88d4fde14610720578063c87b56dd14610749576101ee565b806370a08231116100dc57806370a08231146105ec5780638d44807c1461062957806395d89b4114610666578063a22cb46514610691576101ee565b80636352211e1461051c57806367c623cf146105595780636c0360eb146105965780636f9507f9146105c1576101ee565b806323b872dd1161018557806343d32ae71161015457806343d32ae71461043c578063465c4105146104795780634f6ccce7146104b657806362e8e8ac146104f3576101ee565b806323b872dd146103705780632f745c591461039957806342842e0e146103d657806343902850146103ff576101ee565b8063095ea7b3116101c1578063095ea7b3146102b4578063142687f3146102dd57806318160ddd1461031a5780631f1985c314610345576101ee565b806301ffc9a7146101f3578063057466ea1461023057806306fdde031461024c578063081812fc14610277575b600080fd5b3480156101ff57600080fd5b5061021a60048036038101906102159190615134565b61088a565b6040516102279190615474565b60405180910390f35b61024a60048036038101906102459190615322565b6108f1565b005b34801561025857600080fd5b50610261611269565b60405161026e919061548f565b60405180910390f35b34801561028357600080fd5b5061029e600480360381019061029991906152f9565b61130b565b6040516102ab9190615459565b60405180910390f35b3480156102c057600080fd5b506102db60048036038101906102d691906150f8565b6113a6565b005b3480156102e957600080fd5b5061030460048036038101906102ff91906152f9565b6114ea565b6040516103119190615474565b60405180910390f35b34801561032657600080fd5b5061032f611501565b60405161033c91906154b1565b60405180910390f35b34801561035157600080fd5b5061035a611512565b60405161036791906154b1565b60405180910390f35b34801561037c57600080fd5b5061039760048036038101906103929190614ff2565b611518565b005b3480156103a557600080fd5b506103c060048036038101906103bb91906150f8565b61158e565b6040516103cd91906154b1565b60405180910390f35b3480156103e257600080fd5b506103fd60048036038101906103f89190614ff2565b6115e9565b005b34801561040b57600080fd5b5061042660048036038101906104219190614f8d565b611609565b60405161043391906154b1565b60405180910390f35b34801561044857600080fd5b50610463600480360381019061045e919061515d565b611620565b6040516104709190615474565b60405180910390f35b34801561048557600080fd5b506104a0600480360381019061049b919061519e565b611656565b6040516104ad9190615474565b60405180910390f35b3480156104c257600080fd5b506104dd60048036038101906104d891906152f9565b61171f565b6040516104ea91906154b1565b60405180910390f35b3480156104ff57600080fd5b5061051a60048036038101906105159190615322565b611742565b005b34801561052857600080fd5b50610543600480360381019061053e91906152f9565b611d80565b6040516105509190615459565b60405180910390f35b34801561056557600080fd5b50610580600480360381019061057b91906152f9565b611db7565b60405161058d919061548f565b60405180910390f35b3480156105a257600080fd5b506105ab611dcf565b6040516105b8919061548f565b60405180910390f35b3480156105cd57600080fd5b506105d6611e71565b6040516105e3919061548f565b60405180910390f35b3480156105f857600080fd5b50610613600480360381019061060e9190614f8d565b611f0f565b60405161062091906154b1565b60405180910390f35b34801561063557600080fd5b50610650600480360381019061064b919061515d565b611fe4565b60405161065d9190615474565b60405180910390f35b34801561067257600080fd5b5061067b61201a565b604051610688919061548f565b60405180910390f35b34801561069d57600080fd5b506106b860048036038101906106b391906150bc565b6120bc565b005b3480156106c657600080fd5b506106e160048036038101906106dc91906152f9565b612272565b005b3480156106ef57600080fd5b5061070a600480360381019061070591906152f9565b6128d9565b6040516107179190615459565b60405180910390f35b34801561072c57600080fd5b5061074760048036038101906107429190615041565b6128f0565b005b34801561075557600080fd5b50610770600480360381019061076b91906152f9565b612968565b60405161077d919061548f565b60405180910390f35b34801561079257600080fd5b5061079b612c39565b6040516107a891906154b1565b60405180910390f35b3480156107bd57600080fd5b506107c6612c4d565b6040516107d3919061548f565b60405180910390f35b3480156107e857600080fd5b5061080360048036038101906107fe9190614fb6565b612ceb565b6040516108109190615474565b60405180910390f35b34801561082557600080fd5b50610840600480360381019061083b91906152f9565b612d7f565b6040516108589c9b9a999897969594939291906154cc565b60405180910390f35b34801561086d57600080fd5b506108886004803603810190610883919061520a565b6130ac565b005b6000806000837bffffffffffffffffffffffffffffffffffffffffffffffffffffffff19167bffffffffffffffffffffffffffffffffffffffffffffffffffffffff1916815260200190815260200160002060009054906101000a900460ff169050919050565b600073ffffffffffffffffffffffffffffffffffffffff163373ffffffffffffffffffffffffffffffffffffffff16141561092b57600080fd5b61093482613563565b61093d57600080fd5b600061094883611d80565b9050600073ffffffffffffffffffffffffffffffffffffffff168173ffffffffffffffffffffffffffffffffffffffff16141561098457600080fd5b3373ffffffffffffffffffffffffffffffffffffffff168173ffffffffffffffffffffffffffffffffffffffff1614156109bd57600080fd5b6000600d60008581526020019081526020016000206040518061018001604052908160008201548152602001600182018054600181600116156101000203166002900480601f016020809104026020016040519081016040528092919081815260200182805460018160011615610100020316600290048015610a815780601f10610a5657610100808354040283529160200191610a81565b820191906000526020600020905b815481529060010190602001808311610a6457829003601f168201915b50505050508152602001600282018054600181600116156101000203166002900480601f016020809104026020016040519081016040528092919081815260200182805460018160011615610100020316600290048015610b235780601f10610af857610100808354040283529160200191610b23565b820191906000526020600020905b815481529060010190602001808311610b0657829003601f168201915b505050505081526020016003820160009054906101000a900473ffffffffffffffffffffffffffffffffffffffff1673ffffffffffffffffffffffffffffffffffffffff1673ffffffffffffffffffffffffffffffffffffffff1681526020016004820160009054906101000a900473ffffffffffffffffffffffffffffffffffffffff1673ffffffffffffffffffffffffffffffffffffffff1673ffffffffffffffffffffffffffffffffffffffff1681526020016005820160009054906101000a900473ffffffffffffffffffffffffffffffffffffffff1673ffffffffffffffffffffffffffffffffffffffff1673ffffffffffffffffffffffffffffffffffffffff16815260200160068201548152602001600782018054600181600116156101000203166002900480601f016020809104026020016040519081016040528092919081815260200182805460018160011615610100020316600290048015610cd15780601f10610ca657610100808354040283529160200191610cd1565b820191906000526020600020905b815481529060010190602001808311610cb457829003601f168201915b50505050508152602001600882018054600181600116156101000203166002900480601f016020809104026020016040519081016040528092919081815260200182805460018160011615610100020316600290048015610d735780601f10610d4857610100808354040283529160200191610d73565b820191906000526020600020905b815481529060010190602001808311610d5657829003601f168201915b5050505050815260200160098201548152602001600a8201548152602001600b820160009054906101000a900460ff1615151515815250509050806101200151341015610dbf57600080fd5b806101600151610dce57600080fd5b610dd9823386613580565b6000816080015190508073ffffffffffffffffffffffffffffffffffffffff166108fc349081150290604051600060405180830381858888f19350505050158015610e28573d6000803e3d6000fd5b5081608001518260a0019073ffffffffffffffffffffffffffffffffffffffff16908173ffffffffffffffffffffffffffffffffffffffff168152505033826080019073ffffffffffffffffffffffffffffffffffffffff16908173ffffffffffffffffffffffffffffffffffffffff1681525050838260c0018181525050610f9d600d60008781526020019081526020016000206007018054600181600116156101000203166002900480601f016020809104026020016040519081016040528092919081815260200182805460018160011615610100020316600290048015610f545780601f10610f2957610100808354040283529160200191610f54565b820191906000526020600020905b815481529060010190602001808311610f3757829003601f168201915b50505050506040518060400160405280600181526020017f2c00000000000000000000000000000000000000000000000000000000000000815250610f98426137c3565b61390a565b8260e0018190525061109b600d60008781526020019081526020016000206008018054600181600116156101000203166002900480601f0160208091040260200160405190810160405280929190818152602001828054600181600116156101000203166002900480156110525780601f1061102757610100808354040283529160200191611052565b820191906000526020600020905b81548152906001019060200180831161103557829003601f168201915b50505050506040518060400160405280600181526020017f2c0000000000000000000000000000000000000000000000000000000000000081525061109633613add565b61390a565b82610100018190525060018261014001818151019150818152505081600d60008781526020019081526020016000206000820151816000015560208201518160010190805190602001906110f0929190614d74565b50604082015181600201908051906020019061110d929190614d74565b5060608201518160030160006101000a81548173ffffffffffffffffffffffffffffffffffffffff021916908373ffffffffffffffffffffffffffffffffffffffff16021790555060808201518160040160006101000a81548173ffffffffffffffffffffffffffffffffffffffff021916908373ffffffffffffffffffffffffffffffffffffffff16021790555060a08201518160050160006101000a81548173ffffffffffffffffffffffffffffffffffffffff021916908373ffffffffffffffffffffffffffffffffffffffff16021790555060c0820151816006015560e0820151816007019080519060200190611209929190614d74565b50610100820151816008019080519060200190611227929190614d74565b50610120820151816009015561014082015181600a015561016082015181600b0160006101000a81548160ff0219169083151502179055509050505050505050565b606060068054600181600116156101000203166002900480601f0160208091040260200160405190810160405280929190818152602001828054600181600116156101000203166002900480156113015780601f106112d657610100808354040283529160200191611301565b820191906000526020600020905b8154815290600101906020018083116112e457829003601f168201915b5050505050905090565b600061131682613563565b61136b576040517f08c379a000000000000000000000000000000000000000000000000000000000815260040180806020018281038252602c815260200180615960602c913960400191505060405180910390fd5b6004600083815260200190815260200160002060009054906101000a900473ffffffffffffffffffffffffffffffffffffffff169050919050565b60006113b182611d80565b90508073ffffffffffffffffffffffffffffffffffffffff168373ffffffffffffffffffffffffffffffffffffffff161415611438576040517f08c379a0000000000000000000000000000000000000000000000000000000008152600401808060200182810382526021815260200180615a106021913960400191505060405180910390fd5b8073ffffffffffffffffffffffffffffffffffffffff16611457613cd0565b73ffffffffffffffffffffffffffffffffffffffff161480611486575061148581611480613cd0565b612ceb565b5b6114db576040517f08c379a00000000000000000000000000000000000000000000000000000000081526004018080602001828103825260388152602001806158b36038913960400191505060405180910390fd5b6114e58383613cd8565b505050565b6000806114f683613563565b905080915050919050565b600061150d6002613d91565b905090565b600c5481565b611529611523613cd0565b82613da6565b61157e576040517f08c379a0000000000000000000000000000000000000000000000000000000008152600401808060200182810382526031815260200180615a316031913960400191505060405180910390fd5b611589838383613580565b505050565b60006115e182600160008673ffffffffffffffffffffffffffffffffffffffff1673ffffffffffffffffffffffffffffffffffffffff168152602001908152602001600020613e9a90919063ffffffff16565b905092915050565b611604838383604051806020016040528060008152506128f0565b505050565b60008061161583611f0f565b905080915050919050565b600f818051602081018201805184825260208301602085012081835280955050505050506000915054906101000a900460ff1681565b6000808390506000839050805182511461167557600092505050611719565b60005b82518110156117115781818151811061168d57fe5b602001015160f81c60f81b7effffffffffffffffffffffffffffffffffffffffffffffffffffffffffffff19168382815181106116c657fe5b602001015160f81c60f81b7effffffffffffffffffffffffffffffffffffffffffffffffffffffffffffff1916146117045760009350505050611719565b8080600101915050611678565b506001925050505b92915050565b600080611736836002613eb490919063ffffffff16565b50905080915050919050565b600073ffffffffffffffffffffffffffffffffffffffff163373ffffffffffffffffffffffffffffffffffffffff16141561177c57600080fd5b61178582613563565b61178e57600080fd5b600061179983611d80565b90503373ffffffffffffffffffffffffffffffffffffffff168173ffffffffffffffffffffffffffffffffffffffff16146117d357600080fd5b6000600d60008581526020019081526020016000206040518061018001604052908160008201548152602001600182018054600181600116156101000203166002900480601f0160208091040260200160405190810160405280929190818152602001828054600181600116156101000203166002900480156118975780601f1061186c57610100808354040283529160200191611897565b820191906000526020600020905b81548152906001019060200180831161187a57829003601f168201915b50505050508152602001600282018054600181600116156101000203166002900480601f0160208091040260200160405190810160405280929190818152602001828054600181600116156101000203166002900480156119395780601f1061190e57610100808354040283529160200191611939565b820191906000526020600020905b81548152906001019060200180831161191c57829003601f168201915b505050505081526020016003820160009054906101000a900473ffffffffffffffffffffffffffffffffffffffff1673ffffffffffffffffffffffffffffffffffffffff1673ffffffffffffffffffffffffffffffffffffffff1681526020016004820160009054906101000a900473ffffffffffffffffffffffffffffffffffffffff1673ffffffffffffffffffffffffffffffffffffffff1673ffffffffffffffffffffffffffffffffffffffff1681526020016005820160009054906101000a900473ffffffffffffffffffffffffffffffffffffffff1673ffffffffffffffffffffffffffffffffffffffff1673ffffffffffffffffffffffffffffffffffffffff16815260200160068201548152602001600782018054600181600116156101000203166002900480601f016020809104026020016040519081016040528092919081815260200182805460018160011615610100020316600290048015611ae75780601f10611abc57610100808354040283529160200191611ae7565b820191906000526020600020905b815481529060010190602001808311611aca57829003601f168201915b50505050508152602001600882018054600181600116156101000203166002900480601f016020809104026020016040519081016040528092919081815260200182805460018160011615610100020316600290048015611b895780601f10611b5e57610100808354040283529160200191611b89565b820191906000526020600020905b815481529060010190602001808311611b6c57829003601f168201915b5050505050815260200160098201548152602001600a8201548152602001600b820160009054906101000a900460ff1615151515815250509050828161012001818152505080600d6000868152602001908152602001600020600082015181600001556020820151816001019080519060200190611c08929190614d74565b506040820151816002019080519060200190611c25929190614d74565b5060608201518160030160006101000a81548173ffffffffffffffffffffffffffffffffffffffff021916908373ffffffffffffffffffffffffffffffffffffffff16021790555060808201518160040160006101000a81548173ffffffffffffffffffffffffffffffffffffffff021916908373ffffffffffffffffffffffffffffffffffffffff16021790555060a08201518160050160006101000a81548173ffffffffffffffffffffffffffffffffffffffff021916908373ffffffffffffffffffffffffffffffffffffffff16021790555060c0820151816006015560e0820151816007019080519060200190611d21929190614d74565b50610100820151816008019080519060200190611d3f929190614d74565b50610120820151816009015561014082015181600a015561016082015181600b0160006101000a81548160ff02191690831515021790555090505050505050565b6000611db082604051806060016040528060298152602001615915602991396002613ee09092919063ffffffff16565b9050919050565b60606000611dc483612968565b905080915050919050565b606060098054600181600116156101000203166002900480601f016020809104026020016040519081016040528092919081815260200182805460018160011615610100020316600290048015611e675780601f10611e3c57610100808354040283529160200191611e67565b820191906000526020600020905b815481529060010190602001808311611e4a57829003601f168201915b5050505050905090565b600b8054600181600116156101000203166002900480601f016020809104026020016040519081016040528092919081815260200182805460018160011615610100020316600290048015611f075780601f10611edc57610100808354040283529160200191611f07565b820191906000526020600020905b815481529060010190602001808311611eea57829003601f168201915b505050505081565b60008073ffffffffffffffffffffffffffffffffffffffff168273ffffffffffffffffffffffffffffffffffffffff161415611f96576040517f08c379a000000000000000000000000000000000000000000000000000000000815260040180806020018281038252602a8152602001806158eb602a913960400191505060405180910390fd5b611fdd600160008473ffffffffffffffffffffffffffffffffffffffff1673ffffffffffffffffffffffffffffffffffffffff168152602001908152602001600020613eff565b9050919050565b600e818051602081018201805184825260208301602085012081835280955050505050506000915054906101000a900460ff1681565b606060078054600181600116156101000203166002900480601f0160208091040260200160405190810160405280929190818152602001828054600181600116156101000203166002900480156120b25780601f10612087576101008083540402835291602001916120b2565b820191906000526020600020905b81548152906001019060200180831161209557829003601f168201915b5050505050905090565b6120c4613cd0565b73ffffffffffffffffffffffffffffffffffffffff168273ffffffffffffffffffffffffffffffffffffffff161415612165576040517f08c379a00000000000000000000000000000000000000000000000000000000081526004018080602001828103825260198152602001807f4552433732313a20617070726f766520746f2063616c6c65720000000000000081525060200191505060405180910390fd5b8060056000612172613cd0565b73ffffffffffffffffffffffffffffffffffffffff1673ffffffffffffffffffffffffffffffffffffffff16815260200190815260200160002060008473ffffffffffffffffffffffffffffffffffffffff1673ffffffffffffffffffffffffffffffffffffffff16815260200190815260200160002060006101000a81548160ff0219169083151502179055508173ffffffffffffffffffffffffffffffffffffffff1661221f613cd0565b73ffffffffffffffffffffffffffffffffffffffff167f17307eab39ab6107e8899845ad3d59bd9653f200f220920489ca2b5937696c318360405180821515815260200191505060405180910390a35050565b600073ffffffffffffffffffffffffffffffffffffffff163373ffffffffffffffffffffffffffffffffffffffff1614156122ac57600080fd5b6122b581613563565b6122be57600080fd5b60006122c982611d80565b90503373ffffffffffffffffffffffffffffffffffffffff168173ffffffffffffffffffffffffffffffffffffffff161461230357600080fd5b6000600d60008481526020019081526020016000206040518061018001604052908160008201548152602001600182018054600181600116156101000203166002900480601f0160208091040260200160405190810160405280929190818152602001828054600181600116156101000203166002900480156123c75780601f1061239c576101008083540402835291602001916123c7565b820191906000526020600020905b8154815290600101906020018083116123aa57829003601f168201915b50505050508152602001600282018054600181600116156101000203166002900480601f0160208091040260200160405190810160405280929190818152602001828054600181600116156101000203166002900480156124695780601f1061243e57610100808354040283529160200191612469565b820191906000526020600020905b81548152906001019060200180831161244c57829003601f168201915b505050505081526020016003820160009054906101000a900473ffffffffffffffffffffffffffffffffffffffff1673ffffffffffffffffffffffffffffffffffffffff1673ffffffffffffffffffffffffffffffffffffffff1681526020016004820160009054906101000a900473ffffffffffffffffffffffffffffffffffffffff1673ffffffffffffffffffffffffffffffffffffffff1673ffffffffffffffffffffffffffffffffffffffff1681526020016005820160009054906101000a900473ffffffffffffffffffffffffffffffffffffffff1673ffffffffffffffffffffffffffffffffffffffff1673ffffffffffffffffffffffffffffffffffffffff16815260200160068201548152602001600782018054600181600116156101000203166002900480601f0160208091040260200160405190810160405280929190818152602001828054600181600116156101000203166002900480156126175780601f106125ec57610100808354040283529160200191612617565b820191906000526020600020905b8154815290600101906020018083116125fa57829003601f168201915b50505050508152602001600882018054600181600116156101000203166002900480601f0160208091040260200160405190810160405280929190818152602001828054600181600116156101000203166002900480156126b95780601f1061268e576101008083540402835291602001916126b9565b820191906000526020600020905b81548152906001019060200180831161269c57829003601f168201915b5050505050815260200160098201548152602001600a8201548152602001600b820160009054906101000a900460ff16151515158152505090508061016001511561271557600081610160019015159081151581525050612728565b6001816101600190151590811515815250505b80600d6000858152602001908152602001600020600082015181600001556020820151816001019080519060200190612762929190614d74565b50604082015181600201908051906020019061277f929190614d74565b5060608201518160030160006101000a81548173ffffffffffffffffffffffffffffffffffffffff021916908373ffffffffffffffffffffffffffffffffffffffff16021790555060808201518160040160006101000a81548173ffffffffffffffffffffffffffffffffffffffff021916908373ffffffffffffffffffffffffffffffffffffffff16021790555060a08201518160050160006101000a81548173ffffffffffffffffffffffffffffffffffffffff021916908373ffffffffffffffffffffffffffffffffffffffff16021790555060c0820151816006015560e082015181600701908051906020019061287b929190614d74565b50610100820151816008019080519060200190612899929190614d74565b50610120820151816009015561014082015181600a015561016082015181600b0160006101000a81548160ff021916908315150217905550905050505050565b6000806128e583611d80565b905080915050919050565b6129016128fb613cd0565b83613da6565b612956576040517f08c379a0000000000000000000000000000000000000000000000000000000008152600401808060200182810382526031815260200180615a316031913960400191505060405180910390fd5b61296284848484613f14565b50505050565b606061297382613563565b6129c8576040517f08c379a000000000000000000000000000000000000000000000000000000000815260040180806020018281038252602f8152602001806159e1602f913960400191505060405180910390fd5b6000600860008481526020019081526020016000208054600181600116156101000203166002900480601f016020809104026020016040519081016040528092919081815260200182805460018160011615610100020316600290048015612a715780601f10612a4657610100808354040283529160200191612a71565b820191906000526020600020905b815481529060010190602001808311612a5457829003601f168201915b505050505090506000612a82611dcf565b9050600081511415612a98578192505050612c34565b600082511115612b695780826040516020018083805190602001908083835b60208310612ada5780518252602082019150602081019050602083039250612ab7565b6001836020036101000a03801982511681845116808217855250505050505090500182805190602001908083835b60208310612b2b5780518252602082019150602081019050602083039250612b08565b6001836020036101000a0380198251168184511680821785525050505050509050019250505060405160208183030381529060405292505050612c34565b80612b7385613f86565b6040516020018083805190602001908083835b60208310612ba95780518252602082019150602081019050602083039250612b86565b6001836020036101000a03801982511681845116808217855250505050505090500182805190602001908083835b60208310612bfa5780518252602082019150602081019050602083039250612bd7565b6001836020036101000a03801982511681845116808217855250505050505090500192505050604051602081830303815290604052925050505b919050565b600080612c44611501565b90508091505090565b600a8054600181600116156101000203166002900480601f016020809104026020016040519081016040528092919081815260200182805460018160011615610100020316600290048015612ce35780601f10612cb857610100808354040283529160200191612ce3565b820191906000526020600020905b815481529060010190602001808311612cc657829003601f168201915b505050505081565b6000600560008473ffffffffffffffffffffffffffffffffffffffff1673ffffffffffffffffffffffffffffffffffffffff16815260200190815260200160002060008373ffffffffffffffffffffffffffffffffffffffff1673ffffffffffffffffffffffffffffffffffffffff16815260200190815260200160002060009054906101000a900460ff16905092915050565b600d602052806000526040600020600091509050806000015490806001018054600181600116156101000203166002900480601f016020809104026020016040519081016040528092919081815260200182805460018160011615610100020316600290048015612e315780601f10612e0657610100808354040283529160200191612e31565b820191906000526020600020905b815481529060010190602001808311612e1457829003601f168201915b505050505090806002018054600181600116156101000203166002900480601f016020809104026020016040519081016040528092919081815260200182805460018160011615610100020316600290048015612ecf5780601f10612ea457610100808354040283529160200191612ecf565b820191906000526020600020905b815481529060010190602001808311612eb257829003601f168201915b5050505050908060030160009054906101000a900473ffffffffffffffffffffffffffffffffffffffff16908060040160009054906101000a900473ffffffffffffffffffffffffffffffffffffffff16908060050160009054906101000a900473ffffffffffffffffffffffffffffffffffffffff1690806006015490806007018054600181600116156101000203166002900480601f016020809104026020016040519081016040528092919081815260200182805460018160011615610100020316600290048015612fe55780601f10612fba57610100808354040283529160200191612fe5565b820191906000526020600020905b815481529060010190602001808311612fc857829003601f168201915b505050505090806008018054600181600116156101000203166002900480601f0160208091040260200160405190810160405280929190818152602001828054600181600116156101000203166002900480156130835780601f1061305857610100808354040283529160200191613083565b820191906000526020600020905b81548152906001019060200180831161306657829003601f168201915b50505050509080600901549080600a01549080600b0160009054906101000a900460ff1690508c565b600073ffffffffffffffffffffffffffffffffffffffff163373ffffffffffffffffffffffffffffffffffffffff1614156130e657600080fd5b600c60008154809291906001019190505550613103600c54613563565b1561310d57600080fd5b600061314e836040518060400160405280600581526020017f636f6c6f72000000000000000000000000000000000000000000000000000000815250611656565b156131c557600090505b848490508110156131c457600e85858381811061317157fe5b905060200281019061318391906155a2565b604051613191929190615429565b908152602001604051809103902060009054906101000a900460ff16156131b757600080fd5b8080600101915050613158565b5b600f876040516131d59190615442565b908152602001604051809103902060009054906101000a900460ff16156131fb57600080fd5b61320733600c546140cd565b613213600c54886142c1565b613252836040518060400160405280600581526020017f636f6c6f72000000000000000000000000000000000000000000000000000000815250611656565b156132ca57600090505b848490508110156132c9576001600e86868481811061327757fe5b905060200281019061328991906155a2565b604051613297929190615429565b908152602001604051809103902060006101000a81548160ff021916908315150217905550808060010191505061325c565b5b6001600f886040516132dc9190615442565b908152602001604051809103902060006101000a81548160ff021916908315150217905550604051806101800160405280600c5481526020018981526020018881526020013373ffffffffffffffffffffffffffffffffffffffff1681526020013373ffffffffffffffffffffffffffffffffffffffff168152602001600073ffffffffffffffffffffffffffffffffffffffff168152602001838152602001613385426137c3565b815260200161339333613add565b81526020018781526020016000815260200160011515815250600d6000600c5481526020019081526020016000206000820151816000015560208201518160010190805190602001906133e7929190614d74565b506040820151816002019080519060200190613404929190614d74565b5060608201518160030160006101000a81548173ffffffffffffffffffffffffffffffffffffffff021916908373ffffffffffffffffffffffffffffffffffffffff16021790555060808201518160040160006101000a81548173ffffffffffffffffffffffffffffffffffffffff021916908373ffffffffffffffffffffffffffffffffffffffff16021790555060a08201518160050160006101000a81548173ffffffffffffffffffffffffffffffffffffffff021916908373ffffffffffffffffffffffffffffffffffffffff16021790555060c0820151816006015560e0820151816007019080519060200190613500929190614d74565b5061010082015181600801908051906020019061351e929190614d74565b50610120820151816009015561014082015181600a015561016082015181600b0160006101000a81548160ff0219169083151502179055509050505050505050505050565b600061357982600261434b90919063ffffffff16565b9050919050565b8273ffffffffffffffffffffffffffffffffffffffff166135a082611d80565b73ffffffffffffffffffffffffffffffffffffffff161461360c576040517f08c379a00000000000000000000000000000000000000000000000000000000081526004018080602001828103825260298152602001806159b86029913960400191505060405180910390fd5b600073ffffffffffffffffffffffffffffffffffffffff168273ffffffffffffffffffffffffffffffffffffffff161415613692576040517f08c379a000000000000000000000000000000000000000000000000000000000815260040180806020018281038252602481526020018061583d6024913960400191505060405180910390fd5b61369d838383614365565b6136a8600082613cd8565b6136f981600160008673ffffffffffffffffffffffffffffffffffffffff1673ffffffffffffffffffffffffffffffffffffffff16815260200190815260200160002061436a90919063ffffffff16565b5061374b81600160008573ffffffffffffffffffffffffffffffffffffffff1673ffffffffffffffffffffffffffffffffffffffff16815260200190815260200160002061438490919063ffffffff16565b506137628183600261439e9092919063ffffffff16565b50808273ffffffffffffffffffffffffffffffffffffffff168473ffffffffffffffffffffffffffffffffffffffff167fddf252ad1be2c89b69c2b068fc378daa952ba7f163c4a11628f55a4df523b3ef60405160405180910390a4505050565b6060600082141561380b576040518060400160405280600181526020017f30000000000000000000000000000000000000000000000000000000000000008152509050613905565b600082905060005b60008214613835578080600101915050600a828161382d57fe5b049150613813565b60008167ffffffffffffffff8111801561384e57600080fd5b506040519080825280601f01601f1916602001820160405280156138815781602001600182028036833780820191505090505b50905060006001830390508593505b600084146138fd57600a84816138a257fe5b0660300160f81b828280600190039350815181106138bc57fe5b60200101907effffffffffffffffffffffffffffffffffffffffffffffffffffffffffffff1916908160001a905350600a84816138f557fe5b049350613890565b819450505050505b919050565b60606000849050600084905060008490506000815183518551010167ffffffffffffffff8111801561393b57600080fd5b506040519080825280601f01601f19166020018201604052801561396e5781602001600182028036833780820191505090505b50905060008190506000805b86518110156139e85786818151811061398f57fe5b602001015160f81c60f81b8383806001019450815181106139ac57fe5b60200101907effffffffffffffffffffffffffffffffffffffffffffffffffffffffffffff1916908160001a905350808060010191505061397a565b5060005b8551811015613a5a57858181518110613a0157fe5b602001015160f81c60f81b838380600101945081518110613a1e57fe5b60200101907effffffffffffffffffffffffffffffffffffffffffffffffffffffffffffff1916908160001a90535080806001019150506139ec565b5060005b8451811015613acc57848181518110613a7357fe5b602001015160f81c60f81b838380600101945081518110613a9057fe5b60200101907effffffffffffffffffffffffffffffffffffffffffffffffffffffffffffff1916908160001a9053508080600101915050613a5e565b508296505050505050509392505050565b606060008260601b90506000602a67ffffffffffffffff81118015613b0157600080fd5b506040519080825280601f01601f191660200182016040528015613b345781602001600182028036833780820191505090505b5090507f300000000000000000000000000000000000000000000000000000000000000081600081518110613b6557fe5b60200101907effffffffffffffffffffffffffffffffffffffffffffffffffffffffffffff1916908160001a9053507f780000000000000000000000000000000000000000000000000000000000000081600181518110613bc257fe5b60200101907effffffffffffffffffffffffffffffffffffffffffffffffffffffffffffff1916908160001a90535060005b6014811015613cc5576000838260148110613c0b57fe5b1a60f81b60f81c9050613c27600f60048360ff16901c166143d3565b83600184901b60020181518110613c3a57fe5b60200101907effffffffffffffffffffffffffffffffffffffffffffffffffffffffffffff1916908160001a905350613c75600f82166143d3565b83600184901b60030181518110613c8857fe5b60200101907effffffffffffffffffffffffffffffffffffffffffffffffffffffffffffff1916908160001a905350508080600101915050613bf4565b508092505050919050565b600033905090565b816004600083815260200190815260200160002060006101000a81548173ffffffffffffffffffffffffffffffffffffffff021916908373ffffffffffffffffffffffffffffffffffffffff160217905550808273ffffffffffffffffffffffffffffffffffffffff16613d4b83611d80565b73ffffffffffffffffffffffffffffffffffffffff167f8c5be1e5ebec7d5bd14f71427d1e84f3dd0314c0f7b2291e5b200ac8c7c3b92560405160405180910390a45050565b6000613d9f8260000161440e565b9050919050565b6000613db182613563565b613e06576040517f08c379a000000000000000000000000000000000000000000000000000000000815260040180806020018281038252602c815260200180615887602c913960400191505060405180910390fd5b6000613e1183611d80565b90508073ffffffffffffffffffffffffffffffffffffffff168473ffffffffffffffffffffffffffffffffffffffff161480613e8057508373ffffffffffffffffffffffffffffffffffffffff16613e688461130b565b73ffffffffffffffffffffffffffffffffffffffff16145b80613e915750613e908185612ceb565b5b91505092915050565b6000613ea9836000018361441f565b60001c905092915050565b600080600080613ec786600001866144a2565b915091508160001c8160001c9350935050509250929050565b6000613ef3846000018460001b8461453b565b60001c90509392505050565b6000613f0d82600001614631565b9050919050565b613f1f848484613580565b613f2b84848484614642565b613f80576040517f08c379a000000000000000000000000000000000000000000000000000000000815260040180806020018281038252603281526020018061580b6032913960400191505060405180910390fd5b50505050565b60606000821415613fce576040518060400160405280600181526020017f300000000000000000000000000000000000000000000000000000000000000081525090506140c8565b600082905060005b60008214613ff8578080600101915050600a8281613ff057fe5b049150613fd6565b60008167ffffffffffffffff8111801561401157600080fd5b506040519080825280601f01601f1916602001820160405280156140445781602001600182028036833780820191505090505b50905060006001830390508593505b600084146140c057600a848161406557fe5b0660300160f81b8282806001900393508151811061407f57fe5b60200101907effffffffffffffffffffffffffffffffffffffffffffffffffffffffffffff1916908160001a905350600a84816140b857fe5b049350614053565b819450505050505b919050565b600073ffffffffffffffffffffffffffffffffffffffff168273ffffffffffffffffffffffffffffffffffffffff161415614170576040517f08c379a00000000000000000000000000000000000000000000000000000000081526004018080602001828103825260208152602001807f4552433732313a206d696e7420746f20746865207a65726f206164647265737381525060200191505060405180910390fd5b61417981613563565b156141ec576040517f08c379a000000000000000000000000000000000000000000000000000000000815260040180806020018281038252601c8152602001807f4552433732313a20746f6b656e20616c7265616479206d696e7465640000000081525060200191505060405180910390fd5b6141f860008383614365565b61424981600160008573ffffffffffffffffffffffffffffffffffffffff1673ffffffffffffffffffffffffffffffffffffffff16815260200190815260200160002061438490919063ffffffff16565b506142608183600261439e9092919063ffffffff16565b50808273ffffffffffffffffffffffffffffffffffffffff16600073ffffffffffffffffffffffffffffffffffffffff167fddf252ad1be2c89b69c2b068fc378daa952ba7f163c4a11628f55a4df523b3ef60405160405180910390a45050565b6142ca82613563565b61431f576040517f08c379a000000000000000000000000000000000000000000000000000000000815260040180806020018281038252602c81526020018061598c602c913960400191505060405180910390fd5b80600860008481526020019081526020016000209080519060200190614346929190614d74565b505050565b600061435d836000018360001b61485b565b905092915050565b505050565b600061437c836000018360001b61487e565b905092915050565b6000614396836000018360001b614966565b905092915050565b60006143ca846000018460001b8473ffffffffffffffffffffffffffffffffffffffff1660001b6149d6565b90509392505050565b6000808260ff16101580156143ec575060098260ff1611155b156143ff576030820160f81b9050614409565b6057820160f81b90505b919050565b600081600001805490509050919050565b600081836000018054905011614480576040517f08c379a00000000000000000000000000000000000000000000000000000000081526004018080602001828103825260228152602001806157e96022913960400191505060405180910390fd5b82600001828154811061448f57fe5b9060005260206000200154905092915050565b60008082846000018054905011614504576040517f08c379a000000000000000000000000000000000000000000000000000000000815260040180806020018281038252602281526020018061593e6022913960400191505060405180910390fd5b600084600001848154811061451557fe5b906000526020600020906002020190508060000154816001015492509250509250929050565b60008084600101600085815260200190815260200160002054905060008114158390614602576040517f08c379a00000000000000000000000000000000000000000000000000000000081526004018080602001828103825283818151815260200191508051906020019080838360005b838110156145c75780820151818401526020810190506145ac565b50505050905090810190601f1680156145f45780820380516001836020036101000a031916815260200191505b509250505060405180910390fd5b5084600001600182038154811061461557fe5b9060005260206000209060020201600101549150509392505050565b600081600001805490509050919050565b60006146638473ffffffffffffffffffffffffffffffffffffffff16614ab2565b6146705760019050614853565b60006147da63150b7a0260e01b614685613cd0565b888787604051602401808573ffffffffffffffffffffffffffffffffffffffff1681526020018473ffffffffffffffffffffffffffffffffffffffff16815260200183815260200180602001828103825283818151815260200191508051906020019080838360005b838110156147095780820151818401526020810190506146ee565b50505050905090810190601f1680156147365780820380516001836020036101000a031916815260200191505b5095505050505050604051602081830303815290604052907bffffffffffffffffffffffffffffffffffffffffffffffffffffffff19166020820180517bffffffffffffffffffffffffffffffffffffffffffffffffffffffff838183161783525050505060405180606001604052806032815260200161580b603291398773ffffffffffffffffffffffffffffffffffffffff16614ac59092919063ffffffff16565b905060008180602001905160208110156147f357600080fd5b8101908080519060200190929190505050905063150b7a0260e01b7bffffffffffffffffffffffffffffffffffffffffffffffffffffffff1916817bffffffffffffffffffffffffffffffffffffffffffffffffffffffff191614925050505b949350505050565b600080836001016000848152602001908152602001600020541415905092915050565b6000808360010160008481526020019081526020016000205490506000811461495a57600060018203905060006001866000018054905003905060008660000182815481106148c957fe5b90600052602060002001549050808760000184815481106148e657fe5b906000526020600020018190555060018301876001016000838152602001908152602001600020819055508660000180548061491e57fe5b60019003818190600052602060002001600090559055866001016000878152602001908152602001600020600090556001945050505050614960565b60009150505b92915050565b60006149728383614add565b6149cb5782600001829080600181540180825580915050600190039060005260206000200160009091909190915055826000018054905083600101600084815260200190815260200160002081905550600190506149d0565b600090505b92915050565b6000808460010160008581526020019081526020016000205490506000811415614a7d57846000016040518060400160405280868152602001858152509080600181540180825580915050600190039060005260206000209060020201600090919091909150600082015181600001556020820151816001015550508460000180549050856001016000868152602001908152602001600020819055506001915050614aab565b82856000016001830381548110614a9057fe5b90600052602060002090600202016001018190555060009150505b9392505050565b600080823b905060008111915050919050565b6060614ad48484600085614b00565b90509392505050565b600080836001016000848152602001908152602001600020541415905092915050565b606082471015614b5b576040517f08c379a00000000000000000000000000000000000000000000000000000000081526004018080602001828103825260268152602001806158616026913960400191505060405180910390fd5b614b6485614ab2565b614bd6576040517f08c379a000000000000000000000000000000000000000000000000000000000815260040180806020018281038252601d8152602001807f416464726573733a2063616c6c20746f206e6f6e2d636f6e747261637400000081525060200191505060405180910390fd5b6000808673ffffffffffffffffffffffffffffffffffffffff1685876040518082805190602001908083835b60208310614c255780518252602082019150602081019050602083039250614c02565b6001836020036101000a03801982511681845116808217855250505050505090500191505060006040518083038185875af1925050503d8060008114614c87576040519150601f19603f3d011682016040523d82523d6000602084013e614c8c565b606091505b5091509150614c9c828286614ca8565b92505050949350505050565b60608315614cb857829050614d6d565b600083511115614ccb5782518084602001fd5b816040517f08c379a00000000000000000000000000000000000000000000000000000000081526004018080602001828103825283818151815260200191508051906020019080838360005b83811015614d32578082015181840152602081019050614d17565b50505050905090810190601f168015614d5f5780820380516001836020036101000a031916815260200191505b509250505060405180910390fd5b9392505050565b828054600181600116156101000203166002900490600052602060002090601f016020900481019282614daa5760008555614df1565b82601f10614dc357805160ff1916838001178555614df1565b82800160010185558215614df1579182015b82811115614df0578251825591602001919060010190614dd5565b5b509050614dfe9190614e02565b5090565b5b80821115614e1b576000816000905550600101614e03565b5090565b6000614e32614e2d8461562a565b6155f9565b905082815260208101848484011115614e4a57600080fd5b614e55848285615737565b509392505050565b6000614e70614e6b8461565a565b6155f9565b905082815260208101848484011115614e8857600080fd5b614e93848285615737565b509392505050565b600081359050614eaa8161578c565b92915050565b60008083601f840112614ec257600080fd5b8235905067ffffffffffffffff811115614edb57600080fd5b602083019150836020820283011115614ef357600080fd5b9250929050565b600081359050614f09816157a3565b92915050565b600081359050614f1e816157ba565b92915050565b600082601f830112614f3557600080fd5b8135614f45848260208601614e1f565b91505092915050565b600082601f830112614f5f57600080fd5b8135614f6f848260208601614e5d565b91505092915050565b600081359050614f87816157d1565b92915050565b600060208284031215614f9f57600080fd5b6000614fad84828501614e9b565b91505092915050565b60008060408385031215614fc957600080fd5b6000614fd785828601614e9b565b9250506020614fe885828601614e9b565b9150509250929050565b60008060006060848603121561500757600080fd5b600061501586828701614e9b565b935050602061502686828701614e9b565b925050604061503786828701614f78565b9150509250925092565b6000806000806080858703121561505757600080fd5b600061506587828801614e9b565b945050602061507687828801614e9b565b935050604061508787828801614f78565b925050606085013567ffffffffffffffff8111156150a457600080fd5b6150b087828801614f24565b91505092959194509250565b600080604083850312156150cf57600080fd5b60006150dd85828601614e9b565b92505060206150ee85828601614efa565b9150509250929050565b6000806040838503121561510b57600080fd5b600061511985828601614e9b565b925050602061512a85828601614f78565b9150509250929050565b60006020828403121561514657600080fd5b600061515484828501614f0f565b91505092915050565b60006020828403121561516f57600080fd5b600082013567ffffffffffffffff81111561518957600080fd5b61519584828501614f4e565b91505092915050565b600080604083850312156151b157600080fd5b600083013567ffffffffffffffff8111156151cb57600080fd5b6151d785828601614f4e565b925050602083013567ffffffffffffffff8111156151f457600080fd5b61520085828601614f4e565b9150509250929050565b600080600080600080600060c0888a03121561522557600080fd5b600088013567ffffffffffffffff81111561523f57600080fd5b61524b8a828b01614f4e565b975050602088013567ffffffffffffffff81111561526857600080fd5b6152748a828b01614f4e565b96505060406152858a828b01614f78565b955050606088013567ffffffffffffffff8111156152a257600080fd5b6152ae8a828b01614eb0565b9450945050608088013567ffffffffffffffff8111156152cd57600080fd5b6152d98a828b01614f4e565b92505060a06152ea8a828b01614f78565b91505092959891949750929550565b60006020828403121561530b57600080fd5b600061531984828501614f78565b91505092915050565b6000806040838503121561533557600080fd5b600061534385828601614f78565b925050602061535485828601614f78565b9150509250929050565b615367816156c3565b82525050565b615376816156b1565b82525050565b615385816156d5565b82525050565b600061539783856156a6565b93506153a4838584615737565b82840190509392505050565b60006153bb8261568a565b6153c58185615695565b93506153d5818560208601615746565b6153de8161577b565b840191505092915050565b60006153f48261568a565b6153fe81856156a6565b935061540e818560208601615746565b80840191505092915050565b6154238161572d565b82525050565b600061543682848661538b565b91508190509392505050565b600061544e82846153e9565b915081905092915050565b600060208201905061546e600083018461536d565b92915050565b6000602082019050615489600083018461537c565b92915050565b600060208201905081810360008301526154a981846153b0565b905092915050565b60006020820190506154c6600083018461541a565b92915050565b6000610180820190506154e2600083018f61541a565b81810360208301526154f4818e6153b0565b90508181036040830152615508818d6153b0565b9050615517606083018c61535e565b615524608083018b61535e565b61553160a083018a61535e565b61553e60c083018961541a565b81810360e083015261555081886153b0565b905081810361010083015261556581876153b0565b905061557561012083018661541a565b61558361014083018561541a565b61559161016083018461537c565b9d9c50505050505050505050505050565b600080833560016020038436030381126155bb57600080fd5b80840192508235915067ffffffffffffffff8211156155d957600080fd5b6020830192506001820236038313156155f157600080fd5b509250929050565b6000604051905081810181811067ffffffffffffffff821117156156205761561f615779565b5b8060405250919050565b600067ffffffffffffffff82111561564557615644615779565b5b601f19601f8301169050602081019050919050565b600067ffffffffffffffff82111561567557615674615779565b5b601f19601f8301169050602081019050919050565b600081519050919050565b600082825260208201905092915050565b600081905092915050565b60006156bc8261570d565b9050919050565b60006156ce8261570d565b9050919050565b60008115159050919050565b60007fffffffff0000000000000000000000000000000000000000000000000000000082169050919050565b600073ffffffffffffffffffffffffffffffffffffffff82169050919050565b6000819050919050565b82818337600083830152505050565b60005b83811015615764578082015181840152602081019050615749565b83811115615773576000848401525b50505050565bfe5b6000601f19601f8301169050919050565b615795816156b1565b81146157a057600080fd5b50565b6157ac816156d5565b81146157b757600080fd5b50565b6157c3816156e1565b81146157ce57600080fd5b50565b6157da8161572d565b81146157e557600080fd5b5056fe456e756d657261626c655365743a20696e646578206f7574206f6620626f756e64734552433732313a207472616e7366657220746f206e6f6e20455243373231526563656976657220696d706c656d656e7465724552433732313a207472616e7366657220746f20746865207a65726f2061646472657373416464726573733a20696e73756666696369656e742062616c616e636520666f722063616c6c4552433732313a206f70657261746f7220717565727920666f72206e6f6e6578697374656e7420746f6b656e4552433732313a20617070726f76652063616c6c6572206973206e6f74206f776e6572206e6f7220617070726f76656420666f7220616c6c4552433732313a2062616c616e636520717565727920666f7220746865207a65726f20616464726573734552433732313a206f776e657220717565727920666f72206e6f6e6578697374656e7420746f6b656e456e756d657261626c654d61703a20696e646578206f7574206f6620626f756e64734552433732313a20617070726f76656420717565727920666f72206e6f6e6578697374656e7420746f6b656e4552433732314d657461646174613a2055524920736574206f66206e6f6e6578697374656e7420746f6b656e4552433732313a207472616e73666572206f6620746f6b656e2074686174206973206e6f74206f776e4552433732314d657461646174613a2055524920717565727920666f72206e6f6e6578697374656e7420746f6b656e4552433732313a20617070726f76616c20746f2063757272656e74206f776e65724552433732313a207472616e736665722063616c6c6572206973206e6f74206f776e6572206e6f7220617070726f766564a26469706673582212207a54c380ce0cc4c7994fee814b4183c7c3d8803deb562816994f81ba9eadcaab64736f6c63430007060033",
  "immutableReferences": {},
  "source": "// SPDX-License-Identifier: MIT\r\npragma solidity >=0.4.21 <0.8.0;\r\npragma abicoder v2;\r\n\r\n// ERC721\r\nimport \"./ERC721.sol\";\r\n\r\n//OwnedEverythings  ERC721 \r\ncontract OwnedEverythings is ERC721 {\r\n\r\n    //\r\n    string public collectionName;\r\n    //\r\n    string public collectionNameSymbol;\r\n    //\r\n    uint256 public ownedeverythingCounter;\r\n\r\n    string constant sepStr = \",\";\r\n\r\n    // \r\n    struct ownedeverything {\r\n        uint256 tokenId;\r\n        string tokenName;\r\n        string tokenURI;\r\n        address payable mintedBy;\r\n        address payable currentOwner;\r\n        address payable previousOwner;\r\n        uint256 currentOwnerId;\r\n        string _timestamp;\r\n        string _traceAddresses;\r\n        uint256 price;\r\n        uint256 numberOfTransfers;\r\n        bool forSale;\r\n    }\r\n\r\n    // id=>\r\n    mapping(uint256 => ownedeverything) public allOwnedEverythings;\r\n    // \r\n    mapping(string => bool) public colorExists;\r\n    // url\r\n    mapping(string => bool) public tokenURIExists;\r\n\r\n    // \r\n    constructor() ERC721(\"OwnedEverythings\", \"OW_EThing\") {\r\n        collectionName = name();\r\n        collectionNameSymbol = symbol();\r\n    }\r\n\r\n    // \r\n    function isEqual(string memory a, string memory b) public pure returns (bool) {\r\n        bytes memory aa = bytes(a);\r\n        bytes memory bb = bytes(b);\r\n        // \r\n        if (aa.length != bb.length) return false;\r\n        // \r\n        for (uint i = 0; i < aa.length; i ++) {\r\n            if (aa[i] != bb[i]) return false;\r\n        }\r\n        return true;\r\n    }\r\n\r\n    // \r\n    function strConcat(string memory _a, string memory _b, string memory _c) internal pure returns (string memory){\r\n        bytes memory _ba = bytes(_a);\r\n        bytes memory _bb = bytes(_b);\r\n        bytes memory _bc = bytes(_c);\r\n        string memory ret = new string(_ba.length + _bb.length + _bc.length);\r\n        bytes memory bret = bytes(ret);\r\n        uint k = 0;\r\n        for (uint i = 0; i < _ba.length; i++) bret[k++] = _ba[i];\r\n        for (uint i = 0; i < _bb.length; i++) bret[k++] = _bb[i];\r\n        for (uint i = 0; i < _bc.length; i++) bret[k++] = _bc[i];\r\n        return string(ret);\r\n    }\r\n\r\n    //num represents a number from 0-15 and returns ascii representing [0-9A-Fa-f]\r\n    function encode(uint8 num) private pure returns (byte){\r\n        //0-9 -> 0-9\r\n        if (num >= 0 && num <= 9) {\r\n            return byte(num + 48);\r\n        }\r\n        //10-15 -> a-f\r\n        return byte(num + 87);\r\n    }\r\n\r\n\r\n    function addressToString(address addr) internal pure returns (string memory){\r\n        //Convert addr to bytes\r\n        bytes20 value = bytes20(uint160(addr));\r\n        bytes memory strBytes = new bytes(42);\r\n        //Encode hex prefix\r\n        strBytes[0] = '0';\r\n        strBytes[1] = 'x';\r\n        //Encode bytes usig hex encoding\r\n        for (uint i = 0; i < 20; i++) {\r\n            uint8 byteValue = uint8(value[i]);\r\n            strBytes[2 + (i << 1)] = encode((byteValue >> 4) & 0x0f);\r\n            strBytes[3 + (i << 1)] = encode(byteValue & 0x0f);\r\n        }\r\n        return string(strBytes);\r\n    }\r\n\r\n\r\n    function uintToString(uint256 value) internal pure returns (string memory) {\r\n        // Inspired by OraclizeAPI's implementation - MIT licence\r\n        // https://github.com/oraclize/ethereum-api/blob/b42146b063c7d6ee1358846c198246239e9360e8/oraclizeAPI_0.4.25.sol\r\n\r\n        if (value == 0) {\r\n            return \"0\";\r\n        }\r\n        uint256 temp = value;\r\n        uint256 digits;\r\n        while (temp != 0) {\r\n            digits++;\r\n            temp /= 10;\r\n        }\r\n        bytes memory buffer = new bytes(digits);\r\n        uint256 index = digits - 1;\r\n        temp = value;\r\n        while (temp != 0) {\r\n            buffer[index--] = byte(uint8(48 + temp % 10));\r\n            temp /= 10;\r\n        }\r\n        return string(buffer);\r\n    }\r\n\r\n\r\n    // \r\n    function mintownedeverything(string memory _name, string memory _tokenURI, uint256 _price, string[] calldata _colors, string memory _tokenType, uint256 _userId) external {\r\n        // \r\n        require(msg.sender != address(0));\r\n        // \r\n        ownedeverythingCounter ++;\r\n        //  id => \r\n        require(!_exists(ownedeverythingCounter));\r\n\r\n        uint i = 0;\r\n        if (isEqual(_tokenType,'color')){\r\n            // \r\n            for (i=0; i < _colors.length; i++) {\r\n                require(!colorExists[_colors[i]]);\r\n            }\r\n        }\r\n\r\n        //  URI \r\n        require(!tokenURIExists[_tokenURI]);\r\n\r\n        // \r\n        _mint(msg.sender, ownedeverythingCounter);\r\n        //  URI ID  URI \r\n        _setTokenURI(ownedeverythingCounter, _tokenURI);\r\n\r\n        if (isEqual(_tokenType, 'color')) {\r\n            // \r\n            for (i = 0; i < _colors.length; i++) {\r\n                colorExists[_colors[i]] = true;\r\n            }\r\n        }\r\n        //  URI \r\n        tokenURIExists[_tokenURI] = true;\r\n\r\n        // \r\n        allOwnedEverythings[ownedeverythingCounter] = ownedeverything(\r\n            ownedeverythingCounter,\r\n            _name,\r\n            _tokenURI,\r\n            msg.sender,\r\n            msg.sender,\r\n            address(0),\r\n            _userId,\r\n            uintToString(block.timestamp),\r\n            addressToString(msg.sender),\r\n            _price,\r\n            0,\r\n            true);\r\n    }\r\n\r\n    // \r\n    function getTokenOwner(uint256 _tokenId) public view returns (address) {\r\n        address _tokenOwner = ownerOf(_tokenId);\r\n        return _tokenOwner;\r\n    }\r\n\r\n    // \r\n    function getTokenMetaData(uint _tokenId) public view returns (string memory) {\r\n        string memory tokenMetaData = tokenURI(_tokenId);\r\n        return tokenMetaData;\r\n    }\r\n\r\n    // \r\n    function getNumberOfTokensMinted() public view returns (uint256) {\r\n        uint256 totalNumberOfTokensMinted = totalSupply();\r\n        return totalNumberOfTokensMinted;\r\n    }\r\n\r\n    // \r\n    function getTotalNumberOfTokensOwnedByAnAddress(address _owner) public view returns (uint256) {\r\n        uint256 totalNumberOfTokensOwned = balanceOf(_owner);\r\n        return totalNumberOfTokensOwned;\r\n    }\r\n\r\n    // \r\n    function getTokenExists(uint256 _tokenId) public view returns (bool) {\r\n        bool tokenExists = _exists(_tokenId);\r\n        return tokenExists;\r\n    }\r\n\r\n    //  id\r\n    function buyToken(uint256 _tokenId,uint256 _userId) public payable {\r\n        // \r\n        require(msg.sender != address(0));\r\n        // id\r\n        require(_exists(_tokenId));\r\n        // \r\n        address tokenOwner = ownerOf(_tokenId);\r\n        // \r\n        require(tokenOwner != address(0));\r\n        // \r\n        require(tokenOwner != msg.sender);\r\n        //  (struct => ownedeverything) \r\n        ownedeverything memory ownedeverything = allOwnedEverythings[_tokenId];\r\n        // \r\n        require(msg.value >= ownedeverything.price);\r\n        // \r\n        require(ownedeverything.forSale);\r\n        // \r\n        _transfer(tokenOwner, msg.sender, _tokenId);\r\n        // \r\n        address payable sendTo = ownedeverything.currentOwner;\r\n        // \r\n        sendTo.transfer(msg.value);\r\n        // \r\n        ownedeverything.previousOwner = ownedeverything.currentOwner;\r\n        // \r\n        ownedeverything.currentOwner = msg.sender;\r\n        ownedeverything.currentOwnerId = _userId;\r\n        // \r\n        ownedeverything._timestamp = strConcat(allOwnedEverythings[_tokenId]._timestamp, ',', uintToString(block.timestamp));\r\n        // \r\n        ownedeverything._traceAddresses = strConcat(allOwnedEverythings[_tokenId]._traceAddresses, ',', addressToString(msg.sender));\r\n        // \r\n        ownedeverything.numberOfTransfers += 1;\r\n        // \r\n        allOwnedEverythings[_tokenId] = ownedeverything;\r\n    }\r\n\r\n    //    \r\n    function changeTokenPrice(uint256 _tokenId, uint256 _newPrice) public {\r\n        // require caller of the function is not an empty address\r\n        require(msg.sender != address(0));\r\n        // require that token should exist\r\n        require(_exists(_tokenId));\r\n        // get the token's owner\r\n        address tokenOwner = ownerOf(_tokenId);\r\n        // check that token's owner should be equal to the caller of the function\r\n        require(tokenOwner == msg.sender);\r\n        // get that token from all crypto boys mapping and create a memory of it defined as (struct => ownedeverything)\r\n        ownedeverything memory ownedeverything = allOwnedEverythings[_tokenId];\r\n        // update token's price with new price\r\n        ownedeverything.price = _newPrice;\r\n        // set and update that token in the mapping\r\n        allOwnedEverythings[_tokenId] = ownedeverything;\r\n    }\r\n\r\n    // \r\n    function toggleForSale(uint256 _tokenId) public {\r\n        // require caller of the function is not an empty address\r\n        require(msg.sender != address(0));\r\n        // require that token should exist\r\n        require(_exists(_tokenId));\r\n        // get the token's owner\r\n        address tokenOwner = ownerOf(_tokenId);\r\n        // check that token's owner should be equal to the caller of the function\r\n        require(tokenOwner == msg.sender);\r\n        // get that token from all crypto boys mapping and create a memory of it defined as (struct => ownedeverything)\r\n        ownedeverything memory ownedeverything = allOwnedEverythings[_tokenId];\r\n        // if token's forSale is false make it true and vice versa\r\n        if (ownedeverything.forSale) {\r\n            ownedeverything.forSale = false;\r\n        } else {\r\n            ownedeverything.forSale = true;\r\n        }\r\n        // set and update that token in the mapping\r\n        allOwnedEverythings[_tokenId] = ownedeverything;\r\n    }\r\n}",
  "sourcePath": "C:\\Users\\THINK\\Desktop\\nft-marketplace\\user-client_final\\src\\contracts\\OwnedEverythings.sol",
  "compiler": {
    "name": "solc",
    "version": "0.7.6+commit.7338295f.Emscripten.clang"
  },
  "schemaVersion": "3.4.5",
  "updatedAt": "2022-05-05T11:36:52.722Z",
  "networkType": "ethereum",
  "devdoc": {
    "kind": "dev",
    "methods": {
      "approve(address,uint256)": {
        "details": "See {IERC721-approve}."
      },
      "balanceOf(address)": {
        "details": "See {IERC721-balanceOf}."
      },
      "baseURI()": {
        "details": "Returns the base URI set via {_setBaseURI}. This will be automatically added as a prefix in {tokenURI} to each token's URI, or to the token ID if no specific URI is set for that token ID."
      },
      "getApproved(uint256)": {
        "details": "See {IERC721-getApproved}."
      },
      "isApprovedForAll(address,address)": {
        "details": "See {IERC721-isApprovedForAll}."
      },
      "name()": {
        "details": "See {IERC721Metadata-name}."
      },
      "ownerOf(uint256)": {
        "details": "See {IERC721-ownerOf}."
      },
      "safeTransferFrom(address,address,uint256)": {
        "details": "See {IERC721-safeTransferFrom}."
      },
      "safeTransferFrom(address,address,uint256,bytes)": {
        "details": "See {IERC721-safeTransferFrom}."
      },
      "setApprovalForAll(address,bool)": {
        "details": "See {IERC721-setApprovalForAll}."
      },
      "supportsInterface(bytes4)": {
        "details": "See {IERC165-supportsInterface}. Time complexity O(1), guaranteed to always use less than 30 000 gas."
      },
      "symbol()": {
        "details": "See {IERC721Metadata-symbol}."
      },
      "tokenByIndex(uint256)": {
        "details": "See {IERC721Enumerable-tokenByIndex}."
      },
      "tokenOfOwnerByIndex(address,uint256)": {
        "details": "See {IERC721Enumerable-tokenOfOwnerByIndex}."
      },
      "tokenURI(uint256)": {
        "details": "See {IERC721Metadata-tokenURI}."
      },
      "totalSupply()": {
        "details": "See {IERC721Enumerable-totalSupply}."
      },
      "transferFrom(address,address,uint256)": {
        "details": "See {IERC721-transferFrom}."
      }
    },
    "version": 1
  },
  "userdoc": {
    "kind": "user",
    "methods": {},
    "version": 1
  }
}