{
  "contractName": "OwnedEverythings",
  "abi": [
    {
      "inputs": [],
      "stateMutability": "nonpayable",
      "type": "constructor"
    },
    {
      "anonymous": false,
      "inputs": [
        {
          "indexed": true,
          "internalType": "address",
          "name": "owner",
          "type": "address"
        },
        {
          "indexed": true,
          "internalType": "address",
          "name": "approved",
          "type": "address"
        },
        {
          "indexed": true,
          "internalType": "uint256",
          "name": "tokenId",
          "type": "uint256"
        }
      ],
      "name": "Approval",
      "type": "event"
    },
    {
      "anonymous": false,
      "inputs": [
        {
          "indexed": true,
          "internalType": "address",
          "name": "owner",
          "type": "address"
        },
        {
          "indexed": true,
          "internalType": "address",
          "name": "operator",
          "type": "address"
        },
        {
          "indexed": false,
          "internalType": "bool",
          "name": "approved",
          "type": "bool"
        }
      ],
      "name": "ApprovalForAll",
      "type": "event"
    },
    {
      "anonymous": false,
      "inputs": [
        {
          "indexed": true,
          "internalType": "address",
          "name": "from",
          "type": "address"
        },
        {
          "indexed": true,
          "internalType": "address",
          "name": "to",
          "type": "address"
        },
        {
          "indexed": true,
          "internalType": "uint256",
          "name": "tokenId",
          "type": "uint256"
        }
      ],
      "name": "Transfer",
      "type": "event"
    },
    {
      "inputs": [
        {
          "internalType": "uint256",
          "name": "",
          "type": "uint256"
        }
      ],
      "name": "allOwnedEverythings",
      "outputs": [
        {
          "internalType": "uint256",
          "name": "tokenId",
          "type": "uint256"
        },
        {
          "internalType": "string",
          "name": "tokenName",
          "type": "string"
        },
        {
          "internalType": "string",
          "name": "tokenURI",
          "type": "string"
        },
        {
          "internalType": "address payable",
          "name": "mintedBy",
          "type": "address"
        },
        {
          "internalType": "address payable",
          "name": "currentOwner",
          "type": "address"
        },
        {
          "internalType": "address payable",
          "name": "previousOwner",
          "type": "address"
        },
        {
          "internalType": "uint256",
          "name": "price",
          "type": "uint256"
        },
        {
          "internalType": "uint256",
          "name": "numberOfTransfers",
          "type": "uint256"
        },
        {
          "internalType": "bool",
          "name": "forSale",
          "type": "bool"
        }
      ],
      "stateMutability": "view",
      "type": "function",
      "constant": true
    },
    {
      "inputs": [
        {
          "internalType": "address",
          "name": "to",
          "type": "address"
        },
        {
          "internalType": "uint256",
          "name": "tokenId",
          "type": "uint256"
        }
      ],
      "name": "approve",
      "outputs": [],
      "stateMutability": "nonpayable",
      "type": "function"
    },
    {
      "inputs": [
        {
          "internalType": "address",
          "name": "owner",
          "type": "address"
        }
      ],
      "name": "balanceOf",
      "outputs": [
        {
          "internalType": "uint256",
          "name": "",
          "type": "uint256"
        }
      ],
      "stateMutability": "view",
      "type": "function",
      "constant": true
    },
    {
      "inputs": [],
      "name": "baseURI",
      "outputs": [
        {
          "internalType": "string",
          "name": "",
          "type": "string"
        }
      ],
      "stateMutability": "view",
      "type": "function",
      "constant": true
    },
    {
      "inputs": [],
      "name": "collectionName",
      "outputs": [
        {
          "internalType": "string",
          "name": "",
          "type": "string"
        }
      ],
      "stateMutability": "view",
      "type": "function",
      "constant": true
    },
    {
      "inputs": [],
      "name": "collectionNameSymbol",
      "outputs": [
        {
          "internalType": "string",
          "name": "",
          "type": "string"
        }
      ],
      "stateMutability": "view",
      "type": "function",
      "constant": true
    },
    {
      "inputs": [
        {
          "internalType": "string",
          "name": "",
          "type": "string"
        }
      ],
      "name": "colorExists",
      "outputs": [
        {
          "internalType": "bool",
          "name": "",
          "type": "bool"
        }
      ],
      "stateMutability": "view",
      "type": "function",
      "constant": true
    },
    {
      "inputs": [
        {
          "internalType": "uint256",
          "name": "tokenId",
          "type": "uint256"
        }
      ],
      "name": "getApproved",
      "outputs": [
        {
          "internalType": "address",
          "name": "",
          "type": "address"
        }
      ],
      "stateMutability": "view",
      "type": "function",
      "constant": true
    },
    {
      "inputs": [
        {
          "internalType": "address",
          "name": "owner",
          "type": "address"
        },
        {
          "internalType": "address",
          "name": "operator",
          "type": "address"
        }
      ],
      "name": "isApprovedForAll",
      "outputs": [
        {
          "internalType": "bool",
          "name": "",
          "type": "bool"
        }
      ],
      "stateMutability": "view",
      "type": "function",
      "constant": true
    },
    {
      "inputs": [],
      "name": "name",
      "outputs": [
        {
          "internalType": "string",
          "name": "",
          "type": "string"
        }
      ],
      "stateMutability": "view",
      "type": "function",
      "constant": true
    },
    {
      "inputs": [],
      "name": "ownedeverythingCounter",
      "outputs": [
        {
          "internalType": "uint256",
          "name": "",
          "type": "uint256"
        }
      ],
      "stateMutability": "view",
      "type": "function",
      "constant": true
    },
    {
      "inputs": [
        {
          "internalType": "uint256",
          "name": "tokenId",
          "type": "uint256"
        }
      ],
      "name": "ownerOf",
      "outputs": [
        {
          "internalType": "address",
          "name": "",
          "type": "address"
        }
      ],
      "stateMutability": "view",
      "type": "function",
      "constant": true
    },
    {
      "inputs": [
        {
          "internalType": "address",
          "name": "from",
          "type": "address"
        },
        {
          "internalType": "address",
          "name": "to",
          "type": "address"
        },
        {
          "internalType": "uint256",
          "name": "tokenId",
          "type": "uint256"
        }
      ],
      "name": "safeTransferFrom",
      "outputs": [],
      "stateMutability": "nonpayable",
      "type": "function"
    },
    {
      "inputs": [
        {
          "internalType": "address",
          "name": "from",
          "type": "address"
        },
        {
          "internalType": "address",
          "name": "to",
          "type": "address"
        },
        {
          "internalType": "uint256",
          "name": "tokenId",
          "type": "uint256"
        },
        {
          "internalType": "bytes",
          "name": "_data",
          "type": "bytes"
        }
      ],
      "name": "safeTransferFrom",
      "outputs": [],
      "stateMutability": "nonpayable",
      "type": "function"
    },
    {
      "inputs": [
        {
          "internalType": "address",
          "name": "operator",
          "type": "address"
        },
        {
          "internalType": "bool",
          "name": "approved",
          "type": "bool"
        }
      ],
      "name": "setApprovalForAll",
      "outputs": [],
      "stateMutability": "nonpayable",
      "type": "function"
    },
    {
      "inputs": [
        {
          "internalType": "bytes4",
          "name": "interfaceId",
          "type": "bytes4"
        }
      ],
      "name": "supportsInterface",
      "outputs": [
        {
          "internalType": "bool",
          "name": "",
          "type": "bool"
        }
      ],
      "stateMutability": "view",
      "type": "function",
      "constant": true
    },
    {
      "inputs": [],
      "name": "symbol",
      "outputs": [
        {
          "internalType": "string",
          "name": "",
          "type": "string"
        }
      ],
      "stateMutability": "view",
      "type": "function",
      "constant": true
    },
    {
      "inputs": [
        {
          "internalType": "uint256",
          "name": "index",
          "type": "uint256"
        }
      ],
      "name": "tokenByIndex",
      "outputs": [
        {
          "internalType": "uint256",
          "name": "",
          "type": "uint256"
        }
      ],
      "stateMutability": "view",
      "type": "function",
      "constant": true
    },
    {
      "inputs": [
        {
          "internalType": "address",
          "name": "owner",
          "type": "address"
        },
        {
          "internalType": "uint256",
          "name": "index",
          "type": "uint256"
        }
      ],
      "name": "tokenOfOwnerByIndex",
      "outputs": [
        {
          "internalType": "uint256",
          "name": "",
          "type": "uint256"
        }
      ],
      "stateMutability": "view",
      "type": "function",
      "constant": true
    },
    {
      "inputs": [
        {
          "internalType": "uint256",
          "name": "tokenId",
          "type": "uint256"
        }
      ],
      "name": "tokenURI",
      "outputs": [
        {
          "internalType": "string",
          "name": "",
          "type": "string"
        }
      ],
      "stateMutability": "view",
      "type": "function",
      "constant": true
    },
    {
      "inputs": [
        {
          "internalType": "string",
          "name": "",
          "type": "string"
        }
      ],
      "name": "tokenURIExists",
      "outputs": [
        {
          "internalType": "bool",
          "name": "",
          "type": "bool"
        }
      ],
      "stateMutability": "view",
      "type": "function",
      "constant": true
    },
    {
      "inputs": [],
      "name": "totalSupply",
      "outputs": [
        {
          "internalType": "uint256",
          "name": "",
          "type": "uint256"
        }
      ],
      "stateMutability": "view",
      "type": "function",
      "constant": true
    },
    {
      "inputs": [
        {
          "internalType": "address",
          "name": "from",
          "type": "address"
        },
        {
          "internalType": "address",
          "name": "to",
          "type": "address"
        },
        {
          "internalType": "uint256",
          "name": "tokenId",
          "type": "uint256"
        }
      ],
      "name": "transferFrom",
      "outputs": [],
      "stateMutability": "nonpayable",
      "type": "function"
    },
    {
      "inputs": [
        {
          "internalType": "string",
          "name": "a",
          "type": "string"
        },
        {
          "internalType": "string",
          "name": "b",
          "type": "string"
        }
      ],
      "name": "isEqual",
      "outputs": [
        {
          "internalType": "bool",
          "name": "",
          "type": "bool"
        }
      ],
      "stateMutability": "pure",
      "type": "function",
      "constant": true
    },
    {
      "inputs": [
        {
          "internalType": "string",
          "name": "_name",
          "type": "string"
        },
        {
          "internalType": "string",
          "name": "_tokenURI",
          "type": "string"
        },
        {
          "internalType": "uint256",
          "name": "_price",
          "type": "uint256"
        },
        {
          "internalType": "string[]",
          "name": "_colors",
          "type": "string[]"
        },
        {
          "internalType": "string",
          "name": "_tokenType",
          "type": "string"
        }
      ],
      "name": "mintownedeverything",
      "outputs": [],
      "stateMutability": "nonpayable",
      "type": "function"
    },
    {
      "inputs": [
        {
          "internalType": "uint256",
          "name": "_tokenId",
          "type": "uint256"
        }
      ],
      "name": "getTokenOwner",
      "outputs": [
        {
          "internalType": "address",
          "name": "",
          "type": "address"
        }
      ],
      "stateMutability": "view",
      "type": "function",
      "constant": true
    },
    {
      "inputs": [
        {
          "internalType": "uint256",
          "name": "_tokenId",
          "type": "uint256"
        }
      ],
      "name": "getTokenMetaData",
      "outputs": [
        {
          "internalType": "string",
          "name": "",
          "type": "string"
        }
      ],
      "stateMutability": "view",
      "type": "function",
      "constant": true
    },
    {
      "inputs": [],
      "name": "getNumberOfTokensMinted",
      "outputs": [
        {
          "internalType": "uint256",
          "name": "",
          "type": "uint256"
        }
      ],
      "stateMutability": "view",
      "type": "function",
      "constant": true
    },
    {
      "inputs": [
        {
          "internalType": "address",
          "name": "_owner",
          "type": "address"
        }
      ],
      "name": "getTotalNumberOfTokensOwnedByAnAddress",
      "outputs": [
        {
          "internalType": "uint256",
          "name": "",
          "type": "uint256"
        }
      ],
      "stateMutability": "view",
      "type": "function",
      "constant": true
    },
    {
      "inputs": [
        {
          "internalType": "uint256",
          "name": "_tokenId",
          "type": "uint256"
        }
      ],
      "name": "getTokenExists",
      "outputs": [
        {
          "internalType": "bool",
          "name": "",
          "type": "bool"
        }
      ],
      "stateMutability": "view",
      "type": "function",
      "constant": true
    },
    {
      "inputs": [
        {
          "internalType": "uint256",
          "name": "_tokenId",
          "type": "uint256"
        }
      ],
      "name": "buyToken",
      "outputs": [],
      "stateMutability": "payable",
      "type": "function",
      "payable": true
    },
    {
      "inputs": [
        {
          "internalType": "uint256",
          "name": "_tokenId",
          "type": "uint256"
        },
        {
          "internalType": "uint256",
          "name": "_newPrice",
          "type": "uint256"
        }
      ],
      "name": "changeTokenPrice",
      "outputs": [],
      "stateMutability": "nonpayable",
      "type": "function"
    },
    {
      "inputs": [
        {
          "internalType": "uint256",
          "name": "_tokenId",
          "type": "uint256"
        }
      ],
      "name": "toggleForSale",
      "outputs": [],
      "stateMutability": "nonpayable",
      "type": "function"
    }
  ],
  "bytecode": "0x60806040523480156200001157600080fd5b506040518060400160405280601081526020017f4f776e656445766572797468696e6773000000000000000000000000000000008152506040518060400160405280600981526020017f4f575f455468696e670000000000000000000000000000000000000000000000815250620000966301ffc9a760e01b6200016860201b60201c565b8160069080519060200190620000ae929190620003bd565b508060079080519060200190620000c7929190620003bd565b50620000e06380ac58cd60e01b6200016860201b60201c565b620000f8635b5e139f60e01b6200016860201b60201c565b6200011063780e9d6360e01b6200016860201b60201c565b5050620001226200027160201b60201c565b600a908051906020019062000139929190620003bd565b506200014a6200031760201b60201c565b600b908051906020019062000161929190620003bd565b5062000473565b63ffffffff60e01b817bffffffffffffffffffffffffffffffffffffffffffffffffffffffff1916141562000205576040517f08c379a000000000000000000000000000000000000000000000000000000000815260040180806020018281038252601c8152602001807f4552433136353a20696e76616c696420696e746572666163652069640000000081525060200191505060405180910390fd5b6001600080837bffffffffffffffffffffffffffffffffffffffffffffffffffffffff19167bffffffffffffffffffffffffffffffffffffffffffffffffffffffff1916815260200190815260200160002060006101000a81548160ff02191690831515021790555050565b606060068054600181600116156101000203166002900480601f0160208091040260200160405190810160405280929190818152602001828054600181600116156101000203166002900480156200030d5780601f10620002e1576101008083540402835291602001916200030d565b820191906000526020600020905b815481529060010190602001808311620002ef57829003601f168201915b5050505050905090565b606060078054600181600116156101000203166002900480601f016020809104026020016040519081016040528092919081815260200182805460018160011615610100020316600290048015620003b35780601f106200038757610100808354040283529160200191620003b3565b820191906000526020600020905b8154815290600101906020018083116200039557829003601f168201915b5050505050905090565b828054600181600116156101000203166002900490600052602060002090601f016020900481019282620003f5576000855562000441565b82601f106200041057805160ff191683800117855562000441565b8280016001018555821562000441579182015b828111156200044057825182559160200191906001019062000423565b5b50905062000450919062000454565b5090565b5b808211156200046f57600081600090555060010162000455565b5090565b6152b980620004836000396000f3fe6080604052600436106101ee5760003560e01c806362e8e8ac1161010d578063a22cb465116100a0578063c87b56dd1161006f578063c87b56dd14610772578063cc151f3a146107af578063e5326ab1146107da578063e985e9c514610805578063f7c1c3f314610842576101ee565b8063a22cb465146106ba578063a32018b9146106e3578063a5cd761f1461070c578063b88d4fde14610749576101ee565b80636f9507f9116100dc5780636f9507f9146105ea57806370a08231146106155780638d44807c1461065257806395d89b411461068f576101ee565b806362e8e8ac1461051c5780636352211e1461054557806367c623cf146105825780636c0360eb146105bf576101ee565b80632d296bf11161018557806343d32ae71161015457806343d32ae71461043c578063465c4105146104795780634f6ccce7146104b6578063574858ed146104f3576101ee565b80632d296bf11461037d5780632f745c591461039957806342842e0e146103d657806343902850146103ff576101ee565b8063142687f3116101c1578063142687f3146102c157806318160ddd146102fe5780631f1985c31461032957806323b872dd14610354576101ee565b806301ffc9a7146101f357806306fdde0314610230578063081812fc1461025b578063095ea7b314610298575b600080fd5b3480156101ff57600080fd5b5061021a600480360381019061021591906149a6565b610887565b6040516102279190614cd1565b60405180910390f35b34801561023c57600080fd5b506102456108ee565b6040516102529190614cec565b60405180910390f35b34801561026757600080fd5b50610282600480360381019061027d9190614b56565b610990565b60405161028f9190614cb6565b60405180910390f35b3480156102a457600080fd5b506102bf60048036038101906102ba919061496a565b610a2b565b005b3480156102cd57600080fd5b506102e860048036038101906102e39190614b56565b610b6f565b6040516102f59190614cd1565b60405180910390f35b34801561030a57600080fd5b50610313610b86565b6040516103209190614d0e565b60405180910390f35b34801561033557600080fd5b5061033e610b97565b60405161034b9190614d0e565b60405180910390f35b34801561036057600080fd5b5061037b60048036038101906103769190614864565b610b9d565b005b61039760048036038101906103929190614b56565b610c13565b005b3480156103a557600080fd5b506103c060048036038101906103bb919061496a565b6113c4565b6040516103cd9190614d0e565b60405180910390f35b3480156103e257600080fd5b506103fd60048036038101906103f89190614864565b61141f565b005b34801561040b57600080fd5b50610426600480360381019061042191906147ff565b61143f565b6040516104339190614d0e565b60405180910390f35b34801561044857600080fd5b50610463600480360381019061045e91906149cf565b611456565b6040516104709190614cd1565b60405180910390f35b34801561048557600080fd5b506104a0600480360381019061049b9190614a10565b61148c565b6040516104ad9190614cd1565b60405180910390f35b3480156104c257600080fd5b506104dd60048036038101906104d89190614b56565b611555565b6040516104ea9190614d0e565b60405180910390f35b3480156104ff57600080fd5b5061051a60048036038101906105159190614a7c565b611578565b005b34801561052857600080fd5b50610543600480360381019061053e9190614b7f565b611b04565b005b34801561055157600080fd5b5061056c60048036038101906105679190614b56565b6120cf565b6040516105799190614cb6565b60405180910390f35b34801561058e57600080fd5b506105a960048036038101906105a49190614b56565b612106565b6040516105b69190614cec565b60405180910390f35b3480156105cb57600080fd5b506105d461211e565b6040516105e19190614cec565b60405180910390f35b3480156105f657600080fd5b506105ff6121c0565b60405161060c9190614cec565b60405180910390f35b34801561062157600080fd5b5061063c600480360381019061063791906147ff565b61225e565b6040516106499190614d0e565b60405180910390f35b34801561065e57600080fd5b50610679600480360381019061067491906149cf565b612333565b6040516106869190614cd1565b60405180910390f35b34801561069b57600080fd5b506106a4612369565b6040516106b19190614cec565b60405180910390f35b3480156106c657600080fd5b506106e160048036038101906106dc919061492e565b61240b565b005b3480156106ef57600080fd5b5061070a60048036038101906107059190614b56565b6125c1565b005b34801561071857600080fd5b50610733600480360381019061072e9190614b56565b612bb5565b6040516107409190614cb6565b60405180910390f35b34801561075557600080fd5b50610770600480360381019061076b91906148b3565b612bcc565b005b34801561077e57600080fd5b5061079960048036038101906107949190614b56565b612c44565b6040516107a69190614cec565b60405180910390f35b3480156107bb57600080fd5b506107c4612f15565b6040516107d19190614d0e565b60405180910390f35b3480156107e657600080fd5b506107ef612f29565b6040516107fc9190614cec565b60405180910390f35b34801561081157600080fd5b5061082c60048036038101906108279190614828565b612fc7565b6040516108399190614cd1565b60405180910390f35b34801561084e57600080fd5b5061086960048036038101906108649190614b56565b61305b565b60405161087e99989796959493929190614d29565b60405180910390f35b6000806000837bffffffffffffffffffffffffffffffffffffffffffffffffffffffff19167bffffffffffffffffffffffffffffffffffffffffffffffffffffffff1916815260200190815260200160002060009054906101000a900460ff169050919050565b606060068054600181600116156101000203166002900480601f0160208091040260200160405190810160405280929190818152602001828054600181600116156101000203166002900480156109865780601f1061095b57610100808354040283529160200191610986565b820191906000526020600020905b81548152906001019060200180831161096957829003601f168201915b5050505050905090565b600061099b82613246565b6109f0576040517f08c379a000000000000000000000000000000000000000000000000000000000815260040180806020018281038252602c815260200180615182602c913960400191505060405180910390fd5b6004600083815260200190815260200160002060009054906101000a900473ffffffffffffffffffffffffffffffffffffffff169050919050565b6000610a36826120cf565b90508073ffffffffffffffffffffffffffffffffffffffff168373ffffffffffffffffffffffffffffffffffffffff161415610abd576040517f08c379a00000000000000000000000000000000000000000000000000000000081526004018080602001828103825260218152602001806152326021913960400191505060405180910390fd5b8073ffffffffffffffffffffffffffffffffffffffff16610adc613263565b73ffffffffffffffffffffffffffffffffffffffff161480610b0b5750610b0a81610b05613263565b612fc7565b5b610b60576040517f08c379a00000000000000000000000000000000000000000000000000000000081526004018080602001828103825260388152602001806150d56038913960400191505060405180910390fd5b610b6a838361326b565b505050565b600080610b7b83613246565b905080915050919050565b6000610b926002613324565b905090565b600c5481565b610bae610ba8613263565b82613339565b610c03576040517f08c379a00000000000000000000000000000000000000000000000000000000081526004018080602001828103825260318152602001806152536031913960400191505060405180910390fd5b610c0e83838361342d565b505050565b600073ffffffffffffffffffffffffffffffffffffffff163373ffffffffffffffffffffffffffffffffffffffff161415610c4d57600080fd5b610c5681613246565b610c5f57600080fd5b6000610c6a826120cf565b9050600073ffffffffffffffffffffffffffffffffffffffff168173ffffffffffffffffffffffffffffffffffffffff161415610ca657600080fd5b3373ffffffffffffffffffffffffffffffffffffffff168173ffffffffffffffffffffffffffffffffffffffff161415610cdf57600080fd5b6000600d60008481526020019081526020016000206040518061016001604052908160008201548152602001600182018054600181600116156101000203166002900480601f016020809104026020016040519081016040528092919081815260200182805460018160011615610100020316600290048015610da35780601f10610d7857610100808354040283529160200191610da3565b820191906000526020600020905b815481529060010190602001808311610d8657829003601f168201915b50505050508152602001600282018054600181600116156101000203166002900480601f016020809104026020016040519081016040528092919081815260200182805460018160011615610100020316600290048015610e455780601f10610e1a57610100808354040283529160200191610e45565b820191906000526020600020905b815481529060010190602001808311610e2857829003601f168201915b505050505081526020016003820160009054906101000a900473ffffffffffffffffffffffffffffffffffffffff1673ffffffffffffffffffffffffffffffffffffffff1673ffffffffffffffffffffffffffffffffffffffff1681526020016004820160009054906101000a900473ffffffffffffffffffffffffffffffffffffffff1673ffffffffffffffffffffffffffffffffffffffff1673ffffffffffffffffffffffffffffffffffffffff1681526020016005820160009054906101000a900473ffffffffffffffffffffffffffffffffffffffff1673ffffffffffffffffffffffffffffffffffffffff1673ffffffffffffffffffffffffffffffffffffffff16815260200160068201805480602002602001604051908101604052809291908181526020018280548015610f9f57602002820191906000526020600020905b815481526020019060010190808311610f8b575b505050505081526020016007820180548060200260200160405190810160405280929190818152602001828054801561102d57602002820191906000526020600020905b8160009054906101000a900473ffffffffffffffffffffffffffffffffffffffff1673ffffffffffffffffffffffffffffffffffffffff1681526020019060010190808311610fe3575b505050505081526020016008820154815260200160098201548152602001600a820160009054906101000a900460ff161515151581525050905080610100015134101561107957600080fd5b80610140015161108857600080fd5b61109382338561342d565b6000816080015190508073ffffffffffffffffffffffffffffffffffffffff166108fc349081150290604051600060405180830381858888f193505050501580156110e2573d6000803e3d6000fd5b5081608001518260a0019073ffffffffffffffffffffffffffffffffffffffff16908173ffffffffffffffffffffffffffffffffffffffff168152505033826080019073ffffffffffffffffffffffffffffffffffffffff16908173ffffffffffffffffffffffffffffffffffffffff1681525050600d6000858152602001908152602001600020600601429080600181540180825580915050600190039060005260206000200160009091909190915055600d6000858152602001908152602001600020600701339080600181540180825580915050600190039060005260206000200160009091909190916101000a81548173ffffffffffffffffffffffffffffffffffffffff021916908373ffffffffffffffffffffffffffffffffffffffff16021790555060018261012001818151019150818152505081600d600086815260200190815260200160002060008201518160000155602082015181600101908051906020019061125792919061450f565b50604082015181600201908051906020019061127492919061450f565b5060608201518160030160006101000a81548173ffffffffffffffffffffffffffffffffffffffff021916908373ffffffffffffffffffffffffffffffffffffffff16021790555060808201518160040160006101000a81548173ffffffffffffffffffffffffffffffffffffffff021916908373ffffffffffffffffffffffffffffffffffffffff16021790555060a08201518160050160006101000a81548173ffffffffffffffffffffffffffffffffffffffff021916908373ffffffffffffffffffffffffffffffffffffffff16021790555060c082015181600601908051906020019061136692919061459d565b5060e08201518160070190805190602001906113839291906145ea565b506101008201518160080155610120820151816009015561014082015181600a0160006101000a81548160ff02191690831515021790555090505050505050565b600061141782600160008673ffffffffffffffffffffffffffffffffffffffff1673ffffffffffffffffffffffffffffffffffffffff16815260200190815260200160002061367090919063ffffffff16565b905092915050565b61143a83838360405180602001604052806000815250612bcc565b505050565b60008061144b8361225e565b905080915050919050565b600f818051602081018201805184825260208301602085012081835280955050505050506000915054906101000a900460ff1681565b600080839050600083905080518251146114ab5760009250505061154f565b60005b8251811015611547578181815181106114c357fe5b602001015160f81c60f81b7effffffffffffffffffffffffffffffffffffffffffffffffffffffffffffff19168382815181106114fc57fe5b602001015160f81c60f81b7effffffffffffffffffffffffffffffffffffffffffffffffffffffffffffff19161461153a576000935050505061154f565b80806001019150506114ae565b506001925050505b92915050565b60008061156c83600261368a90919063ffffffff16565b50905080915050919050565b600073ffffffffffffffffffffffffffffffffffffffff163373ffffffffffffffffffffffffffffffffffffffff1614156115b257600080fd5b600c600081548092919060010191905055506115cf600c54613246565b156115d957600080fd5b611618816040518060400160405280600581526020017f636f6c6f7200000000000000000000000000000000000000000000000000000081525061148c565b1561168e5760005b8383905081101561168c57600e84848381811061163957fe5b905060200281019061164b9190614dc4565b604051611659929190614c86565b908152602001604051809103902060009054906101000a900460ff161561167f57600080fd5b8080600101915050611620565b505b600f8560405161169e9190614c9f565b908152602001604051809103902060009054906101000a900460ff16156116c457600080fd5b6116d033600c546136b6565b6116dc600c54866138aa565b61171b816040518060400160405280600581526020017f636f6c6f7200000000000000000000000000000000000000000000000000000081525061148c565b156117925760005b83839050811015611790576001600e85858481811061173e57fe5b90506020028101906117509190614dc4565b60405161175e929190614c86565b908152602001604051809103902060006101000a81548160ff0219169083151502179055508080600101915050611723565b505b6001600f866040516117a49190614c9f565b908152602001604051809103902060006101000a81548160ff0219169083151502179055506000600167ffffffffffffffff811180156117e357600080fd5b506040519080825280602002602001820160405280156118125781602001602082028036833780820191505090505b509050428160008151811061182357fe5b6020026020010181815250506000600167ffffffffffffffff8111801561184957600080fd5b506040519080825280602002602001820160405280156118785781602001602082028036833780820191505090505b509050338160008151811061188957fe5b602002602001019073ffffffffffffffffffffffffffffffffffffffff16908173ffffffffffffffffffffffffffffffffffffffff1681525050604051806101600160405280600c5481526020018981526020018881526020013373ffffffffffffffffffffffffffffffffffffffff1681526020013373ffffffffffffffffffffffffffffffffffffffff168152602001600073ffffffffffffffffffffffffffffffffffffffff1681526020018381526020018281526020018781526020016000815260200160011515815250600d6000600c54815260200190815260200160002060008201518160000155602082015181600101908051906020019061199392919061450f565b5060408201518160020190805190602001906119b092919061450f565b5060608201518160030160006101000a81548173ffffffffffffffffffffffffffffffffffffffff021916908373ffffffffffffffffffffffffffffffffffffffff16021790555060808201518160040160006101000a81548173ffffffffffffffffffffffffffffffffffffffff021916908373ffffffffffffffffffffffffffffffffffffffff16021790555060a08201518160050160006101000a81548173ffffffffffffffffffffffffffffffffffffffff021916908373ffffffffffffffffffffffffffffffffffffffff16021790555060c0820151816006019080519060200190611aa292919061459d565b5060e0820151816007019080519060200190611abf9291906145ea565b506101008201518160080155610120820151816009015561014082015181600a0160006101000a81548160ff0219169083151502179055509050505050505050505050565b600073ffffffffffffffffffffffffffffffffffffffff163373ffffffffffffffffffffffffffffffffffffffff161415611b3e57600080fd5b611b4782613246565b611b5057600080fd5b6000611b5b836120cf565b90503373ffffffffffffffffffffffffffffffffffffffff168173ffffffffffffffffffffffffffffffffffffffff1614611b9557600080fd5b6000600d60008581526020019081526020016000206040518061016001604052908160008201548152602001600182018054600181600116156101000203166002900480601f016020809104026020016040519081016040528092919081815260200182805460018160011615610100020316600290048015611c595780601f10611c2e57610100808354040283529160200191611c59565b820191906000526020600020905b815481529060010190602001808311611c3c57829003601f168201915b50505050508152602001600282018054600181600116156101000203166002900480601f016020809104026020016040519081016040528092919081815260200182805460018160011615610100020316600290048015611cfb5780601f10611cd057610100808354040283529160200191611cfb565b820191906000526020600020905b815481529060010190602001808311611cde57829003601f168201915b505050505081526020016003820160009054906101000a900473ffffffffffffffffffffffffffffffffffffffff1673ffffffffffffffffffffffffffffffffffffffff1673ffffffffffffffffffffffffffffffffffffffff1681526020016004820160009054906101000a900473ffffffffffffffffffffffffffffffffffffffff1673ffffffffffffffffffffffffffffffffffffffff1673ffffffffffffffffffffffffffffffffffffffff1681526020016005820160009054906101000a900473ffffffffffffffffffffffffffffffffffffffff1673ffffffffffffffffffffffffffffffffffffffff1673ffffffffffffffffffffffffffffffffffffffff16815260200160068201805480602002602001604051908101604052809291908181526020018280548015611e5557602002820191906000526020600020905b815481526020019060010190808311611e41575b5050505050815260200160078201805480602002602001604051908101604052809291908181526020018280548015611ee357602002820191906000526020600020905b8160009054906101000a900473ffffffffffffffffffffffffffffffffffffffff1673ffffffffffffffffffffffffffffffffffffffff1681526020019060010190808311611e99575b505050505081526020016008820154815260200160098201548152602001600a820160009054906101000a900460ff1615151515815250509050828161010001818152505080600d6000868152602001908152602001600020600082015181600001556020820151816001019080519060200190611f6292919061450f565b506040820151816002019080519060200190611f7f92919061450f565b5060608201518160030160006101000a81548173ffffffffffffffffffffffffffffffffffffffff021916908373ffffffffffffffffffffffffffffffffffffffff16021790555060808201518160040160006101000a81548173ffffffffffffffffffffffffffffffffffffffff021916908373ffffffffffffffffffffffffffffffffffffffff16021790555060a08201518160050160006101000a81548173ffffffffffffffffffffffffffffffffffffffff021916908373ffffffffffffffffffffffffffffffffffffffff16021790555060c082015181600601908051906020019061207192919061459d565b5060e082015181600701908051906020019061208e9291906145ea565b506101008201518160080155610120820151816009015561014082015181600a0160006101000a81548160ff02191690831515021790555090505050505050565b60006120ff826040518060600160405280602981526020016151376029913960026139349092919063ffffffff16565b9050919050565b6060600061211383612c44565b905080915050919050565b606060098054600181600116156101000203166002900480601f0160208091040260200160405190810160405280929190818152602001828054600181600116156101000203166002900480156121b65780601f1061218b576101008083540402835291602001916121b6565b820191906000526020600020905b81548152906001019060200180831161219957829003601f168201915b5050505050905090565b600b8054600181600116156101000203166002900480601f0160208091040260200160405190810160405280929190818152602001828054600181600116156101000203166002900480156122565780601f1061222b57610100808354040283529160200191612256565b820191906000526020600020905b81548152906001019060200180831161223957829003601f168201915b505050505081565b60008073ffffffffffffffffffffffffffffffffffffffff168273ffffffffffffffffffffffffffffffffffffffff1614156122e5576040517f08c379a000000000000000000000000000000000000000000000000000000000815260040180806020018281038252602a81526020018061510d602a913960400191505060405180910390fd5b61232c600160008473ffffffffffffffffffffffffffffffffffffffff1673ffffffffffffffffffffffffffffffffffffffff168152602001908152602001600020613953565b9050919050565b600e818051602081018201805184825260208301602085012081835280955050505050506000915054906101000a900460ff1681565b606060078054600181600116156101000203166002900480601f0160208091040260200160405190810160405280929190818152602001828054600181600116156101000203166002900480156124015780601f106123d657610100808354040283529160200191612401565b820191906000526020600020905b8154815290600101906020018083116123e457829003601f168201915b5050505050905090565b612413613263565b73ffffffffffffffffffffffffffffffffffffffff168273ffffffffffffffffffffffffffffffffffffffff1614156124b4576040517f08c379a00000000000000000000000000000000000000000000000000000000081526004018080602001828103825260198152602001807f4552433732313a20617070726f766520746f2063616c6c65720000000000000081525060200191505060405180910390fd5b80600560006124c1613263565b73ffffffffffffffffffffffffffffffffffffffff1673ffffffffffffffffffffffffffffffffffffffff16815260200190815260200160002060008473ffffffffffffffffffffffffffffffffffffffff1673ffffffffffffffffffffffffffffffffffffffff16815260200190815260200160002060006101000a81548160ff0219169083151502179055508173ffffffffffffffffffffffffffffffffffffffff1661256e613263565b73ffffffffffffffffffffffffffffffffffffffff167f17307eab39ab6107e8899845ad3d59bd9653f200f220920489ca2b5937696c318360405180821515815260200191505060405180910390a35050565b600073ffffffffffffffffffffffffffffffffffffffff163373ffffffffffffffffffffffffffffffffffffffff1614156125fb57600080fd5b61260481613246565b61260d57600080fd5b6000612618826120cf565b90503373ffffffffffffffffffffffffffffffffffffffff168173ffffffffffffffffffffffffffffffffffffffff161461265257600080fd5b6000600d60008481526020019081526020016000206040518061016001604052908160008201548152602001600182018054600181600116156101000203166002900480601f0160208091040260200160405190810160405280929190818152602001828054600181600116156101000203166002900480156127165780601f106126eb57610100808354040283529160200191612716565b820191906000526020600020905b8154815290600101906020018083116126f957829003601f168201915b50505050508152602001600282018054600181600116156101000203166002900480601f0160208091040260200160405190810160405280929190818152602001828054600181600116156101000203166002900480156127b85780601f1061278d576101008083540402835291602001916127b8565b820191906000526020600020905b81548152906001019060200180831161279b57829003601f168201915b505050505081526020016003820160009054906101000a900473ffffffffffffffffffffffffffffffffffffffff1673ffffffffffffffffffffffffffffffffffffffff1673ffffffffffffffffffffffffffffffffffffffff1681526020016004820160009054906101000a900473ffffffffffffffffffffffffffffffffffffffff1673ffffffffffffffffffffffffffffffffffffffff1673ffffffffffffffffffffffffffffffffffffffff1681526020016005820160009054906101000a900473ffffffffffffffffffffffffffffffffffffffff1673ffffffffffffffffffffffffffffffffffffffff1673ffffffffffffffffffffffffffffffffffffffff1681526020016006820180548060200260200160405190810160405280929190818152602001828054801561291257602002820191906000526020600020905b8154815260200190600101908083116128fe575b50505050508152602001600782018054806020026020016040519081016040528092919081815260200182805480156129a057602002820191906000526020600020905b8160009054906101000a900473ffffffffffffffffffffffffffffffffffffffff1673ffffffffffffffffffffffffffffffffffffffff1681526020019060010190808311612956575b505050505081526020016008820154815260200160098201548152602001600a820160009054906101000a900460ff1615151515815250509050806101400151156129fc57600081610140019015159081151581525050612a0f565b6001816101400190151590811515815250505b80600d6000858152602001908152602001600020600082015181600001556020820151816001019080519060200190612a4992919061450f565b506040820151816002019080519060200190612a6692919061450f565b5060608201518160030160006101000a81548173ffffffffffffffffffffffffffffffffffffffff021916908373ffffffffffffffffffffffffffffffffffffffff16021790555060808201518160040160006101000a81548173ffffffffffffffffffffffffffffffffffffffff021916908373ffffffffffffffffffffffffffffffffffffffff16021790555060a08201518160050160006101000a81548173ffffffffffffffffffffffffffffffffffffffff021916908373ffffffffffffffffffffffffffffffffffffffff16021790555060c0820151816006019080519060200190612b5892919061459d565b5060e0820151816007019080519060200190612b759291906145ea565b506101008201518160080155610120820151816009015561014082015181600a0160006101000a81548160ff021916908315150217905550905050505050565b600080612bc1836120cf565b905080915050919050565b612bdd612bd7613263565b83613339565b612c32576040517f08c379a00000000000000000000000000000000000000000000000000000000081526004018080602001828103825260318152602001806152536031913960400191505060405180910390fd5b612c3e84848484613968565b50505050565b6060612c4f82613246565b612ca4576040517f08c379a000000000000000000000000000000000000000000000000000000000815260040180806020018281038252602f815260200180615203602f913960400191505060405180910390fd5b6000600860008481526020019081526020016000208054600181600116156101000203166002900480601f016020809104026020016040519081016040528092919081815260200182805460018160011615610100020316600290048015612d4d5780601f10612d2257610100808354040283529160200191612d4d565b820191906000526020600020905b815481529060010190602001808311612d3057829003601f168201915b505050505090506000612d5e61211e565b9050600081511415612d74578192505050612f10565b600082511115612e455780826040516020018083805190602001908083835b60208310612db65780518252602082019150602081019050602083039250612d93565b6001836020036101000a03801982511681845116808217855250505050505090500182805190602001908083835b60208310612e075780518252602082019150602081019050602083039250612de4565b6001836020036101000a0380198251168184511680821785525050505050509050019250505060405160208183030381529060405292505050612f10565b80612e4f856139da565b6040516020018083805190602001908083835b60208310612e855780518252602082019150602081019050602083039250612e62565b6001836020036101000a03801982511681845116808217855250505050505090500182805190602001908083835b60208310612ed65780518252602082019150602081019050602083039250612eb3565b6001836020036101000a03801982511681845116808217855250505050505090500192505050604051602081830303815290604052925050505b919050565b600080612f20610b86565b90508091505090565b600a8054600181600116156101000203166002900480601f016020809104026020016040519081016040528092919081815260200182805460018160011615610100020316600290048015612fbf5780601f10612f9457610100808354040283529160200191612fbf565b820191906000526020600020905b815481529060010190602001808311612fa257829003601f168201915b505050505081565b6000600560008473ffffffffffffffffffffffffffffffffffffffff1673ffffffffffffffffffffffffffffffffffffffff16815260200190815260200160002060008373ffffffffffffffffffffffffffffffffffffffff1673ffffffffffffffffffffffffffffffffffffffff16815260200190815260200160002060009054906101000a900460ff16905092915050565b600d602052806000526040600020600091509050806000015490806001018054600181600116156101000203166002900480601f01602080910402602001604051908101604052809291908181526020018280546001816001161561010002031660029004801561310d5780601f106130e25761010080835404028352916020019161310d565b820191906000526020600020905b8154815290600101906020018083116130f057829003601f168201915b505050505090806002018054600181600116156101000203166002900480601f0160208091040260200160405190810160405280929190818152602001828054600181600116156101000203166002900480156131ab5780601f10613180576101008083540402835291602001916131ab565b820191906000526020600020905b81548152906001019060200180831161318e57829003601f168201915b5050505050908060030160009054906101000a900473ffffffffffffffffffffffffffffffffffffffff16908060040160009054906101000a900473ffffffffffffffffffffffffffffffffffffffff16908060050160009054906101000a900473ffffffffffffffffffffffffffffffffffffffff169080600801549080600901549080600a0160009054906101000a900460ff16905089565b600061325c826002613b2190919063ffffffff16565b9050919050565b600033905090565b816004600083815260200190815260200160002060006101000a81548173ffffffffffffffffffffffffffffffffffffffff021916908373ffffffffffffffffffffffffffffffffffffffff160217905550808273ffffffffffffffffffffffffffffffffffffffff166132de836120cf565b73ffffffffffffffffffffffffffffffffffffffff167f8c5be1e5ebec7d5bd14f71427d1e84f3dd0314c0f7b2291e5b200ac8c7c3b92560405160405180910390a45050565b600061333282600001613b3b565b9050919050565b600061334482613246565b613399576040517f08c379a000000000000000000000000000000000000000000000000000000000815260040180806020018281038252602c8152602001806150a9602c913960400191505060405180910390fd5b60006133a4836120cf565b90508073ffffffffffffffffffffffffffffffffffffffff168473ffffffffffffffffffffffffffffffffffffffff16148061341357508373ffffffffffffffffffffffffffffffffffffffff166133fb84610990565b73ffffffffffffffffffffffffffffffffffffffff16145b8061342457506134238185612fc7565b5b91505092915050565b8273ffffffffffffffffffffffffffffffffffffffff1661344d826120cf565b73ffffffffffffffffffffffffffffffffffffffff16146134b9576040517f08c379a00000000000000000000000000000000000000000000000000000000081526004018080602001828103825260298152602001806151da6029913960400191505060405180910390fd5b600073ffffffffffffffffffffffffffffffffffffffff168273ffffffffffffffffffffffffffffffffffffffff16141561353f576040517f08c379a000000000000000000000000000000000000000000000000000000000815260040180806020018281038252602481526020018061505f6024913960400191505060405180910390fd5b61354a838383613b4c565b61355560008261326b565b6135a681600160008673ffffffffffffffffffffffffffffffffffffffff1673ffffffffffffffffffffffffffffffffffffffff168152602001908152602001600020613b5190919063ffffffff16565b506135f881600160008573ffffffffffffffffffffffffffffffffffffffff1673ffffffffffffffffffffffffffffffffffffffff168152602001908152602001600020613b6b90919063ffffffff16565b5061360f81836002613b859092919063ffffffff16565b50808273ffffffffffffffffffffffffffffffffffffffff168473ffffffffffffffffffffffffffffffffffffffff167fddf252ad1be2c89b69c2b068fc378daa952ba7f163c4a11628f55a4df523b3ef60405160405180910390a4505050565b600061367f8360000183613bba565b60001c905092915050565b60008060008061369d8660000186613c3d565b915091508160001c8160001c9350935050509250929050565b600073ffffffffffffffffffffffffffffffffffffffff168273ffffffffffffffffffffffffffffffffffffffff161415613759576040517f08c379a00000000000000000000000000000000000000000000000000000000081526004018080602001828103825260208152602001807f4552433732313a206d696e7420746f20746865207a65726f206164647265737381525060200191505060405180910390fd5b61376281613246565b156137d5576040517f08c379a000000000000000000000000000000000000000000000000000000000815260040180806020018281038252601c8152602001807f4552433732313a20746f6b656e20616c7265616479206d696e7465640000000081525060200191505060405180910390fd5b6137e160008383613b4c565b61383281600160008573ffffffffffffffffffffffffffffffffffffffff1673ffffffffffffffffffffffffffffffffffffffff168152602001908152602001600020613b6b90919063ffffffff16565b5061384981836002613b859092919063ffffffff16565b50808273ffffffffffffffffffffffffffffffffffffffff16600073ffffffffffffffffffffffffffffffffffffffff167fddf252ad1be2c89b69c2b068fc378daa952ba7f163c4a11628f55a4df523b3ef60405160405180910390a45050565b6138b382613246565b613908576040517f08c379a000000000000000000000000000000000000000000000000000000000815260040180806020018281038252602c8152602001806151ae602c913960400191505060405180910390fd5b8060086000848152602001908152602001600020908051906020019061392f92919061450f565b505050565b6000613947846000018460001b84613cd6565b60001c90509392505050565b600061396182600001613dcc565b9050919050565b61397384848461342d565b61397f84848484613ddd565b6139d4576040517f08c379a000000000000000000000000000000000000000000000000000000000815260040180806020018281038252603281526020018061502d6032913960400191505060405180910390fd5b50505050565b60606000821415613a22576040518060400160405280600181526020017f30000000000000000000000000000000000000000000000000000000000000008152509050613b1c565b600082905060005b60008214613a4c578080600101915050600a8281613a4457fe5b049150613a2a565b60008167ffffffffffffffff81118015613a6557600080fd5b506040519080825280601f01601f191660200182016040528015613a985781602001600182028036833780820191505090505b50905060006001830390508593505b60008414613b1457600a8481613ab957fe5b0660300160f81b82828060019003935081518110613ad357fe5b60200101907effffffffffffffffffffffffffffffffffffffffffffffffffffffffffffff1916908160001a905350600a8481613b0c57fe5b049350613aa7565b819450505050505b919050565b6000613b33836000018360001b613ff6565b905092915050565b600081600001805490509050919050565b505050565b6000613b63836000018360001b614019565b905092915050565b6000613b7d836000018360001b614101565b905092915050565b6000613bb1846000018460001b8473ffffffffffffffffffffffffffffffffffffffff1660001b614171565b90509392505050565b600081836000018054905011613c1b576040517f08c379a000000000000000000000000000000000000000000000000000000000815260040180806020018281038252602281526020018061500b6022913960400191505060405180910390fd5b826000018281548110613c2a57fe5b9060005260206000200154905092915050565b60008082846000018054905011613c9f576040517f08c379a00000000000000000000000000000000000000000000000000000000081526004018080602001828103825260228152602001806151606022913960400191505060405180910390fd5b6000846000018481548110613cb057fe5b906000526020600020906002020190508060000154816001015492509250509250929050565b60008084600101600085815260200190815260200160002054905060008114158390613d9d576040517f08c379a00000000000000000000000000000000000000000000000000000000081526004018080602001828103825283818151815260200191508051906020019080838360005b83811015613d62578082015181840152602081019050613d47565b50505050905090810190601f168015613d8f5780820380516001836020036101000a031916815260200191505b509250505060405180910390fd5b50846000016001820381548110613db057fe5b9060005260206000209060020201600101549150509392505050565b600081600001805490509050919050565b6000613dfe8473ffffffffffffffffffffffffffffffffffffffff1661424d565b613e0b5760019050613fee565b6000613f7563150b7a0260e01b613e20613263565b888787604051602401808573ffffffffffffffffffffffffffffffffffffffff1681526020018473ffffffffffffffffffffffffffffffffffffffff16815260200183815260200180602001828103825283818151815260200191508051906020019080838360005b83811015613ea4578082015181840152602081019050613e89565b50505050905090810190601f168015613ed15780820380516001836020036101000a031916815260200191505b5095505050505050604051602081830303815290604052907bffffffffffffffffffffffffffffffffffffffffffffffffffffffff19166020820180517bffffffffffffffffffffffffffffffffffffffffffffffffffffffff838183161783525050505060405180606001604052806032815260200161502d603291398773ffffffffffffffffffffffffffffffffffffffff166142609092919063ffffffff16565b90506000818060200190516020811015613f8e57600080fd5b8101908080519060200190929190505050905063150b7a0260e01b7bffffffffffffffffffffffffffffffffffffffffffffffffffffffff1916817bffffffffffffffffffffffffffffffffffffffffffffffffffffffff191614925050505b949350505050565b600080836001016000848152602001908152602001600020541415905092915050565b600080836001016000848152602001908152602001600020549050600081146140f5576000600182039050600060018660000180549050039050600086600001828154811061406457fe5b906000526020600020015490508087600001848154811061408157fe5b90600052602060002001819055506001830187600101600083815260200190815260200160002081905550866000018054806140b957fe5b600190038181906000526020600020016000905590558660010160008781526020019081526020016000206000905560019450505050506140fb565b60009150505b92915050565b600061410d8383614278565b61416657826000018290806001815401808255809150506001900390600052602060002001600090919091909150558260000180549050836001016000848152602001908152602001600020819055506001905061416b565b600090505b92915050565b600080846001016000858152602001908152602001600020549050600081141561421857846000016040518060400160405280868152602001858152509080600181540180825580915050600190039060005260206000209060020201600090919091909150600082015181600001556020820151816001015550508460000180549050856001016000868152602001908152602001600020819055506001915050614246565b8285600001600183038154811061422b57fe5b90600052602060002090600202016001018190555060009150505b9392505050565b600080823b905060008111915050919050565b606061426f848460008561429b565b90509392505050565b600080836001016000848152602001908152602001600020541415905092915050565b6060824710156142f6576040517f08c379a00000000000000000000000000000000000000000000000000000000081526004018080602001828103825260268152602001806150836026913960400191505060405180910390fd5b6142ff8561424d565b614371576040517f08c379a000000000000000000000000000000000000000000000000000000000815260040180806020018281038252601d8152602001807f416464726573733a2063616c6c20746f206e6f6e2d636f6e747261637400000081525060200191505060405180910390fd5b6000808673ffffffffffffffffffffffffffffffffffffffff1685876040518082805190602001908083835b602083106143c0578051825260208201915060208101905060208303925061439d565b6001836020036101000a03801982511681845116808217855250505050505090500191505060006040518083038185875af1925050503d8060008114614422576040519150601f19603f3d011682016040523d82523d6000602084013e614427565b606091505b5091509150614437828286614443565b92505050949350505050565b6060831561445357829050614508565b6000835111156144665782518084602001fd5b816040517f08c379a00000000000000000000000000000000000000000000000000000000081526004018080602001828103825283818151815260200191508051906020019080838360005b838110156144cd5780820151818401526020810190506144b2565b50505050905090810190601f1680156144fa5780820380516001836020036101000a031916815260200191505b509250505060405180910390fd5b9392505050565b828054600181600116156101000203166002900490600052602060002090601f016020900481019282614545576000855561458c565b82601f1061455e57805160ff191683800117855561458c565b8280016001018555821561458c579182015b8281111561458b578251825591602001919060010190614570565b5b5090506145999190614674565b5090565b8280548282559060005260206000209081019282156145d9579160200282015b828111156145d85782518255916020019190600101906145bd565b5b5090506145e69190614674565b5090565b828054828255906000526020600020908101928215614663579160200282015b828111156146625782518260006101000a81548173ffffffffffffffffffffffffffffffffffffffff021916908373ffffffffffffffffffffffffffffffffffffffff1602179055509160200191906001019061460a565b5b5090506146709190614674565b5090565b5b8082111561468d576000816000905550600101614675565b5090565b60006146a461469f84614e4c565b614e1b565b9050828152602081018484840111156146bc57600080fd5b6146c7848285614f59565b509392505050565b60006146e26146dd84614e7c565b614e1b565b9050828152602081018484840111156146fa57600080fd5b614705848285614f59565b509392505050565b60008135905061471c81614fae565b92915050565b60008083601f84011261473457600080fd5b8235905067ffffffffffffffff81111561474d57600080fd5b60208301915083602082028301111561476557600080fd5b9250929050565b60008135905061477b81614fc5565b92915050565b60008135905061479081614fdc565b92915050565b600082601f8301126147a757600080fd5b81356147b7848260208601614691565b91505092915050565b600082601f8301126147d157600080fd5b81356147e18482602086016146cf565b91505092915050565b6000813590506147f981614ff3565b92915050565b60006020828403121561481157600080fd5b600061481f8482850161470d565b91505092915050565b6000806040838503121561483b57600080fd5b60006148498582860161470d565b925050602061485a8582860161470d565b9150509250929050565b60008060006060848603121561487957600080fd5b60006148878682870161470d565b93505060206148988682870161470d565b92505060406148a9868287016147ea565b9150509250925092565b600080600080608085870312156148c957600080fd5b60006148d78782880161470d565b94505060206148e88782880161470d565b93505060406148f9878288016147ea565b925050606085013567ffffffffffffffff81111561491657600080fd5b61492287828801614796565b91505092959194509250565b6000806040838503121561494157600080fd5b600061494f8582860161470d565b92505060206149608582860161476c565b9150509250929050565b6000806040838503121561497d57600080fd5b600061498b8582860161470d565b925050602061499c858286016147ea565b9150509250929050565b6000602082840312156149b857600080fd5b60006149c684828501614781565b91505092915050565b6000602082840312156149e157600080fd5b600082013567ffffffffffffffff8111156149fb57600080fd5b614a07848285016147c0565b91505092915050565b60008060408385031215614a2357600080fd5b600083013567ffffffffffffffff811115614a3d57600080fd5b614a49858286016147c0565b925050602083013567ffffffffffffffff811115614a6657600080fd5b614a72858286016147c0565b9150509250929050565b60008060008060008060a08789031215614a9557600080fd5b600087013567ffffffffffffffff811115614aaf57600080fd5b614abb89828a016147c0565b965050602087013567ffffffffffffffff811115614ad857600080fd5b614ae489828a016147c0565b9550506040614af589828a016147ea565b945050606087013567ffffffffffffffff811115614b1257600080fd5b614b1e89828a01614722565b9350935050608087013567ffffffffffffffff811115614b3d57600080fd5b614b4989828a016147c0565b9150509295509295509295565b600060208284031215614b6857600080fd5b6000614b76848285016147ea565b91505092915050565b60008060408385031215614b9257600080fd5b6000614ba0858286016147ea565b9250506020614bb1858286016147ea565b9150509250929050565b614bc481614ee5565b82525050565b614bd381614ed3565b82525050565b614be281614ef7565b82525050565b6000614bf48385614ec8565b9350614c01838584614f59565b82840190509392505050565b6000614c1882614eac565b614c228185614eb7565b9350614c32818560208601614f68565b614c3b81614f9d565b840191505092915050565b6000614c5182614eac565b614c5b8185614ec8565b9350614c6b818560208601614f68565b80840191505092915050565b614c8081614f4f565b82525050565b6000614c93828486614be8565b91508190509392505050565b6000614cab8284614c46565b915081905092915050565b6000602082019050614ccb6000830184614bca565b92915050565b6000602082019050614ce66000830184614bd9565b92915050565b60006020820190508181036000830152614d068184614c0d565b905092915050565b6000602082019050614d236000830184614c77565b92915050565b600061012082019050614d3f600083018c614c77565b8181036020830152614d51818b614c0d565b90508181036040830152614d65818a614c0d565b9050614d746060830189614bbb565b614d816080830188614bbb565b614d8e60a0830187614bbb565b614d9b60c0830186614c77565b614da860e0830185614c77565b614db6610100830184614bd9565b9a9950505050505050505050565b60008083356001602003843603038112614ddd57600080fd5b80840192508235915067ffffffffffffffff821115614dfb57600080fd5b602083019250600182023603831315614e1357600080fd5b509250929050565b6000604051905081810181811067ffffffffffffffff82111715614e4257614e41614f9b565b5b8060405250919050565b600067ffffffffffffffff821115614e6757614e66614f9b565b5b601f19601f8301169050602081019050919050565b600067ffffffffffffffff821115614e9757614e96614f9b565b5b601f19601f8301169050602081019050919050565b600081519050919050565b600082825260208201905092915050565b600081905092915050565b6000614ede82614f2f565b9050919050565b6000614ef082614f2f565b9050919050565b60008115159050919050565b60007fffffffff0000000000000000000000000000000000000000000000000000000082169050919050565b600073ffffffffffffffffffffffffffffffffffffffff82169050919050565b6000819050919050565b82818337600083830152505050565b60005b83811015614f86578082015181840152602081019050614f6b565b83811115614f95576000848401525b50505050565bfe5b6000601f19601f8301169050919050565b614fb781614ed3565b8114614fc257600080fd5b50565b614fce81614ef7565b8114614fd957600080fd5b50565b614fe581614f03565b8114614ff057600080fd5b50565b614ffc81614f4f565b811461500757600080fd5b5056fe456e756d657261626c655365743a20696e646578206f7574206f6620626f756e64734552433732313a207472616e7366657220746f206e6f6e20455243373231526563656976657220696d706c656d656e7465724552433732313a207472616e7366657220746f20746865207a65726f2061646472657373416464726573733a20696e73756666696369656e742062616c616e636520666f722063616c6c4552433732313a206f70657261746f7220717565727920666f72206e6f6e6578697374656e7420746f6b656e4552433732313a20617070726f76652063616c6c6572206973206e6f74206f776e6572206e6f7220617070726f76656420666f7220616c6c4552433732313a2062616c616e636520717565727920666f7220746865207a65726f20616464726573734552433732313a206f776e657220717565727920666f72206e6f6e6578697374656e7420746f6b656e456e756d657261626c654d61703a20696e646578206f7574206f6620626f756e64734552433732313a20617070726f76656420717565727920666f72206e6f6e6578697374656e7420746f6b656e4552433732314d657461646174613a2055524920736574206f66206e6f6e6578697374656e7420746f6b656e4552433732313a207472616e73666572206f6620746f6b656e2074686174206973206e6f74206f776e4552433732314d657461646174613a2055524920717565727920666f72206e6f6e6578697374656e7420746f6b656e4552433732313a20617070726f76616c20746f2063757272656e74206f776e65724552433732313a207472616e736665722063616c6c6572206973206e6f74206f776e6572206e6f7220617070726f766564a264697066735822122081136f265e025661958ee7eae63dbb9c3f82aa41190b79ccb2a2bcb96884446564736f6c63430007060033",
  "immutableReferences": {},
  "source": "// SPDX-License-Identifier: MIT\r\npragma solidity >=0.4.21 <0.8.0;\r\npragma abicoder v2;\r\n\r\n// ERC721\r\nimport \"./ERC721.sol\";\r\n\r\n//OwnedEverythings  ERC721 \r\ncontract OwnedEverythings is ERC721 {\r\n\r\n    //\r\n    string public collectionName;\r\n    //\r\n    string public collectionNameSymbol;\r\n    //\r\n    uint256 public ownedeverythingCounter;\r\n\r\n    // \r\n    struct ownedeverything {\r\n        uint256 tokenId;\r\n        string tokenName;\r\n        string tokenURI;\r\n        address payable mintedBy;\r\n        address payable currentOwner;\r\n        address payable previousOwner;\r\n        uint256[] _timestamp;\r\n        address [] _traceAddresses;\r\n        uint256 price;\r\n        uint256 numberOfTransfers;\r\n        bool forSale;\r\n    }\r\n\r\n    // id=>\r\n    mapping(uint256 => ownedeverything) public allOwnedEverythings;\r\n    // \r\n    mapping(string => bool) public colorExists;\r\n    // url\r\n    mapping(string => bool) public tokenURIExists;\r\n\r\n    // \r\n    constructor() ERC721(\"OwnedEverythings\", \"OW_EThing\") {\r\n        collectionName = name();\r\n        collectionNameSymbol = symbol();\r\n    }\r\n\r\n    // \r\n    function isEqual(string memory a, string memory b) public pure returns (bool) {\r\n        bytes memory aa = bytes(a);\r\n        bytes memory bb = bytes(b);\r\n        // \r\n        if (aa.length != bb.length) return false;\r\n        // \r\n        for(uint i = 0; i < aa.length; i ++) {\r\n            if(aa[i] != bb[i]) return false;\r\n        }\r\n        return true;\r\n    }\r\n\r\n    // \r\n    function mintownedeverything(string memory _name, string memory _tokenURI, uint256 _price, string[] calldata _colors,string memory _tokenType) external {\r\n        // \r\n        require(msg.sender != address(0));\r\n        // \r\n        ownedeverythingCounter ++;\r\n        //  id => \r\n        require(!_exists(ownedeverythingCounter));\r\n\r\n        if (isEqual(_tokenType,'color')){\r\n            // \r\n            for (uint i = 0; i < _colors.length; i++) {\r\n                require(!colorExists[_colors[i]]);\r\n            }\r\n        }\r\n\r\n        //  URI \r\n        require(!tokenURIExists[_tokenURI]);\r\n\r\n        // \r\n        _mint(msg.sender, ownedeverythingCounter);\r\n        //  URI ID  URI \r\n        _setTokenURI(ownedeverythingCounter, _tokenURI);\r\n\r\n        if (isEqual(_tokenType,'color')){\r\n            // \r\n            for (uint i = 0; i < _colors.length; i++) {\r\n                colorExists[_colors[i]] = true;\r\n            }\r\n        }\r\n        //  URI \r\n        tokenURIExists[_tokenURI] = true;\r\n\r\n        //\r\n        // \r\n        uint256[] memory _timestamp = new uint256[](1);\r\n        _timestamp[0]=block.timestamp;\r\n\r\n        // \r\n        address[] memory _traceAddresses = new address[](1);\r\n        _traceAddresses[0]=msg.sender;\r\n\r\n\r\n        // \r\n        allOwnedEverythings[ownedeverythingCounter] = ownedeverything(\r\n            ownedeverythingCounter,\r\n            _name,\r\n            _tokenURI,\r\n            msg.sender,\r\n            msg.sender,\r\n            address(0),\r\n            _timestamp,\r\n            _traceAddresses,\r\n            _price,\r\n            0,\r\n            true);\r\n    }\r\n\r\n    // \r\n    function getTokenOwner(uint256 _tokenId) public view returns (address) {\r\n        address _tokenOwner = ownerOf(_tokenId);\r\n        return _tokenOwner;\r\n    }\r\n\r\n    // \r\n    function getTokenMetaData(uint _tokenId) public view returns (string memory) {\r\n        string memory tokenMetaData = tokenURI(_tokenId);\r\n        return tokenMetaData;\r\n    }\r\n\r\n    // \r\n    function getNumberOfTokensMinted() public view returns (uint256) {\r\n        uint256 totalNumberOfTokensMinted = totalSupply();\r\n        return totalNumberOfTokensMinted;\r\n    }\r\n\r\n    // \r\n    function getTotalNumberOfTokensOwnedByAnAddress(address _owner) public view returns (uint256) {\r\n        uint256 totalNumberOfTokensOwned = balanceOf(_owner);\r\n        return totalNumberOfTokensOwned;\r\n    }\r\n\r\n    // \r\n    function getTokenExists(uint256 _tokenId) public view returns (bool) {\r\n        bool tokenExists = _exists(_tokenId);\r\n        return tokenExists;\r\n    }\r\n\r\n    //  id\r\n    function buyToken(uint256 _tokenId) public payable {\r\n        // \r\n        require(msg.sender != address(0));\r\n        // id\r\n        require(_exists(_tokenId));\r\n        // \r\n        address tokenOwner = ownerOf(_tokenId);\r\n        // \r\n        require(tokenOwner != address(0));\r\n        // \r\n        require(tokenOwner != msg.sender);\r\n        //  (struct => ownedeverything) \r\n        ownedeverything memory ownedeverything = allOwnedEverythings[_tokenId];\r\n        // \r\n        require(msg.value >= ownedeverything.price);\r\n        // \r\n        require(ownedeverything.forSale);\r\n        // \r\n        _transfer(tokenOwner, msg.sender, _tokenId);\r\n        // \r\n        address payable sendTo = ownedeverything.currentOwner;\r\n        // \r\n        sendTo.transfer(msg.value);\r\n        // \r\n        ownedeverything.previousOwner = ownedeverything.currentOwner;\r\n        // \r\n        ownedeverything.currentOwner = msg.sender;\r\n        // \r\n        allOwnedEverythings[_tokenId]._timestamp.push(block.timestamp);\r\n        // \r\n        allOwnedEverythings[_tokenId]._traceAddresses.push(msg.sender);\r\n        // \r\n        ownedeverything.numberOfTransfers += 1;\r\n        // \r\n        allOwnedEverythings[_tokenId] = ownedeverything;\r\n    }\r\n\r\n    //    \r\n    function changeTokenPrice(uint256 _tokenId, uint256 _newPrice) public {\r\n        // require caller of the function is not an empty address\r\n        require(msg.sender != address(0));\r\n        // require that token should exist\r\n        require(_exists(_tokenId));\r\n        // get the token's owner\r\n        address tokenOwner = ownerOf(_tokenId);\r\n        // check that token's owner should be equal to the caller of the function\r\n        require(tokenOwner == msg.sender);\r\n        // get that token from all crypto boys mapping and create a memory of it defined as (struct => ownedeverything)\r\n        ownedeverything memory ownedeverything = allOwnedEverythings[_tokenId];\r\n        // update token's price with new price\r\n        ownedeverything.price = _newPrice;\r\n        // set and update that token in the mapping\r\n        allOwnedEverythings[_tokenId] = ownedeverything;\r\n    }\r\n\r\n    // \r\n    function toggleForSale(uint256 _tokenId) public {\r\n        // require caller of the function is not an empty address\r\n        require(msg.sender != address(0));\r\n        // require that token should exist\r\n        require(_exists(_tokenId));\r\n        // get the token's owner\r\n        address tokenOwner = ownerOf(_tokenId);\r\n        // check that token's owner should be equal to the caller of the function\r\n        require(tokenOwner == msg.sender);\r\n        // get that token from all crypto boys mapping and create a memory of it defined as (struct => ownedeverything)\r\n        ownedeverything memory ownedeverything = allOwnedEverythings[_tokenId];\r\n        // if token's forSale is false make it true and vice versa\r\n        if (ownedeverything.forSale) {\r\n            ownedeverything.forSale = false;\r\n        } else {\r\n            ownedeverything.forSale = true;\r\n        }\r\n        // set and update that token in the mapping\r\n        allOwnedEverythings[_tokenId] = ownedeverything;\r\n    }\r\n}",
  "sourcePath": "C:\\Users\\THINK\\Desktop\\nft-marketplace\\user-client_final\\src\\contracts\\OwnedEverthings.sol",
  "compiler": {
    "name": "solc",
    "version": "0.7.6+commit.7338295f.Emscripten.clang"
  },
  "schemaVersion": "3.4.5",
  "updatedAt": "2022-04-30T15:24:19.344Z",
  "networkType": "ethereum",
  "devdoc": {
    "kind": "dev",
    "methods": {
      "approve(address,uint256)": {
        "details": "See {IERC721-approve}."
      },
      "balanceOf(address)": {
        "details": "See {IERC721-balanceOf}."
      },
      "baseURI()": {
        "details": "Returns the base URI set via {_setBaseURI}. This will be automatically added as a prefix in {tokenURI} to each token's URI, or to the token ID if no specific URI is set for that token ID."
      },
      "getApproved(uint256)": {
        "details": "See {IERC721-getApproved}."
      },
      "isApprovedForAll(address,address)": {
        "details": "See {IERC721-isApprovedForAll}."
      },
      "name()": {
        "details": "See {IERC721Metadata-name}."
      },
      "ownerOf(uint256)": {
        "details": "See {IERC721-ownerOf}."
      },
      "safeTransferFrom(address,address,uint256)": {
        "details": "See {IERC721-safeTransferFrom}."
      },
      "safeTransferFrom(address,address,uint256,bytes)": {
        "details": "See {IERC721-safeTransferFrom}."
      },
      "setApprovalForAll(address,bool)": {
        "details": "See {IERC721-setApprovalForAll}."
      },
      "supportsInterface(bytes4)": {
        "details": "See {IERC165-supportsInterface}. Time complexity O(1), guaranteed to always use less than 30 000 gas."
      },
      "symbol()": {
        "details": "See {IERC721Metadata-symbol}."
      },
      "tokenByIndex(uint256)": {
        "details": "See {IERC721Enumerable-tokenByIndex}."
      },
      "tokenOfOwnerByIndex(address,uint256)": {
        "details": "See {IERC721Enumerable-tokenOfOwnerByIndex}."
      },
      "tokenURI(uint256)": {
        "details": "See {IERC721Metadata-tokenURI}."
      },
      "totalSupply()": {
        "details": "See {IERC721Enumerable-totalSupply}."
      },
      "transferFrom(address,address,uint256)": {
        "details": "See {IERC721-transferFrom}."
      }
    },
    "version": 1
  },
  "userdoc": {
    "kind": "user",
    "methods": {},
    "version": 1
  }
}